:020000021000EC
:10F0000000000120593302008133020083330200E3
:10F0100085330200873302008933020000000000BC
:10F020000000000000000000000000008B33020020
:10F030008D330200000000008F3302009133020084
:10F04000E105020093330200111302009333020022
:10F050009333020093330200410A0200933302000B
:10F060009333020093330200933302009333020080
:10F070009333020093330200933302009333020070
:10F0800093330200F5F7010093330200933302003B
:10F09000B9F8010093330200393A020093330200B9
:10F0A0009333020093330200933302009333020040
:10F0B00093330200933302000000000000000000C0
:10F0C0009333020093330200933302009333020020
:10F0D00093330200933302009333020000000000D8
:10F0E0000000000000000000000000000000000020
:10F0F0000000000000000000000000000000000010
:10F1000000000000000000000000000000000000FF
:10F1100000000000000000000000000000000000EF
:10F4000010B5054C237833B9044B13B10448AFF35E
:10F4100000800123237010BDAC21002000000000FB
:10F42000244A0200084B10B51BB108480849AFF345
:10F4300000800848036803B910BD074B002BFBD0C0
:10F44000BDE81040184700BF00000000244A020039
:10F45000B0210020A821002000000000154B002B47
:10F4600008BF134B9D46A3F5803A00218B460F46FB
:10F470001348144A121A00F065F80F4B002B00D005
:10F4800098470E4B002B00D0984700200021040025
:10F490000D000D48002802D00C48AFF3008000F0AA
:10F4A0002BF82000290002F00FFE00F011F800BF39
:10F4B0000000080000000120000000000000000023
:10F4C000AC210020302800200000000000000000D7
:10F4D00008B5074B044613B10021AFF30080054B7C
:10F4E0001868836A03B19847204600F033F800BFDC
:10F4F00000000000E848020070B50E4B0E4CE41A04
:10F50000A41000251E46A54204D056F82530984781
:10F510000135F8E705F0DAF9084C094BE41AA410B4
:10F5200000251E46A54204D056F8253098470135DF
:10F53000F8E770BDA0210020A0210020A421002018
:10F54000A021002002440346934202D003F8011B8D
:10F55000FAE77047FEE700BF2DE9F84F234B1A7812
:10F560008AB3DFF88CB0DFF88C80DFF88C90002451
:10F570004FF0010A03E00134E4B2944223D226B2F0
:10F58000D8F80050DBF8003015F836000AFA00F120
:10F59000194205EBC607EED0154A23EA01031360B2
:10F5A00001F044FA15F83650D9F800300AFA05F19E
:10F5B0000B4000FA05F18B4207D00C4B01341A784E
:10F5C000E4B29442DBD3BDE8F88F79787B68A1F18F
:10F5D0000101B1FA81F14909002BEED0091A284640
:10F5E000B1FA81F149099847E7E700BFD02100202F
:10F5F000F8210020CC210020F421002070B506461F
:10F60000114800F089FD40B9104D01242B68B44029
:10F610001C4203D023EA04042C6070BD304601F084
:10F6200005FA0B4E326860B122432B6809493260FB
:10F630001C432C60044809680022BDE8704000F0BB
:10F6400013BD22EA0402F0E7D4210020F8210020B3
:10F65000F4210020C8210020F0B5042A85B0174607
:10F6600002D8072005B0F0BD0191054601F0A8F8C9
:10F670000199002830D01C4CDFF888E01B481C4A58
:10F680001C4B256000264C1E07608EF8001016608B
:10F690001E60E4B2032709B918E01C4623B205EB4B
:10F6A000C30215F833009378134A8DF80D3003A97F
:10F6B0008DF80C708DF80E608DF80F6001F08AF8EF
:10F6C000631E0028CED1DBB2002CE6D10B4A0C48D9
:10F6D000002100F0B7FCC5E7019101F02FF8019976
:10F6E0000028C8D0BEE700BFCC210020C8210020E0
:10F6F000F4210020F8210020FDF5010059F501005A
:10F70000EC480200D021002070B5084D2B785BB189
:10F71000074E00243368012113F8340001F024F966
:10F720002B780134A342F5D8002070BDD0210020F1
:10F73000CC21002000B585B000230390194644F287
:10F74000010001AAADF80430029300F003F805B0FF
:10F750005DF804FBBFF34F8F0549064BCA6802F4FE
:10F76000E0621343CB60BFF34F8F00BFFDE700BFE4
:10F7700000ED00E00400FA0559B10AB9092070470C
:10F78000531E1A40FAD1826001608380C260104625
:10F7900070470E20704700BF10B48468C2680346EB
:10F7A0008088121B904203D204205DF8044B7047FE
:10F7B000DA681C6802400020A154DA680132DA607D
:10F7C0005DF8044B704700BF03468068DA689042DA
:10F7D0000DD010B49A6898881C6802400020A25C82
:10F7E0000A709A6801329A605DF8044B70470520F0
:10F7F000704700BF2DE9F041274A284B0025C2F889
:10F800004051C2F84451C2F84851C2F84C51C2F8B4
:10F810000051C2F804511B681BB32149D2F80425DA
:10F820000C68204F141B1A6824F07F44A242A8469B
:10F8300009D8197CDE69A41A1544A1B91EB1334652
:10F840001A68A242F5D9184B18491A780B789A42CF
:10F850001BD01749174A41F823504FF48013C2F8C0
:10F860000031BDE8F081D3F814C083F810803A6805
:10F870009B69604619462AB190470028DED0FFF701
:10F8800059FFDBE71846E047D8E7531CDBB2022BF1
:10F8900008BF00230B70DCE70010014000220020AD
:10F8A000FC21002004220020082200200922002040
:10F8B0001422002000E100E02DE9F04F894A8A4936
:10F8C000137809788948994287B0D0F8009000F001
:10F8D00016820133DBB2022B08BF00231370844A67
:10F8E00052F82370814A07EB090323F07F4313602A
:10F8F0004FF0010A7F4BCDF80C90D3F800807E4B7F
:10F9000019785B7801931E467B4B5C6893F802E0A4
:10F910007A4B93F800B0754B1B68029342464346FE
:10F920000020BC46B14217D001EB4105013114F86B
:10F930003570C9B2714508BF0021022F04EBC5051F
:10F9400077D0032FEED1002BECD0DA691874134670
:10F95000002AFAD1B142E7D1664902980A606349A8
:10F96000DDF80C9008606549674681F800B0BAF18F
:10F97000000F40F0A481B8EB030218BF01220592EA
:10F98000039355461E46594BDFF87491D3F800C0D7
:10F99000584BD3F800A0584BD3F804B09B7802938F
:10F9A000554B93F800E0554B1B78049300274FF01C
:10F9B000010835B36968A8682C46ED69CCEB0102F3
:10F9C00022F07F424A4556D8131823606760A7602B
:10F9D00084F81080E761002E7FD0316899425CD2B4
:10F9E000304603E0116899425ED21046C2695B1A44
:10F9F000002AF7D12360E2613346C4611E46002D20
:10FA0000D8D1019B9E457DD00EEB4E020BEBC2037D
:10FA10000EF1010E1BF8322002995C685FFA8EFE2F
:10FA20008E4508BF4FF0000E012A44D033461E46D3
:10FA3000E5E7D5F80490002B3FF474AF4B4500F098
:10FA400039811F4600E02F46FD69002D3FF46AAF63
:10FA5000A945F8D1B946A9452F4600F02B81FD698B
:10FA60003F68C9F81C50002D3FF45CAF2B683B4445
:10FA70002B60134656E7C1EB0C0121F07F41814218
:10FA800002D2431A2360A1E727606760A76084F869
:10FA90001080E7610EB331680023CB1A3360234630
:10FAA000E661A2461E46AAE7C91A11602360E26118
:10FAB0003346C461A2E7227C002AB7D1996861600D
:10FAC000D868A0601A69E2605B69A361049B002B9F
:10FAD0003FF474AF6560294670E72346A2461E4690
:10FAE0008DE700BF0822002009220020FC21002011
:10FAF00014220020002200200C2200200A220020D4
:10FB0000FEFF7F00854B83F800E0854BC3F800A023
:10FB1000039BB34200F0C480002E00F01181814CA1
:10FB2000814BD4F804051B68804DD6F800C02978B5
:10FB3000C21A22F07F420332002952D17C4FDFF8F3
:10FB4000F491DFF8F4814FF480314FF4003E012648
:10FB5000C4F84413C4F80413C7F880E1C7F800E000
:10FB600026602F21D9F8004000BF00BF00BF00BFB2
:10FB700000BF00BF00BF00BF44452FD000BF00BF83
:10FB800000BF00BF00BF00BF00BF00BF00BF00BF7D
:10FB900000BF00BF00BF00BF00BF00BF00BF00BF6D
:10FBA00000BF00BF00BF00BF00BF00BF00BF00BF5D
:10FBB00000BF00BF00BF00BF00BF00BF00BF00BF4D
:10FBC00000BF00BF00BF00BF00BF00BF00BF00BF3D
:10FBD00000BF00BF00BF00BF00BF00BF0139C3D1DD
:10FBE0002E7062452CBF9A1803EB0C024D4922F08F
:10FBF0007F43C1F84035D1F80425121A1B1A22F0B0
:10FC00007F4223F07F4303329A424DD9D1F8043525
:10FC1000484AC1F84035126847492F2300BF00BF4A
:10FC200000BF00BF00BF00BF00BF00BF8A422FD08F
:10FC300000BF00BF00BF00BF00BF00BF00BF00BFCC
:10FC400000BF00BF00BF00BF00BF00BF00BF00BFBC
:10FC500000BF00BF00BF00BF00BF00BF00BF00BFAC
:10FC600000BF00BF00BF00BF00BF00BF00BF00BF9C
:10FC700000BF00BF00BF00BF00BF00BF00BF00BF8C
:10FC800000BF00BF00BF00BF00BF00BF00BF00BF7C
:10FC9000013BC3D1264B4FF40032C3F8002103E0EF
:10FCA000059B002B7FF438AF244A0023137007B064
:10FCB000BDE8F08FDA6942B313464F46CFE6002520
:10FCC00028462C46A3B11968B9421BD8DA681C60D3
:10FCD0007F1A0844D9693AB100EB090626F07F463D
:10FCE000DD619A605E601D460B460A46002BEAD134
:10FCF0000B49039301230A600593039E43E6002703
:10FD0000BA46F7E5C91B1960F2E7064B01259D606D
:10FD10004F4613460292AB46A1E600BF0C220020DC
:10FD20000022002000100140FC2100201C220020A5
:10FD300000E100E09C2100200024F4000A220020C1
:10FD4000484A494B494D4A484FF480314FF40037F7
:10FD50000124C3F88070C2F848132F23C2F8081397
:10FD6000546029681D4600BF00BF00BF00BF00BF30
:10FD700000BF00BF00BF81422FD000BF00BF00BF47
:10FD800000BF00BF00BF00BF00BF00BF00BF00BF7B
:10FD900000BF00BF00BF00BF00BF00BF00BF00BF6B
:10FDA00000BF00BF00BF00BF00BF00BF00BF00BF5B
:10FDB00000BF00BF00BF00BF00BF00BF00BF00BF4B
:10FDC00000BF00BF00BF00BF00BF00BF00BF00BF3B
:10FDD00000BF00BF00BF00BF00BF013DC3D19460A2
:10FDE000244A166000BF00BF00BF00BF00BF00BFB5
:10FDF00000BF00BF81422FD000BF00BF00BF00BFC7
:10FE000000BF00BF00BF00BF00BF00BF00BF00BFFA
:10FE100000BF00BF00BF00BF00BF00BF00BF00BFEA
:10FE200000BF00BF00BF00BF00BF00BF00BF00BFDA
:10FE300000BF00BF00BF00BF00BF00BF00BF00BFCA
:10FE400000BF00BF00BF00BF00BF00BF00BF00BFBA
:10FE500000BF00BF00BF00BF013BC3D1064B1E70F7
:10FE600022E700BF0010014000E100E09C210020DB
:10FE70000024F400FC2100201C2200202DE9F04F7A
:10FE800012F0030402D00720BDE8F08F002AFAD058
:10FE9000614D624EDFF88CC1DFF88C814FF4803EFB
:10FEA0004FF400374FF00109C6F88070C5F848E3F9
:10FEB0002F27C5F808E3C5F80490DCF800C0BE465B
:10FEC00000BF00BF00BF00BF00BF00BF00BF00BF3A
:10FED000C4452FD000BF00BF00BF00BF00BF00BFA0
:10FEE00000BF00BF00BF00BF00BF00BF00BF00BF1A
:10FEF00000BF00BF00BF00BF00BF00BF00BF00BF0A
:10FF000000BF00BF00BF00BF00BF00BF00BF00BFF9
:10FF100000BF00BF00BF00BF00BF00BF00BF00BFE9
:10FF200000BF00BF00BF00BF00BF00BF00BF00BFD9
:10FF300000BF00BFBEF1010EC2D1DFF8F0E0C5F88E
:10FF40000890CEF8004000BF00BF00BF00BF00BF58
:10FF500000BF00BF00BFC4452FD000BF00BF00BF1F
:10FF600000BF00BF00BF00BF00BF00BF00BF00BF99
:10FF700000BF00BF00BF00BF00BF00BF00BF00BF89
:10FF800000BF00BF00BF00BF00BF00BF00BF00BF79
:10FF900000BF00BF00BF00BF00BF00BF00BF00BF69
:10FFA00000BF00BF00BF00BF00BF00BF00BF00BF59
:10FFB00000BF00BF00BF00BF00BF013FC3D1DFF8DB
:10FFC00070C0DFF870B0164FDFF86CA0DFF86C90EF
:10FFD000DFF86C808CF80040CBF800304FF4801CC8
:10FFE000E023B9703C707C70CAF8004089F800408A
:10FFF00088F80040C6F880C186F81433C6F800C0FF
:020000022000DC
:10000000C5F8080586F81133D5F80435CEF8003068
:100010007A602046BDE8F08F0010014000E100E06A
:100020000C2200209C2100200024F400FC21002050
:100030001C22002004220020002200200822002090
:1000400009220020074B5B6823B12AB120B1036865
:10005000187C18B1082070470720704759745A61FE
:10006000704700BF0C2200202DE9F043274C636845
:1000700083B033B128B1042907D8072003B0BDE805
:10008000F083082003B0BDE8F0834369002BF8D06B
:10009000054602A86B7C0026012B00F8016D0CBF01
:1000A0008946B14690460F4600F090F96378A078F3
:1000B00021785A1CD2B2904208BF324691421FD0DA
:1000C00003EB43036068DB00C11819D04FF0010E49
:1000D00000F803E00E4B4D60D3F804358B609DF8BB
:1000E0000700CF60C1F81090C1F81480627000F072
:1000F00095F9084B4FF480123046C3F80021C1E750
:100100009DF8070000F08AF90420BBE70C220020CC
:100110000010014000E100E0F0B51C4D6B6883B0B9
:1001200053B348B343693BB3044602A8002600F822
:10013000016D267400F04AF96B78A87829785A1C6A
:10014000D2B2904208BF3246914218D003EB43032B
:100150006968DB00CF1812D00220C8547C609DF87B
:1001600007006A7000F05AF9094B4FF480123046CC
:10017000C3F8002103B0F0BD082003B0F0BD9DF826
:10018000070000F04BF90420F7E700BF0C22002025
:1001900000E100E030B50478012C83B01FD010D30B
:1001A000022C0CD1C36826492648019301228DF800
:1001B000004000F05DFF244B68461B68984703B081
:1001C00030BD22482249FFF7FFFA28B302A80323D3
:1001D00000F8083D1C4B1B68984703B030BD4368CE
:1001E0001C4D19782846FFF7D7FAD8B9AA68EB68EA
:1001F0009A4206D002AB144A03F8080D126818465A
:100200009047A968EB68AA885B1A9A4212D2124BEF
:1002100001221A7003B030BD0D490A48012200F0D6
:1002200061FECCE7084B01908DF800401B686846E2
:100230009847E6E702490348012200F019FFBEE7AC
:10024000282200208C210020242200202C220020A3
:1002500020220020402200203C2200202DE9F047EF
:10026000314C88B022600C46002954D08146096880
:100270002E48A2889846FFF77FFA10B108B0BDE873
:10028000F0872B48A168A289FFF776FA0028F5D1FC
:10029000284C99F810A099F811C0D9F81460D9F831
:1002A0000C500FCC6F460FC794E80F001AF1000EE8
:1002B00087E80F0018BF4FF0010ED9F80070D9F889
:1002C0000430D9F808401C481C4A8DF81C80BCF149
:1002D000000F14BF4FF00E0C4FF0000C69468DF864
:1002E00014E08DF815C00696029503948DE88800F9
:1002F00000F00AFD0028C1D1D9F80030104A0133BE
:100300001070BBD09DF81D304BB10E490A48012238
:1003100000F0AEFEB2E7072008B0BDE8F08706485F
:1003200000F0D0FFF1E700BF24220020402200208F
:100330002C220020F04802008C21002095010200B0
:100340003C2200202822002070B50B4C01460B48AF
:100350002678FFF739FA05460EB9284670BD002306
:10036000074808492370012200F082FE0028F4D0DB
:10037000FFF7E0F9284670BD3C2200204022002013
:100380008C2100202822002010B501460C48FFF7E0
:1003900003FA044608B1204610BD0A4800F05CFE8E
:1003A0000028F8D106480849FFF70EFA0028F2D1D4
:1003B000044805490122BDE8104000F093BD00BF8C
:1003C0002C2200208C21002020220020F0B4EFF30A
:1003D000108472B60E4B9A68B2B90E4901259D6021
:1003E000D1F880700C4D2E463D401D60C1F88060F4
:1003F000D1F884505D604FF0FF33C1F88430027053
:1004000004B962B6F0BC704701230370F8E700BF7F
:100410002028002000E100E0FC06FFBC094B9A68A0
:1004200072B168B910B4EFF3108272B606491C6855
:100430000C605C684C60986002B962B65DF8044B71
:10044000704700BF2028002000E100E020B1034BEE
:100450005B6E03600020704703207047502200202D
:1004600070B5161E07DD0C468D1914F8010BFFF749
:100470008BFFAC42F9D1304670BD00BF10B50C46C1
:100480002046FFF761FF0528FAD0012010BD00BF0C
:100490004FF0A043044AD3F80435125CD34003F074
:1004A000010080F00100704714490200044B195C00
:1004B0004FF0A04201238B40C2F80C35704700BFBB
:1004C00014490200044B195C4FF0A04201238B40F9
:1004D000C2F80835704700BF144902004FF0A0432E
:1004E00010B44FF400104FF080744FF480214FF49B
:1004F0008002C3F80845C3F80805C3F80815C3F817
:1005000008255DF8044B70474FF0A04310B44FF43A
:1005100000104FF080744FF480214FF48002C3F834
:100520000C45C3F80C05C3F80C15C3F80C255DF891
:10053000044B7047074B4FF0A041185CD1F80435CD
:100540000122824022EA03001340C1F80805C1F8E5
:100550000C3570471449020030B44FF0A043032219
:100560004FF080754FF400144FF480204FF4800159
:10057000C3F86027C3F85427C3F84827C3F858279F
:10058000C3F80855C3F80845C3F80805C3F80815AB
:1005900030BC70474FF0A043044AD3F81035125CCA
:1005A000D34003F0010080F00100704710490200C1
:1005B0000D2809D00E2809D00F2809D0102814BF03
:1005C0004FF0FF3003207047002070470120704734
:1005D00002207047014B185C704700BF10490200B1
:1005E00010B51D4B1A6882B0F2B91C4B1A680AB9D3
:1005F00002B010BD00221A601B6801934FF08043C7
:100600000222174C0199C3F8082323690122A27022
:10061000002BEDD01A6822615B680120984723699E
:10062000002BF7D102B010BD00221A601B680093A6
:100630004FF0804301220A4C0099C3F80823A368B5
:100640006270002BD1D01A68A2605B6800209847C6
:10065000A368002BF7D1C8E7000100400401004067
:10066000B822002000B1704710B5064CA3683BB11A
:100670001A68A2605B6800209847A368002BF7D136
:1006800010BD00BFB822002010B582B002A8002320
:10069000144C00F8013DFFF799FE237893B9124AF4
:1006A0006360E3601068A36010F00100236114D060
:1006B00003F066F920B94FF080430122C3F81825F2
:1006C00001232370E3689DF8070001330122E360F2
:1006D000A270FFF7A3FE02B010BD072100F006F8DC
:1006E000E6E700BFB822002000E100E0002810B4D7
:1006F00018DB00F1604303F561434901C9B283F897
:100700000013C3B24009800000F1604000F5614071
:1007100003F01F0201239340C0F8803103605DF8AD
:10072000044B7047C3B2044A03F00F04490122444A
:10073000C9B21176E6E700BFFCEC00E030B51D4C15
:1007400094F8545083B015B1082003B030BD4FF079
:10075000FF33FF220620072123636363A363E36360
:1007600023646364A364E36423606360A360E36061
:1007700023616361A361E361236284F850306362A3
:10078000A36284F85230E36284F8533084F8512035
:10079000FFF7ACFF084B094A1D601B6801930198E5
:1007A0004FF000430121284684F85410C2F8043366
:1007B00003B030BDCC2200207C61004000600040CE
:1007C000034B93F85400003018BF0120704700BF5E
:1007D000CC220020F0B5634C251895F93030002B61
:1007E00001DB0820F0BD91F803E09446BEF1000F54
:1007F00056D02368013300F0AD80082600256B1C1D
:10080000584F54F82320013251D0AB1C9E4245D999
:1008100057F8232001324AD0EB1C9E423ED957F8AC
:100820002320013243D02B1D9E4237D957F8232075
:1008300001323CD06B1D9E4230D957F823700137EE
:1008400035D0AB1D9E4229D954F82320454F0132A3
:100850002DD0EB1D9E4221D957F82320013226D0FE
:1008600005F108039E4219D957F8232001321ED002
:1008700005F109039E4211D957F82320013216D001
:1008800005F10A039E4209D957F8237001370ED0AB
:100890000B35AE4202D9E36A013307D00420F0BD24
:1008A000236A01334ED00C260825A8E70B2326180F
:1008B000DDB244F823C086F83050BEF1000F02D1FB
:1008C000234483F848008B78ABB94A784FF0A046B0
:1008D00000F5E073920046F82320CB78ABB96AB2FA
:1008E000083A1444097894F8502042EA811284F8B6
:1008F00050201846F0BD830003F1A043D3F8002731
:1009000022F00202C3F80027E7E76BB29B0003F175
:10091000804303F5C0430A78D3F8101521F447311A
:1009200021F44071C3F810151204000202F44031A2
:10093000D3F8104500F4F8520A432243C3F81025B7
:100940000020F0BD082685F830603346C4F820C08A
:100950003546B5E7002385F83030C4F800C01D46A1
:10096000B1E700BFCC220020F0B42E4D2E1882B08B
:1009700096F8302053B2072B1CDD2B4493F84830F7
:100980009B09032B40D0012B0CBF4FF400314FF4D7
:100990004031800000F1A040D0F8002722F440321E
:1009A000C0F80027D0F800370B43C0F8003702B07A
:1009B000F0BC7047072AFAD8980000F1804000F593
:1009C000C04003F140029200D0F8104592B202F10B
:1009D0008042002744F0010402F5C042C0F81045EF
:1009E0000197019817600029E1D096F9302055F859
:1009F0002220002ADBD001220B4902FA03F3C1F8BE
:100A0000043302B0F0BC70474FF0A043D3F8103568
:100A1000C34013F0010F14BF4FF440314FF40031C5
:100A2000B7E700BFCC220020006000404FF0A04399
:100A3000D3F8103523FA00F000F00100704700BF32
:100A40002DE9F04786B00026A24B01961A68012ACC
:100A500000F03281A04B1A68012A00F01F819F4BE1
:100A60001A68012A00F00C819D4B1A68012A00F0D7
:100A7000F9809C4B1A68012A00F0E6809A4B1A68AC
:100A8000012A00F0D380994B1A68012A00F0C08037
:100A9000974B1A68012A00F0AD80964B1A68012A1C
:100AA00000F09B8016F0FF0F1AD0934F0125002411
:100AB000A30003F18043354203F5C0434FEA4505E7
:100AC0000BD0D3F8100557F82420D3F81015C0F335
:100AD0000420C1F3014102B190470134082CE7D151
:100AE000002E02DB06B0BDE8F087844D00224FF0F7
:100AF000FF33A5F1530702920393814C4FF0000896
:100B0000012614F8011FFF292BD0C9B221F0C00023
:100B100006AB4FEAD00E03EB0E0201F0070312F80A
:100B20000CCC06FA03F31CEA030F1AD007EB000CF7
:100B300089099CF930C057F82CC0BCF1000F3CD09B
:100B400003293CD04FEA800E0EF1A04E12F8149CFF
:100B5000DEF8002719EA030FC2F3014211D1032A7C
:100B600036D0AC42CDD1B8F1000FBBD04FF0A0438E
:100B7000019AD3F810359342B4D0029A01930392AC
:100B8000BBE7022AEDD1032904D0BCF1000FE8D065
:100B9000E047E6E74FF44039DEF8002722F4403220
:100BA000CEF80027DEF8003708F1010849EA030310
:100BB0005FFA88F8CEF80037E7E70329D1D10DF1C5
:100BC000080A1AF80E9049EA03090AF80E90B9E7E4
:100BD0000329DAD14FF40039DEE700221A601B68DE
:100BE00005934FF0A043059AD3F81035019346F0D2
:100BF000004657E7434AD2F8042312067FF54DAF6B
:100C000000221A601B680493049B46F0800644E7A8
:100C10003C4AD2F8042351067FF53AAF00221A600D
:100C20001B680493049B46F0400631E7354AD2F82E
:100C3000042390067FF527AF00221A601B680493F7
:100C4000049B46F020061EE72E4AD2F80423D40661
:100C50007FF514AF00221A601B680493049B46F0D2
:100C600010060BE7274AD2F8042315077FF501AFDA
:100C700000221A601B680493049B46F00806F8E6FD
:100C8000204AD2F8042357077FF5EEAE00221A60FF
:100C90001B680493049B46F00406E5E6194AD2F863
:100CA000042392077FF5DBAE00221A601B680493D1
:100CB000049B46F00206D2E61249D1F8041311F063
:100CC000010105D01E601B680493049B1646C1E613
:100CD0000E46BFE60061004004610040086100402C
:100CE0000C61004010610040146100401861004038
:100CF0001C6100407C610040CC2200201F230020AA
:100D00001B23002000600040F0B50479724E64019E
:100D1000331987B0DD7E183315B1082007B0F0BD58
:100D20004D7F1D710D686B1C0BD04FF0A047012348
:100D3000AB40C7F808350B6803F5E073032547F8A7
:100D400023504B685F1C06D003F5E0734FF0A045BD
:100D5000002745F82370037906EB43131B7F002B14
:100D60004DD003688D69C3F824550F7D4B7D056810
:100D70003B43C5F86C3503680F684D68C3F80C75C4
:100D8000C3F814550B7D012B00F09B8033190546E9
:100D90005A600B6950483351EAB12B79097F2A68B0
:100DA00000EB4310037F002B65D1C2F81C31D2F851
:100DB0001C712A680197019FC2F84431D2F844217E
:100DC0002B6846480092009AC3F80403286840F351
:100DD0000730FFF78BFC2B792A6806EB43131B7F48
:100DE000002B44D00823C2F80035344400200121F0
:100DF000E075A0752076A076E17607B0F0BD0568B5
:100E00008F69C5F8247591F814E04D7D07684EEAA6
:100E10000505C7F86C550568D1F800E04F68C5F8BE
:100E20001475C5F80CE50D7D012DAFD18D686F1CD3
:100E300005D005F5E0754FF0A04747F82530CB68A1
:100E40005D1C0DD001254FF0A04705FA03F3C7F84C
:100E50000835CB6803F5E073032547F82350CB68CA
:100E600005688F68C5F80835C5F810758EE7042346
:100E7000C2F80035B9E70023C2F81031D2F810717A
:100E80002A680597059FC2F82031D2F820712A6898
:100E90000497049FC2F82431D2F824712A6803977A
:100EA000039FC2F84431D2F844212B6802920C48C7
:100EB000029AC3F80403286840F30730FFF716FCD2
:100EC00089E78B685D1CBAD003F5E0734FF0A0454D
:100ED000002745F82370B2E7242300208000020099
:100EE000100302002DE9F04103795A4D5B01EC1823
:100EF00086B0247F44B101F06044B4F1005F03D0B8
:100F0000102006B0BDE8F0812B44DFF848E19F7D5A
:100F10001FB1112006B0BDE8F08199609A759F82DB
:100F2000067976010EEB06010B7F2BBB0268C2F837
:100F30001C31D2F81C41026805940124059F94607D
:100F40000468D1F808C0C4F81C31D4F81C310493EB
:100F5000049B8F8A8B8AD1F804E0BFB201331CF85E
:100F600007709BB28B82C4F81C75BEF1000F33D0A2
:100F7000002006B0BDE8F08103688A68C3F82071DC
:100F8000D3F8204103680294029CC3F85871D3F847
:100F90005841036801948C7D019FC3F84425C3F830
:100FA0004845036801229A604B68002BE0D1026833
:100FB00001E0002B4CD1D2F82011D2F85831003387
:100FC00018BF01230029F4D0002B0CBF00200F20F4
:100FD000AB1900229A7594E78F7D8B8A01F110027C
:100FE0009BB2BB4226D2046804E093889BB2B3F55F
:100FF000807F05D0D4F81C3101F11002002BF4D011
:1010000001F1100293889BB2B3F5807FE5D0C4F85C
:101010001CE1D4F81C310393039BB2F8048093883D
:101020001FFA88F801331CF808809BB29380C4F83B
:101030001C85D2E793889BB2B3F5807F08D0026805
:10104000D2F81C31002BFBD00123D3600020BFE776
:101050000F20BDE7242300200279044B03EB421349
:10106000987D003018BF0120704700BF2423002066
:10107000F0B50379924C5B01E51889B02E7F3EB143
:1010800001F06046B6F1005F52D0102009B0F0BD0B
:101090006F6827B105684FF40176C5F808632344EB
:1010A00003F11006F579DFF818E255BBF271D9604B
:1010B0001D765D7606797601A31918331F79002F06
:1010C00047D19B788BB985B90368C3F82451D3F80D
:1010D000242103680492049AC3F80851D3F8082124
:1010E00003680392012203991A60A5196B68002B0B
:1010F00064D003684FF401720020C3F8042309B0E0
:10110000F0BD1D7E85B1002F00F0AC8003790EEBA1
:10111000431E9EF81C30002B49D003684FF4047224
:10112000C3F804231120B1E719611A760125C1E73C
:101130006F68002FB3D00568DFF884E14FF40476C0
:101140002344C5F8086303F11006F579002DADD0EE
:10115000D7E703680026C3F81061D3F8107103685D
:101160000297029FC3F84461D3F844610368019673
:10117000019EC3F83415C3F8382585B903680122E8
:101180001A6005796D0163195B68002B6CD00368E8
:101190004FF404720020C3F8042309B0F0BD0268C4
:1011A000D2F8003243F02003C2F80032E9E70368C6
:1011B0004FF40172C3F80423112067E70268C2F8F4
:1011C0004431D2F844310593059B0168D1F82421BC
:1011D000D1F80871D1F84431003218BF0122003330
:1011E00018BF012347B9002B35D1002AEED0A3192F
:1011F0000022DA75032049E7002AF8D16BBBEA7DAB
:1012000002B3C1F80831D1F808310693069A6F7E0F
:10121000EA68D1F81815D1556A7E0132D2B26A76E1
:1012200005F1180305F110025978D7798F42CCD80F
:101230009B780021D171002B3CD003680122084625
:101240001A6023E7C1F80821D1F808310793079BFA
:10125000D1F81835E4E7002AC9D1A3190022DA75BC
:101260000F2013E7112011E7016801E0D3B9EAB9B3
:10127000D1F81061D1F84431D1F82421003318BFDE
:101280000123003218BF0122002EEFD0002A4FF0B8
:1012900000012C4414BF032008468B42E17518BF9F
:1012A0000F20F3E62C440F20E675EFE62C440320D4
:1012B000E375EBE60268012118465160E6E600BFDF
:1012C00024230020114A037902EB431318331979C0
:1012D000D9B99B78CBB910B4016883B0C1F8243177
:1012E000D1F8244101680194019CC1F80831D1F87A
:1012F0000831016800930123009C0B60017902EB27
:101300004112937603B05DF8044B7047242300200C
:10131000F0B59B4C237F8FB0002B75D1994AD2F842
:101320000413890548D4974BD3F80423520704D5F6
:10133000D3F80821002A40F0CA80924BD3F81C2130
:10134000C2B1A28AA07D8E4992B282424FF00002C1
:10135000C3F81C2180F0A980D3F81C210692069ABC
:10136000888A8A8A8D6880B20132285C92B28A8229
:10137000C3F81C05834BD3F84421DAB10022C3F82B
:101380004421D3F84411A27E04910499002A40F02C
:101390008980E27D7A4B6AB10022587ED968DA757D
:1013A00001228DF830000B918DF828200AA893E8CF
:1013B000060090470FB0F0BDD2F824110029B2D03A
:1013C000C2F82431D2F82411A37E07914FF40171A1
:1013D0000798C2F808130BB901235360694A022326
:1013E0008DF82830D2F88034C2F88034E07DE2688D
:1013F0000D9300238DF83000E375237621680B925E
:1014000063680AA8984798E75E4BD3F82421002A1E
:1014100040F09380D3F8101161B1C3F81021D3F8D4
:10142000101103910399D3F83C15E07DC9B28842AD
:1014300000F0AA80534BD3F84421B2B10022C3F884
:101440004421D3F84411E07D019101994C4960B1E8
:10145000D3F83C35C8688DF830300123CA750B903D
:101460008DF828300AA80AC99847464BD3F820219E
:10147000002A9FD00022C3F82021D3F82011A07D9C
:10148000009100993E49002894D0D3F84C058B6810
:101490008DF830008A750B938DF828200AC90AA8A8
:1014A000984787E701221A6073E7D3F81C31059348
:1014B000059B00283FF45EAF8B688DF830008A757D
:1014C0000B938DF828200AC90AA8984752E7E17DB6
:1014D0002B4A002970D00021C3F80811D3F8081155
:1014E00008910899D068517ED3F818354354537E3B
:1014F000D17D0133DBB25376627E214B8A427FF489
:101500001CAF1A7E002A6DD19B7E13B91D4B0122A0
:101510005A601C4AE06863684FF40171C2F808130E
:10152000627E8DF83020002501220B902168E57540
:101530008DF828200AA89847FFE60022C3F8242146
:10154000D3F82411029102218DF828100299D3F8C2
:101550008014C3F880140D91D3F83C15E368E2754C
:1015600022768DF830100B93216863680AA898479B
:10157000044BD3F84421002A3FF477AF5EE700BF65
:101580002423002000200040217EF1B1D3F8007216
:10159000E17527F02001E6682569C3F800120123F0
:1015A0008DF830008DF82830227621680B96E560A2
:1015B00063680AA898473DE7C3F80811D3F80821E3
:1015C0000992099AD3F8183596E7E268E175012384
:1015D0008DF830008DF828300B9294E80A000AA8A4
:1015E000984727E7DE685D7E1869DA7501210022D9
:1015F000D8601A765A768DF828100B968DF83050F0
:1016000093E806000AA8904797E600BF0220FEF77D
:1016100091BF00BF2DE9F0470D460646FEF7C8FF13
:10162000032804461DD8012D1FD00ED3022D1AD138
:101630001E4B00EB40041C44657895B11C4B1B68A5
:101640007BB12846BDE8F04718471A48FEF764FD0D
:101650001649194A04EB44030B44155D9B789D42DF
:10166000EBD0BDE8F087BDE8F087DFF840804700A9
:101670003B1808EB030218F8035053782BB92744A2
:1016800047440D4BBA781A55D7E70C4BDFF830902A
:101690001968084801EB810149004A46FEF7E4FC5D
:1016A0000028ECD189F80060E9E700BFC0230020E2
:1016B000782300207C23002068230020742300204E
:1016C000642300207F4B1B68DB0700D4704770B594
:1016D0007D4E7E4D33782C789BB9172C10D8DFE8DF
:1016E00004F0666B6B879CB0C2AA24152415823166
:1016F0003131313151565ECF0C0CFEF705FF2C70A5
:1017000070BD00233370FEF7E9FEE6E701231846BB
:101710003370FEF70FFF6E4B6E481968002201EB25
:101720008101BDE87040FEF79FBC0123184633706D
:10173000FEF700FF664B674819680022BDE870405D
:10174000FEF792BC6448FEF7E7FCD4F111040246B0
:1017500000F0A180002840F09E80012C0DD0C8250B
:101760005E4B5B495C48096805FB04F4A3FB04433A
:101770005B0901FB03F1FEF777FC0220BDE8704036
:10178000FEF794BEFEF7AAFE12232B7070BDFEF783
:10179000A5FE0020FEF78AFE13232B7070BDFEF716
:1017A0009DFE0120FEF782FE14232B7070BDFEF714
:1017B00095FE00232B7070BD0020FEF769FE002807
:1017C00079D00020FEF77EFE022C0CBF12232823C6
:1017D0003F4A2C7011683F4801FB03F10022BDE82D
:1017E0007040FEF741BCFEF78FFE0C232B7070BDDE
:1017F0000020FEF74DFE002856D00020FEF762FEC6
:101800000822334B3348196803232B7001FB02F184
:10181000BDE870400022FEF727BC0020FEF738FE2E
:1018200000283DD00020FEF74DFE2822284B2948F5
:1018300019680423E9E70020FEF738FE07232B7020
:1018400070BD0020FEF724FE90B30020FEF73AFEA4
:101850001F4B2048196805232B7049000022BDE862
:101860007040FEF701BC0020FEF764FE184B1948DB
:10187000196806232B700022BDE87040FEF7F4BB08
:10188000FEF72CFE0020FEF711FE0120FEF70EFEF3
:1018900015232B7070BD0220BDE87040FEF712BE0C
:1018A000FEF704FE0422C1E7FEF700FE0222A8E7CD
:1018B000FEF7FCFDCCE7FEF7F9FD022C0CBF02237E
:1018C000042385E76C230020702300209C23002044
:1018D0007423002044230020A02300201F85EB5107
:1018E00010B50078FEF764FE03280BD8064B00EB1A
:1018F00040001844407828B1044B1B6813B1BDE880
:101900001040184710BD00BFC023002078230020DE
:10191000FEF740BE70B5964B1A6812F0010202D174
:101920001646304670BD934D2B780446E3B9172C0C
:1019300000F21C81DFE814F0E600ED00ED00540039
:101940006B008200970046002C001D002C001D003B
:10195000A500AC00AC00AC00AC00AC00CB00D200E9
:10196000DC0039004E004E0000232B70FEF7B6FD60
:10197000DDE7012318462B70FEF7DCFD7E4B7F4828
:101980001968002201EB8101BDE87040FEF76CBBD5
:10199000012318462B70FEF7CDFD774B7748196869
:1019A0000022BDE87040FEF75FBBFEF797FD002008
:1019B000FEF77CFD0120FEF779FD714B15221A70B0
:1019C0000026AEE70020FEF771FD6D4B07221A706E
:1019D0000026A6E7FEF798FD694B00261C70A0E7DD
:1019E0000020FEF755FD002800F0BC800020FEF727
:1019F00069FD08226049624B0968604803241C7035
:101A000001FB02F1BDE870400022FEF72DBB002073
:101A1000FEF73EFD002800F09E800020FEF752FDFC
:101A200028225549564B0968544804241C7001FB70
:101A300002F1BDE870400022FEF716BB0020FEF761
:101A400027FD002800F08B800020FEF73BFD4A4A6E
:101A50004B4B1168494805241C7049000022BDE821
:101A60007040FEF701BB0020FEF764FD444B424A84
:101A70004248116806241C700022BDE87040FEF741
:101A8000F3BAFEF741FD3E4B0C221A70002648E7E0
:101A90003C48FEF741FBD4F11104064650D0002823
:101AA0004ED1012C0FD0C825374B33493548096832
:101AB00005FB04F4A3FB04235B09324601FB03F19D
:101AC000FEF7D2FA06460220FEF7F0FC29E7FEF701
:101AD00005FD2B4B12221A70002622E7FEF7FEFCB2
:101AE0000020FEF7E3FC264B13221A70002618E7AD
:101AF000FEF7F4FC0120FEF7D9FC214B14221A70EA
:101B000000260EE7FEF7EAFC1D4B00221A7016466F
:101B100007E70020FEF7BCFCB0B10020FEF7D2FCC6
:101B2000022C0CBF122328231349154A096814708C
:101B3000124801FB03F10022BDE87040FEF794BAA1
:101B40000220FEF7BFFCECE6FEF7B0FC022C0CBF57
:101B500002230423E8E7FEF7A9FC042261E7FEF76D
:101B6000A5FC74E7FEF7A2FC022243E70026D8E6B4
:101B70006C230020702300207423002044230020C5
:101B80009C230020A02300201F85EB51F0B5224D9F
:101B9000224E234B2860044610F0020083B03160CF
:101BA0001A6014D01F4B20484FF00E0E0F2710263E
:101BB00011254A0883F800E00421DF709E715D72F0
:101BC000FDF74AFDA0B1E3071DD403B0F0BDE20765
:101BD00019D41648164A0021FEF734FA0028F4D129
:101BE0001448154A012103B0BDE8F040FEF72ABAB7
:101BF000FDF78AFD0028E6D10146104A1048FEF79D
:101C000021FAE10703D50190FEF7A6FC0198002810
:101C1000DFD003B0F0BD00BF6C2300207423002090
:101C200078230020C0230020204902001C49020024
:101C3000C5160200404902000D160200E11802001C
:101C400018490200032801D907207047012A12D041
:101C5000012917D008D30229F6D10D4B00EB400023
:101C6000034400205A707047094B00EB40000344C6
:101C700000209A707047012901D00022E8E700F1A6
:101C80000E02D2B200EB400301490020CA54704753
:101C9000C023002008B5FEF79DFC800000F1A043A2
:101CA0000020D3F8002722F44032C3F80027D3F8ED
:101CB000002742F44032C3F8002708BD08B50120D0
:101CC000FFF7E8FF10B1062800D008BD0020FFF79D
:101CD000E1FF0028F9D0062808BF002008BD00BF9A
:101CE00010B50388102B08D0112B05D1274A136893
:101CF000013B13603BB110BD10BD244C216889B17C
:101D00000131216010BD012002460221FFF79AFF38
:101D100048B3072827D01E4B1B68002BEBD0BDE82B
:101D20001040184701200A22FFF78CFF48B107280E
:101D300007D0174B1B6803B1984721680131216018
:101D400010BD002002210722FFF77CFF08B1072801
:101D5000EFD1012002210422FFF774FF0028ECD00C
:101D60000728E6D1E9E7002002210722FFF76AFFF2
:101D700008B10728CFD1012000210A22FFF762FF16
:101D80000028B8D00728C6D110BD00BFD02300203E
:101D9000CC2300201B4B10B50C46186029B1002045
:101DA000FFF7B6FD30B102232370174B1B6853B108
:101DB000002010BD0120FFF7ABFD00BB124B2070CF
:101DC0001B68002BF4D1012002460221FFF73AFFE5
:101DD00010B1072800D010BD002002210722FFF714
:101DE00031FF08B10728F6D1012000210A22FFF7B0
:101DF00029FF0028DCD0072808BF0020EBE70B23D1
:101E00002370D2E7CC230020D023002076DF704758
:101E10007ADF70477CDF70477FDF7047A8DF70474D
:101E2000A9DF7047ADDF704767DF704732DF70476B
:101E30003EDF7047FDF77EBC10B5044684B001F06C
:101E40002BFA21464F4801F0DFFB2388023B542B3D
:101E500039D8DFE803F0833838383838383838383C
:101E6000383838388A2B384938383838383838389C
:101E700038383838383838383838383838383838E2
:101E800038383838383838383838383838383840CA
:101E900038383838383838383838383838383838C2
:101EA0003838383838587238387C40000020FFF70E
:101EB00031FD08B1FDF73EFC334B4FF6FF720220B7
:101EC0001A80FEF7FFFA204601F0B0F82046FFF72F
:101ED00007FF04B010BDA0881321FFF797FF60B97A
:101EE0000220FEF7EFFAEEE7274B00221888852143
:101EF0001346FFF791FF0028F2D0FDF71BFC0220EC
:101F0000FEF7E0FADFE7A279A37B002ADBD0043BEF
:101F1000022BD8D8022A0CBF022201224FF4C1732F
:101F2000A0888DF800206946ADF80430FFF776FFF1
:101F30000028C8D0FDF7FEFBC5E7134B0021188829
:101F40000A460B46FFF76CFF0028C9D0D5E7A088EA
:101F50001721FFF767FF0028B5D0EBE7A088002125
:101F6000FFF762FF0028AED0E4E70720FFF7D2FCBE
:101F700008B1FDF7DFFB044BA2881A800220FEF7B0
:101F800095FAA0E7B42600209821002038B54AB180
:101F90000C468D182078FEF7F7F90028FAD10134A5
:101FA000AC42F7D10D20FEF7EFF90028FAD10A2054
:101FB000FEF7EAF90028FAD138BD00BF08B503786A
:101FC00003B108BD054B3B211888FFF71FFF002810
:101FD000F7D0BDE80840FDF7ADBB00BF9821002059
:101FE000032805D108B50220FFF794FC08B908BD05
:101FF0007047BDE80840FDF79DBB00BF072808B546
:102000001CD00A280ED0042800D008BD144B132180
:102010001888FFF7FBFE30F00803F6D0BDE8084053
:10202000FDF788BB0020FFF775FCB0B9FFF746FE4F
:1020300080B9FFF7FBFE0028F0D108BD084B1A88D5
:102040004FF6FF739A42E0D101F034F830F0080304
:10205000DBD0E3E7FDF76EFBEBE7FDF76BFBE5E7B6
:102060009821002038B50378012B02D007D3022B2A
:1020700004D14068BDE83840FDF75CBB38BD0F4D6A
:102080000F4C28782044FEF75FF92A780132D2B24B
:1020900014442A7014F8013C0A2B01D0132A0BD9DE
:1020A0000848074901F0D6FB30F0080301D0FDF7DE
:1020B00041FB00232B7038BD38BD00BFD424002065
:1020C00050250020B426002070B50020A8B003469B
:1020D0000521724AFDF7D2FE08B1FDF72BFB704DCA
:1020E000704B0A930FCD19AC0FC495E803006E4EE8
:1020F0006E4A0C9684E8030007234FF4807419A8F5
:102100000AA90B940D94FEF7A9F808B1FDF712FB8C
:10211000032040F6CD41664AFFF738FD08B1FDF7D0
:1021200009FB002019A9FFF735FE08B1FDF702FBF6
:10213000604B614918680A9050220AA8002301F0F8
:1021400025FC08B1FDF7F6FA0020012119AA01F0DB
:102150008BFC08B1FDF7EEFA172319A8ADF874301F
:1021600001F09AFC08B1FDF7E5FA544801F05AFC79
:1021700008B1FDF7DFFA9DF828305148012262F3DB
:10218000030362F307138DF8283001F0B9FC4C49C2
:1021900082B20AA8FFF73EFE08B1FDF7CBFA002194
:1021A000082219A8FDF7CEF910243C2100224FF493
:1021B000C87319A8ADF86440ADF86610ADF8682092
:1021C000ADF86A30FFF724FE08B1FDF7B3FA00213D
:1021D00019A80422FDF7B6F93A4B3B48199319A9FF
:1021E00001F044FA08B1FDF7A5FA00210C463C22A3
:1021F0000AA8FDF7A7F90225062321463C2219A8C3
:102200008DF828508DF82B3001258DF82A40FDF7E8
:1022100099F92E4B1E932146202202A8ADF8745046
:102220004026FDF78FF9009402AA0AA819A9284BA5
:102230008DF80B500794069600F0F6FC08B1FDF7F8
:1022400079FA00211C2219A8FDF77CF94FF42036F9
:1022500000234FF4702503241E491F4A199319A81F
:10226000ADF872308DF874301A961B958DF8704069
:102270001E911F9200F0D6FF08B1FDF75BFA1748D8
:1022800001F026FC032000F08FFD18B9FFF7D0FD08
:102290000028FBD0FDF74EFAF8E700BFD824002055
:1022A00044490200B4250020D42300206520020008
:1022B000FD1F02005C49020064250020391E020057
:1022C000604902008D1F0200B426002094210020E6
:1022D000E11F0200BD1F0200351E02006C49020012
:1022E0006DDF704772DF704779DF70477DDF7047C1
:1022F00065DF7047F0B50488012C83B007D01488DF
:1023000004F1020E9E4505D90C2003B0F0BD072054
:1023100003B0F0BD0578012D04D145780235254480
:10232000AB42F1D3023B0F461C1B02A9A4B20546E7
:1023300021F8024D07EB0E001646FFF7D7FF0028E5
:10234000E3D12B78022B17D0012B11D02346082183
:10235000FE2BD9D83288581CB8543288013292B238
:102360003280B95432880132134433800020CCE7E4
:102370006B789C42EBD2E9E7BDF806309C42E5D38E
:102380000921E5E72DE9F04F85B083460E9D0088D1
:102390002C880194BDF83C9000284ED000278A4636
:1023A000164698463C4604E0BBF800300134A34290
:1023B00026DDDBF8043053F8240003900DF10B0107
:1023C00003A80022FFF794FF18BB9DF80B30B3421F
:1023D000EAD10FB32A8893194B4519DC424403A86C
:1023E0000DF10B010127FFF783FF90B92B889DF8B2
:1023F0000B2013442B80BBF800300134A342D8DCFF
:10240000DFB12B88019A013B9B1A9BB2FF2B12D99B
:102410000C2005B0BDE8F08F2B885A1C33440233E2
:102420004B4592B2F4DC2A8008F802A02A880132D7
:1024300092B22A80D2E708F80230002005B0BDE849
:10244000F08F00BF2DE9F04700231788138090F824
:102450002D3086B0144605460E46002B40F0C8804D
:10246000AA78002A40F0F080EA78002A2CD1696826
:1024700099B1DA1CBA42097822D80222F254238890
:1024800001339BB20A222380F254238801339BB28A
:102490002380F1542388013323802B89002B40F0C3
:1024A000F7802B8A002B40F00C812B8B002B40F007
:1024B00021812B6A002B5CD02288911DB94218D94A
:1024C0000C2006B0BDE8F087D91CB942F8D802212B
:1024D000F154238801339BB201212380F1542388D6
:1024E0000B449BB22380F25423880B449BB223807D
:1024F000BDE71988052940F2C9806FF4486801EBEF
:10250000080080B24FF27D3E704540F2BF8058888F
:10251000052840F2BB806FF4486C84441FFA8CFCA1
:10252000F44540F2B3804FF6FF7E714504D070450C
:1025300002D0814200F2AA800521B15422880132E2
:1025400092B212212280B1542288013292B22280AA
:102550001988B1543244090A51702288023292B269
:1025600022805B88B35432441B0A537023880233A1
:1025700023806B6A002B2BD0998820880A1D024487
:10258000BA429DD88A1CFE2A9AD803313154228837
:10259000013292B2FF212280B1542288013292B2DC
:1025A00022801988B1543244090A517020880230BF
:1025B00080B220809A885AB199680393002965D027
:1025C000304401F079FA039B22889B8813442380CE
:1025D00095F82C30002B40F0A680287800283FF496
:1025E00070AF2846314622463B46FFF783FE68E738
:1025F000082F7FF665AF04A8FFF772FE00287FF46E
:1026000060AF23880822F254238801339BB21B2237
:102610002380F2542088013080B22080062230448A
:102620000DF1110101F048FA23889DF810200633BE
:102630009BB212F0FE0218BF01222380F2542388BD
:1026400001339BB223800BE70433BB423FF638AF24
:1026500004A8FFF749FE00287FF433AF2388BDF8B4
:1026600010200321F154238801339BB219212380C8
:10267000F154238801339BB2F1182380100AF254DD
:102680004870238802339BB22380EDE6072018E7C9
:1026900005F1080802218DE8900040460A463346BD
:1026A000FFF770FE00287FF40CAF8DE890004046E5
:1026B000062110223346FFF765FE00287FF401AFA4
:1026C000EFE605F110088DE8900040460321022254
:1026D0003346FFF757FE00287FF4F3AE8DE89000F5
:1026E0004046072110223346FFF74CFE00287FF4B6
:1026F000E8AEDAE605F118088DE8900040461421AE
:1027000002223346FFF73EFE00287FF4DAAE8DE862
:1027100090004046152110223346FFF733FE002873
:102720007FF4CFAEC5E6D5F82880B8F1000FADD064
:10273000B8F804200232FE2A3FF6C2AE23884FF0DA
:1027400000094FF0160A0132F254238801339BB27C
:10275000238006F803A0238801339BB22380B8F8B6
:102760000020F2543344120A5A70238802339BB279
:102770002380B8F80410F0180A4661B1D8F8083080
:102780001946002B82D001F097F9B8F8043022885E
:1027900013449BB2238009F1010995F82C205FFABC
:1027A00089F94A4509EB49087FF617AFAA6A02EB97
:1027B0008808B8F804200232FE2AC4D980E600BF97
:1027C0002DE9F04794B01F230D46ADF80E300446B6
:1027D00000285AD0C278530753D590F82D300021E5
:1027E000ADF80C10002B6BD18378002B40F0AB8040
:1027F0001846032114AE5F1C0233304416FA87F7E3
:1028000016FA83F64FF0020E8BB2012100F840EC6D
:10281000ADF80C3007F8401C06F8402C6268B2B1E5
:10282000D91C1F29167828D814AF581C9A1C17FADF
:1028300080F03B4417FA82F24FF0020E0A2703F8A9
:1028400040ECADF80C1000F8407C02F8406C238995
:10285000002B40F08581238A002B40F09F81238B41
:10286000002B40F0B981236A002B00F0D880BDF81E
:102870000C20911D1F2940F28F800C2014B0BDE860
:10288000F087072014B0BDE8F087ADF80C00002DEC
:1028900000F00481EB78002BF3D128460CA90DF150
:1028A0000E02FFF7CFFD0028ECD19DF80E300CAAE8
:1028B00020469DF80C10FFF715FD14B0BDE8F08719
:1028C0000CAF3846FFF70CFD0028DBD1BDF80C300B
:1028D00014AA03F1010C12FA8CFC03F1020E13444A
:1028E0001FFA8EFE04AE4FF008094FF01B0803F8E4
:1028F000409C0DF13101062206EB0E000CF8408CD5
:10290000ADF80CE001F0D8F8BDF80C209DF83010BF
:10291000931D11F0FE019BB240F07C8114A803448A
:1029200003F8401CD31DA2789BB2ADF80C30002AEE
:1029300040F01181E278002A3FF470AFD91C1F29C2
:1029400018469AD856E70CAF3846FFF7CDFC00285A
:1029500098D1BDF80C30BDF83070E278991C0DF1BB
:10296000500E581C89B204AE0EEB03091EFA80F01B
:10297000043306EB010E4FF0030A4FF019089BB227
:102980004FEA172C09F840ACADF80C3000F8408C39
:1029900077548EF801C0CEE7188805287FF671AF0E
:1029A0006FF4486C00EB0C06B6B24FF27D37BE42B6
:1029B0007FF667AF5E88052E7FF663AF6FF4486ED3
:1029C000B6441FFA8EFEBE457FF65BAF4FF6FF772B
:1029D000B84204D0BE4202D0B0423FF652AF14A873
:1029E000561C10FA86F600EB020E901C80B21227DD
:1029F0004FF0050C0EF840CCADF80C0006F8407C0A
:102A00001F88ADF80C1004AE3118375404323F0A59
:102A10004F7092B25B88B35432441B0A5370676A9A
:102A20009FB3B888BDF80C30811C9A1C56181F2E15
:102A30003FF623AFFE293FF620AF14AE591C06EB3C
:102A4000030E16FA81F192B20330FF260EF8400C05
:102A5000ADF80C2001F8406C398804AEB018B154C0
:102A6000090A41700433BA8898B2ADF80C0062B11B
:102A7000B96800293FF405AF304401F01DF8BDF8F6
:102A80000C30BA881344ADF80C3094F82C3053B99C
:102A900004AE2378002B53D13446F8E62B46ADF82C
:102AA0000E502A4604E7A76A002F3FF4EAAEB98821
:102AB0000231FE293FF6E1AE9E46BDF80C304FF0E4
:102AC000000804AE4FF0160914AA581C02EB030CC0
:102AD00012FA80F09A1C92B201310CF8401CADF849
:102AE0000C2000F8409C3988B1543244090A5170D6
:102AF0000433B9889BB20A46F018ADF80C3079B1AE
:102B0000BB681946002B3FF4BCAE00F0D5FFBDF802
:102B10000C30BA8894F82CE013449BB2ADF80C301A
:102B200008F101085FFA88F8F04508EB4802B0D2D6
:102B3000A76A07EB8207B9880231FE29C4D99CE64F
:102B40002046314603AA1F23FFF7D4FB00287FF459
:102B500099AE34469BE604331F2B3FF68EAEF3E668
:102B600003AA04F1080704AE4FF01F0802218DE804
:102B70000401384633460A46FFF704FC00287FF478
:102B800081AE03AB8DE8080138463346062110229A
:102B9000FFF7F8FB00287FF475AE5CE603AA04F1AA
:102BA000100704AE4FF01F088DE804013846334685
:102BB00003210222FFF7E6FB00287FF463AE03AB9C
:102BC0008DE808013846334607211022FFF7DAFB6B
:102BD00000287FF457AE42E603AA04F1180704AEBA
:102BE0004FF01F088DE804013846334614210222B5
:102BF000FFF7C8FB00287FF445AE03AB8DE8080162
:102C00003846334615211022FFF7BCFB00287FF41D
:102C100039AE28E614A90B44012103F8401C81E6D3
:102C200073DF704774DF70472DE9F84FDDF828C077
:102C3000002800F09B80002A00F09880144605468A
:102C40001E460F460FCCDFF848E1DFF848B1DFF849
:102C50004891CBF80060AEE80F0094E80F00454EB5
:102C6000DFF838A1DFF83881DFF838B1C8F800C0E4
:102C70008EE80F00002401224FF6FF73214689F8E9
:102C800000203D48ABF8003007228AF80040FCF7EE
:102C900059FC21463C223046FCF754FC05F1100358
:102CA00093E80300AA78EB7895F800E0B270F3702F
:102CB00006F1100395F801C086F800E083E80300F0
:102CC00005F1080393E8030006F1080E05F1180367
:102CD0008EE8030093E803006A6A86F801C006F1F3
:102CE000180383E80300B2B1244B7362686A244A74
:102CF0009A60B0F804E001881980A3F804E0BEF1FE
:102D0000000F08D0013A23468168C95C02F8011F10
:102D100001337345F8D1AB6AB3B11A4BB362A86AF9
:102D2000194A9A6084889C800188198044B1013ACC
:102D300000238168C95C02F8011F0133A342F8D166
:102D400095F82C3086F82C302B6A33B10F4B336258
:102D50002A6A5188598012881A806B6803B173609F
:102D600039460448BDE8F84FFFF72ABD0E20BDE8FC
:102D7000F88F00BFD0260020442700201027002015
:102D8000202700209C270020742700206C2700208B
:102D90004C2700201C270020A8270020982700206F
:102DA00040270020962700202DE9F043934B1D7803
:102DB00085B025B90824204605B0BDE8F083904FC2
:102DC000064668463E70FDF741FB009C3CB18D4BCA
:102DD0000024012220461A7005B0BDE8F083DFF818
:102DE0004892894821460722FCF7ACFB99F801304C
:102DF0002BB33B78012B29D099F802200AB1022B82
:102E000024D0DFF8048298F8013083B998F80230B2
:102E10006BB998F8033053B998F804303BB998F877
:102E2000053023B998F80650003518BF0125013E3A
:102E3000032E00F2E080DFE806F0493A144399F8E7
:102E40000230002BDDD03B78012BD8D16F4B704A7C
:102E50001B68002B00F0B0800121082011709847FA
:102E6000CFE799F803305BB30322684B3A701B68D5
:102E70003BB199F8002022B1664A1278002A00F08E
:102E80009D80654B00221A70102268460021FCF7D5
:102E900059FB3B7800228DF800208DF80820042B88
:102EA00000F28580DFE803F07164533E1B0099F85F
:102EB0000230002BD5D0002DD3D002233B70E0E7A9
:102EC00099F80430002BF9D00422CEE799F80130AC
:102ED000002BECD0002DC4D001233B70D1E799F832
:102EE0000030D9F81810D9F81C20ADF80A10ADF848
:102EF0000C2033B1474B197819B9484B1B78002B7C
:102F000064D1474B04221A706846FFF789FE0028F7
:102F100050D13E4B1B68002B3FF44DAF404A107818
:102F2000984748E799F80030D9F81010D9F81420DC
:102F3000ADF80A10ADF80C202BB1364B197811B949
:102F4000364B1B782BBB364B03221A70DCE7344818
:102F5000D9F80C20D9F80830CDF8048002250121D9
:102F600005708DF80010ADF80C20ADF80A30CBE7F5
:102F70002B49CDF80480012200230A708DF800202F
:102F8000ADF80C30ADF80A30BEE7254B00221A70C0
:102F9000BFE7244B042502221846DD708DF8082077
:102FA000FFF70EFC18BB1E4A3B7805211170002B61
:102FB000AFD0A9E70446FEE6137022E7174816498A
:102FC0000270012207200A7098475DE7154B04251F
:102FD00002221846DD708DF80820FFF7F1FB30B9AA
:102FE0000F4A3B7806211170002B92D08CE73B787A
:102FF000002B8ED088E700233B7042E7A8270020F3
:103000009827002099270020442700201C27002013
:10301000932700203F270020942700200C27002022
:1030200070270020D02600204C27002010B50388F0
:10303000112B26D01B2B09D0102B00D010BDC37B29
:103040008288012BFAD1164B1A8010BD037A002B0F
:10305000F4D1144B14481B78013380FB0320DA179A
:10306000C2EB600000EB8000181AC0B2FFF79CFEB4
:103070000028E3D00D4B1B68002BDFD0BDE81040CB
:103080001847074A83881288094900209A42087025
:10309000D4D10120FFF788FE0028EBD1CEE700BF96
:1030A0009627002098270020676666664027002044
:1030B0003F270020F8B5FFF7B5FD0F4A0F4C104D24
:1030C000002306271046012619462370D7702E705C
:1030D000FFF776FB044600B1F8BD0A4B1878FFF7FE
:1030E00063FE034628B1084B1B6813B1984720467E
:1030F000F8BD1846F8BD00BFD02600200C270020E0
:103100003F270020982700204027002075DF7047C8
:1031100076DF70477ADF70477BDF7047184B18887F
:103120004FF6FF7398422AD010B5164A164C137802
:10313000217B0133DBB2994282B013700CD2237C25
:10314000002111708BB9636923B102A8002200F835
:10315000042D984702B010BD0C49FFF7D7FF002897
:10316000F8D0A369002BF4D1F4E73B21FFF7D0FF9F
:103170000028E8D0A369002BE5D09847E3E7704723
:10318000F4270020B4270020B8270020F8270020CB
:1031900070B51E4B1E4A5B881188994282B00FD8C9
:1031A00052889A420CD31B4B5B6923B102A80122BF
:1031B00000F8042D9847184C0023237002B070BD0E
:1031C000154C227862B1134B5B69002BF4D002A836
:1031D000002200F8042D98470023237002B070BD30
:1031E0000C4D0E4869680678AB680D48002E18BF74
:1031F0001946FCF739FF0028DED0AB69002BDBD085
:1032000098470023237002B070BD00BFAC27002098
:10321000F8270020B8270020A9270020B427002085
:10322000D4270020F8B505460FCD144C144F0FC419
:10323000064695E80700002384E807003B70B6B116
:103240003068104B716803C3A3F10800FFF762FFF9
:1032500090B90D4D0D4C0E480E4A00234FF6FF76E7
:103260002E8023701946BDE8F840FCF7EBBE0548F8
:10327000FFF752FF0028ECD0F8BD00BFB8270020B0
:10328000A9270020F8270020F4270020B4270020D9
:103290007C4902001D31020070B50388112B27D034
:1032A00012D9122B07D0502B47D1244CC288E38966
:1032B0009A4230D070BD083003C8214B83E8030028
:1032C000BDE87040FFF764BF102B35D11D491B4C82
:1032D0001B4B1D4DE48900F110028088088092E8A4
:1032E0000300002283E803002A70002CE8D070BDA0
:1032F0001449154B15484FF6FF7400220C801A70C4
:10330000FCF70AFF0028D5D00C4B9B69002BD1D0CD
:10331000BDE870401847038A022BCBD1123000F071
:1033200017F80028CCD10948FCF7F6FE0028C1D0D8
:10333000A369002BECD1BDE770BD70BDB82700209C
:10334000AC270020F4270020B4270020D427002039
:10335000007800F0010070470649074A074B9B1AA6
:1033600003DD043BC858D050FBDC00F013F8FCF739
:1033700075F80000304A020028210020AC2100200E
:10338000FEE7FEE7FEE7FEE7FEE7FEE7FEE7FEE715
:10339000FEE7FEE7F0B5854B1B78062B0ED0844A7E
:1033A000D2F8883043F47003C2F88830BFF34F8FEF
:1033B000BFF36F8F7F4B804A1A60F0BD7F4B1B6855
:1033C0001E07ECD17E4B1B6803F0F003302B60D05E
:1033D0007B4B1B6803F0F002302A4BD003F0E00374
:1033E000402B47D0764B1B6803F0F003302B00F0E6
:1033F000CD80734B1B6803F0F002302A28D003F015
:10340000E003402B24D06E4B1B6803F0F003302BFD
:1034100000F0AE806A4B1B6803F0F003302B00F025
:103420008E80674B1B6803F0F003502B35D0644B44
:103430001B6803F0F002302A03D003F0E003402BB6
:10344000ADD1604B604A1B6803F04F031360A6E7E1
:10345000564B1B784FF080420021062BC2F80C110E
:10346000C2F81011C2F8381599D1544B1B681807CF
:1034700095D1C8E7554B4D4A1B6812785449C3F3A0
:103480004233062A0B608AD14C4B1B681D0786D13C
:10349000A8E7504B504A1A609AE74FF080524F4BC2
:1034A000D2F80414C3F82015D2F80814C3F8241570
:1034B000D2F80C14C3F82815D2F81014C3F82C1540
:1034C000D2F81414C3F83015D2F81814C3F8341510
:1034D000D2F81C14C3F84015D2F82014C3F84415D0
:1034E000D2F82414C3F84815D2F82814C3F84C15A0
:1034F000D2F82C14C3F85015D2F83014C3F8541570
:10350000D2F83414C3F86015D2F83814C3F864152F
:10351000D2F83C14C3F86815D2F84014C3F86C15FF
:10352000D2F84424C3F87025204B1B78062B7FF477
:1035300036AF224B1B681B077FF431AF77E71B4B7D
:10354000274F1A78274D2848284B4FF0050E0126A3
:1035500000243F21062AC7F800E02E6004601960AD
:103560007FF41DAF154B1B681A077FF418AF58E79F
:103570000E4B1F4A1B780321062B11607FF40FAFFF
:103580000E4B1B6819077FF40AAF43E7194A074936
:10359000D368097823F080730629D360C4D1074B20
:1035A0001B681C077FF4FBAE23E700BFE00F00F0B1
:1035B00000ED00E09C2100200090D003E40F00F01B
:1035C000E80F00F058020010E40E00404402001022
:1035D0003C05004074C007400DF0ADBA00C000408B
:1035E00010560040885600401856004014560040BF
:1035F000A0050040F0ED00E0A0DF7047A2DF7047BB
:10360000A6DF704763DF704710B540B10B4631B19C
:103610000A88112A18D0502A02D0102A11D010BDC1
:10362000CA88018A914213D081889142F7D1846976
:10363000002CF4D003F112011A8A2346BDE8104091
:1036400018478B88838210BD4FF6FF73838210BDAD
:10365000198A0229E8D1044618461230FFF778FE8D
:1036600010B10123A37510BDA07510BD2DE9F04167
:10367000774B94B09A6806460D4618685968DB681F
:1036800004AC0FC48EB185B14FF6FF73B3822B68C3
:10369000B361002304A8B3753146FFF7B3FF48B107
:1036A0000446204614B0BDE8F0810E24204614B034
:1036B000BDE8F081324614A9012512F8023B21F839
:1036C000485D28468DF80A30FFF796FF044600282B
:1036D000ECD1214603226846FBF734FF9DF80070C9
:1036E0009DF801309DF802E065F3030765F30303DD
:1036F00065F3071365F3420E214665F307171C2295
:103700000DA88DF800708DF801308DF802E0FBF700
:1037100019FF9DF8343096F800E00E94032743F02B
:10372000100321463A4601A81094119413948DF881
:1037300034308DF80EE0CDF848D0ADF80C70FBF7C2
:1037400001FF9DF806309DF804C09DF805E065F383
:10375000420364F3C30364F3041365F3030C65F3DA
:10376000030EDBB22B4365F3071C65F3071E2146EE
:10377000142208A88DF806308DF804C08DF805E0F5
:10378000FBF7E0FE01AB0993ADF82A404FF01408B7
:1037900003AC0DA908AA7088089406F10C03ADF8D3
:1037A0002850ADF82C80FFF729FF044600287FF44D
:1037B0007DAF21461C220DA8FBF7C4FE9DF83430D6
:1037C00096F800E00E943A4643F00C032146022797
:1037D00001A810941194129413948DF834308DF83C
:1037E0000EE0ADF80C70FBF7ADFE9DF806309DF8CD
:1037F00004E09DF8057065F3420364F3C30364F3CA
:10380000041365F3030E65F30307DBB22B4365F383
:10381000071E2146424665F3071708A88DF80630B3
:103820008DF804E08DF80570FBF78CFE03AB708813
:1038300008930DA9331D08AA01AEADF82A400996D8
:10384000ADF82850ADF82C80FFF7D8FE04462DE7E0
:103850008049020070B586B0ADF8062048B1828A72
:103860004FF6FF739A4201D0837D2BB9082006B032
:1038700070BD0E2006B070BDBDF80630142B02D905
:10388000072006B070BD04460D4602A80021102294
:10389000FBF758FEA689A08A05950DF106020123C3
:1038A00002A9ADF8086004928DF80A30FFF7A8FE6F
:1038B000DDE700BF48DF704710DF704760DF70470B
:1038C00061DF7047FBF746BF2DE9F047DFF8A890AE
:1038D000264EDFF8A880264FD9F80040B4FA84F4C9
:1038E00082B0002564097DB93378DFF880A063B920
:1038F00001A8FFF7DFFF05280AD018B3FBF71AFF6E
:103900004CB101240025EFE7CCB102B0BDE8F0874F
:10391000002CFAD101259AF80030002BF5D102A92C
:103920003C68B8F8003021F8043D2046FFF7C8FF96
:10393000052816D080B1FBF7FDFE0024D3E7DFF8A1
:103940002CA0E8E70198FCF78DFE0A4B1B68002BC2
:10395000D6D001989847D3E72046D9F80030984749
:10396000EBE7002DCDD002B0BDE8F08700280020A5
:1039700004280020082800200C280020022800200D
:10398000014B1878704700BF0128002011B111F0D9
:10399000030F01D007207047F8B51B4F1B4E1C4D7D
:1039A0001C4C396032802B602368DB0708D5012569
:1039B000C4F880501849FFF77FFF30B12560F8BD8B
:1039C0001549FFF779FF00B1F8BD144B01221A70B9
:1039D000FCF75AFE0F4A92F816335B09991E052927
:1039E00009D8043B012B06D90D4B986830B94FF428
:1039F00080031360F8BD42F20200F8BD1A6842F479
:103A000080021A600020F8BD04280020022800204F
:103A10001028002000E100E0C53802000128002045
:103A200020280020034618B1024A00201360704786
:103A30000E2070470C28002008B5094B1B6833B1D5
:103A4000984700B908BDBDE80840FBF773BE054BB9
:103A50001B78002BF6D0BDE80840FFF735BF00BF4C
:103A6000102800200128002070B5144605460E4697
:103A7000104600211C22FBF765FD227D26720023E3
:103A800063F30002012165722275A361218005B1F3
:103A9000A172002070BD00BF00B583B0054B01933B
:103AA00002A9019B41F8083DFFF708FF019B03B005
:103AB0005DF804FB2821002010B5431E0A44914202
:103AC00004D011F8014B03F8014FF8E710BD0000D6
:103AD0000FB40A4B13B51C6824B1A36913B920466F
:103AE00000F056F805AB2046A168049A019300F057
:103AF00055F902B0BDE8104004B07047882100209D
:103B0000034613F8012B002AFBD1181A013870471D
:103B1000014900F0A7B800BF4D460200002310B5D0
:103B2000044603604360836081814366C281036110
:103B30004361836119465C300822FBF703FD054BA6
:103B40006362054BA362054BE362054B246223636A
:103B500010BD00BFF94202001B43020053430200A4
:103B60007743020070B568234D1E5D430E4605F194
:103B7000740100F095F8044640B1002180E842004D
:103B80000C30A06005F16802FBF7DCFC204670BD3C
:103B9000836910B5044633BB8364C3640365124B69
:103BA000124A1B688262984204BF0123836100F0BD
:103BB0001FF86060204600F01BF8A060204600F06F
:103BC00017F80421E06000226068FFF7A7FFA068F3
:103BD00009210122FFF7A2FFE06812210222FFF76C
:103BE0009DFF0123A36110BDE8480200113B0200C4
:103BF000F8B51B4B1E68B369074613B93046FFF78B
:103C0000C7FF4836B4687368013B04D4B4F90C505C
:103C100075B16834F8E733682BB938460421FFF7EB
:103C2000A1FF306008B13668ECE70C233B60F8BDBB
:103C30004FF6FF73E3810123A38165662560A560CC
:103C4000656025616561A56104F15C002946082273
:103C5000FBF778FC6563A563A564E5642046F8BDC1
:103C6000E84802002DE9F8438046894600F14804FF
:103C7000002694B1A5686768013F0CD4AB89012B7D
:103C800007D9B5F90E30013303D040462946C8475D
:103C900006436835F0E72468EBE73046BDE8F88373
:103CA00070B5CC1C24F0030408340C2C38BF0C2451
:103CB000002C064603DA0C233360002070BD8C42D2
:103CC000F9D3204A136810461946A1B10A68121B9D
:103CD0000ED40B2A03D90A608B188C501FE08B423C
:103CE0000DBF5A684A685A60026018BF0B4616E05A
:103CF0000B464968E9E7144D2B681BB9304600F0C4
:103D0000EBFA28603046214600F0E6FA421C0346F2
:103D1000D1D0C51C25F0030585420AD11C6003F1F2
:103D20000B001A1D20F00700821A0AD05142995048
:103D300070BD3046E91A00F0CFFA0130BBD02B46F7
:103D4000ECE770BD18280020142800209368013B80
:103D5000002B10B5936009DA9469A34202DBCBB261
:103D60000A2B03D1BDE8104000F00ABB1368581CB1
:103D700010601970C8B210BDF8B506460F4614465B
:103D8000D518AC4208D0304614F8011B3A46FFF76C
:103D9000DDFF431CF5D100E00020F8BD2DE9F04324
:103DA0009DB00D4690460393064618B183690BB942
:103DB000FFF7EEFE754B9D4201D1756808E0744B2C
:103DC0009D4201D1B56803E0724B9D4208BFF56882
:103DD000AB891C070AD52B6943B100230993202323
:103DE0008DF8293030238DF82A3041E030462946BD
:103DF00000F02CFB0028F0D04FF0FF30C2E0039A17
:103E0000111D12680391002ABBBF524243F0020306
:103E100007920792B8BF0493013423782E2B7BD0EE
:103E2000DFF8808121784046032200F099FC38B108
:103E3000049AC8EB000040238340134304930134E9
:103E4000217855488DF82810062204F1010800F069
:103E500087FC002800F08580504B002B78D1039B15
:103E6000073323F0070308330393099B3B4409936B
:103E700043461C4613F8012B1AB9B4EB08090ED0BF
:103E800002E0252AF5D1F8E73046294642464B465E
:103E9000FFF772FF013070D0099B4B4409932378E0
:103EA000002B6AD000234FF0FF3204930793059252
:103EB00006938DF853301A9304F101084446DFF855
:103EC000E89021784846052200F04AFC08F10108F4
:103ED000049B30B1C9EB00000122824013430493DC
:103EE000ECE7D80644BF20228DF85320190744BFC1
:103EF0002B228DF8532022782A2A80D00799234636
:103F00001C4601332278303A092A03D80A2000FBE4
:103F10000121F5E7079180E763782A2B0AD1039BFB
:103F20001A1D1B680392002BB8BF4FF0FF330234F9
:103F3000059375E7611C00220C4601312378303B64
:103F4000092B03D80A2000FB0232F5E7059267E748
:103F500003AB0093304604A92A46114BAFF300800F
:103F600007E003AB0093304604A92A460C4B00F04F
:103F700093F8421C07467FF478AFAB895B063FF5A8
:103F80003BAF09981DB0BDE8F08300BF9049020027
:103F9000B0490200D0490200FA49020000000000C6
:103FA000793D0200F6490200F04902002DE9F8438C
:103FB00091461F468A680B69DDF820809342B8BF9E
:103FC0001346C9F8003091F8432006460C4612B15A
:103FD0000133C9F800302368990642BFD9F8003090
:103FE0000233C9F80030256815F006051CD094F896
:103FF00043302268003318BF012392061FD5E11811
:104000005A1C302081F84300224494F8451082F86D
:104010004310023313E03046394604F119020123FC
:10402000C047013007D00135E368D9F800209B1A5A
:104030009D42F0DBDBE74FF0FF30BDE8F883304610
:10404000394604F14302C0470130F4D02268D9F860
:104050000050E36802F00602042A08BF5D1B2269D3
:10406000A3680CBF25EAE57500259342C4BF9B1ADF
:10407000ED184FF00009A9450ADA3046394604F137
:104080001A020123C0470130D5D009F10109F2E736
:104090000020BDE8F88300002DE9FF410C461746DB
:1040A000227E6E2A984606460A9B01F1430100F0E3
:1040B000AF8012D8632A23D00AD8002A00F0BC802F
:1040C000582A40F0CB8084F84520DFF804E257E01E
:1040D000642A1ED0692A1CD0C0E0732A00F0B08088
:1040E00009D86F2A2ED0702A40F0B880226842F09A
:1040F000200222603FE0752A24D0782A3BD0ADE030
:104100001A68111D1960136884F8423004F14205E1
:10411000A8E020681A6810F0800F02D0101D186007
:1041200008E010F0400F02F10400186002D0B2F96C
:10413000003000E01368002B3EDA2D225B4284F849
:10414000432039E020681A6810F0800F02D0101D5B
:10415000186007E010F0400F02F10400186001D071
:10416000138800E01368227EDFF864E16F2A0CBF39
:1041700008220A221CE07822DFF858E184F8452062
:104180002268186812F0800F00F104051D6003D149
:10419000550601D5038800E00368D00744BF42F00C
:1041A000200222601BB9226822F020022260102225
:1041B000002084F8430002E0DFF814E10A22656879
:1041C000A560002DA2BF206820F00400206003B984
:1041D00065B10D46B3FBF2F002FB10331EF803305D
:1041E00005F8013D03460028F4D100E00D46082AF9
:1041F0000BD12368DA0708D5236962689A42DEBFCB
:10420000302305F8013C05F1FF35491B21612EE003
:1042100025681A68606915F0800F03D0151D1D60B0
:10422000136808E015F0400F02F104051D601368E3
:1042300001D0188000E01860002323610D4616E0CD
:104240001A68111D1960156862682846002100F07F
:1042500087FA08B1401B6060636804E004F142051E
:1042600084F8422001232361002384F84330CDF8F1
:1042700000803046214603AA3B46FFF797FE0130F7
:1042800002D14FF0FF301FE0304639462A462369FD
:10429000C0470130F5D023689B0705D4E068039B35
:1042A0009842B8BF18460FE00025E368039A9B1AAE
:1042B0009D42F3DA3046394604F119020123C04722
:1042C0000130DED00135F0E704B0BDE8F08100BF79
:1042D000014A0200124A020038B5064C0023054686
:1042E0000846236000F0E4FA431C02D1236803B1BE
:1042F0002B6038BD2C28002010B50C46B1F90E10EB
:1043000000F082FA0028ABBF636DA3891B1823F469
:104310008053ACBF6365A38110BD2DE9F0411D46FC
:104320008B89DB0507460C46164605D5B1F90E10FC
:104330000022022300F0B4F9A389B4F90E1023F48B
:104340008053A381384632462B46BDE8F04100F049
:104350006BB810B50C46B1F90E1000F0A1F9431C72
:10436000A38915BF606523F4805343F48053A38170
:1043700018BFA38110BDB1F90E1000F0D3B8000032
:1043800070B50D461446064618B183690BB9FFF7A0
:10439000FFFB224B9C4201D1746808E0204B9C42F9
:1043A00001D1B46803E01F4B9C4208BFF468A369C5
:1043B000A360A3891A0709D523693BB12368206943
:1043C000181A63699842EDB20FDB08E030462146C7
:1043D00000F03CF80028F1D04FF0FF3070BD3046BF
:1043E000214600F033F90028F6D1A368013BA36011
:1043F00023685A1C22601D7063690130984204D002
:10440000A389DB0707D50A2D05D13046214600F0E8
:104410001DF90028E0D1284670BD00BF9049020078
:10442000B0490200D049020038B5074C05460020CB
:104430002060084611461A46FCF712F8431C02D1C8
:10444000236803B12B6038BD2C280020314B70B598
:104450001D6806460C4625B1AB6913B92846FFF71F
:1044600097FB2D4B9C4201D16C6808E02B4B9C4282
:1044700001D1AC6803E02A4B9C4208BFEC68A389D9
:104480009AB211071DD4D50602D40922326038E051
:10449000500712D5616B41B104F14403994202D037
:1044A000304600F06DF900236363A38923F02403F1
:1044B000A3810023636023692360A38943F0080379
:1044C000A38123694BB9A38903F42073B3F5007F5B
:1044D00003D03046214600F0F5F8A38913F001021D
:1044E00005D00022A26062695242A26103E09907EE
:1044F00058BF6269A26022694AB903F0800080B2A5
:1045000030B143F04003A3814FF0FF3070BD002075
:1045100070BD00BF8821002090490200B049020010
:10452000D049020038B5064C0023054608462360F2
:1045300000F09EF9431C02D1236803B12B6038BD03
:104540002C2800208A892DE9F041054610070C46E9
:1045500057D44B68002B02DC0B6C002B18DDE66A8D
:10456000B6B102F48052002392B22F682B600AB1D8
:10457000626D10E0216A28460123B047411C0246C3
:1045800009D12B683BB11D2B01D0162B47D12F60D1
:104590000020BDE8F081A3895B0705D56368D21AC6
:1045A000636B0BB1236CD21AE66A216A002328469A
:1045B000B047461CA38905D12A681AB11D2A01D02B
:1045C000162A19D100226260D9042269226004D51A
:1045D000421C01D12B6803B96065616B2F60002913
:1045E000D6D004F14403994202D0284600F0C8F81E
:1045F00000206063BDE8F08143F04003A381BDE883
:10460000F0810F69002FC3D093070E6808BF4B6974
:104610000F6018BF0023C7EB06088B6012E0A38968
:1046200043F04003A3814FF0FF30BDE8F0812846FE
:10463000216AA66A3A464346B0470028EFDD0744A0
:10464000C0EB0808B8F1000FF1DCA1E738B50B6941
:1046500005460C46DBB118B183690BB9FFF798FA30
:104660000C4B9C4201D16C6808E00B4B9C4201D181
:10467000AC6803E0094B9C4208BFEC68B4F90C300D
:104680002BB128462146BDE83840FFF75BBF00202C
:1046900038BD00BF90490200B0490200D049020075
:1046A00038B5074C054600202060084611461A46DA
:1046B00000F0F6F8431C02D1236803B12B6038BD2B
:1046C0002C280020F0B58B899D0791B006460C463A
:1046D00026D4B1F90E10002909DAA38913F0800F4E
:1046E0004FF0000514BF40274FF480670DE001AA8A
:1046F00000F09CF80028F0DB029D05F47045A5F55C
:1047000000514D424D414FF4806730463946FFF726
:10471000C7FA60B9A3899A051DD443F00203A381A7
:1047200004F14703236023610123636113E00B4B12
:10473000B362A389206043F08003A3812061676195
:104740004DB13046B4F90E1000F082F818B1A389CB
:1047500043F00103A38111B0F0BD00BF113B020083
:1047600010B5C9B202449042034606D01C788C4270
:1047700000F10100F7D1184610BD002010BD000067
:1047800030B500293DD051F8042C0B1F1D49002ADB
:10479000B8BF9B180A680C4612B95A600B6030BD4E
:1047A00093420DD219685818904201BF5A585218B6
:1047B0001A6042685A60236030BD994203D80A46A5
:1047C00051680029F9D1146815199D420AD11B6856
:1047D0002344D0188842136013D10868034413603F
:1047E0004B680DE002D90C23036030BD1C6818191A
:1047F000884204BF08684968596004BF00191860FE
:10480000536030BD1828002038B5074C05460020FD
:104810002060084611461A46FBF730FE431C02D1C1
:10482000236803B12B6038BD2C28002038B5074C15
:104830000023054608461146236000F021F8431C7A
:1048400002D1236803B12B6038BD00BF2C280020A3
:1048500038B5064C002305460846236000F018F8DA
:10486000431C02D1236803B12B6038BD2C280020E3
:10487000024B58221A604FF0FF3070472C2800205E
:10488000024B58221A604FF0FF3070472C2800204E
:10489000024B58221A600020704700BF2C280020CD
:1048A000024B58221A604FF0FF3070472C2800202E
:1048B000044A05491368002B08BF0B4618441060D2
:1048C000184670471C28002030280020F8B500BF8B
:1048D000F8BC08BC9E467047F8B500BFF8BC08BCE1
:1048E0009E4670474300000028210020D42100206C
:1048F000FFFFFFFFFFFFFFFFFFFFFFFFFFFFFFFFC8
:1049000000000000000000000000D60107010000C8
:104910000D0E0F10181512167C23002044230020C2
:104920000D000300151602000E000300151602000C
:104930000F000300151602001000030015160200F8
:10494000A02300201100000010000000140000004F
:10495000130000000000000000E0D7010200000783
:104960004E6F726469635F55415254000D0A5541A0
:104970005254205374617274210D0A00D427002010
:104980009ECADC240EE5A9E093F3A3B50000406EB7
:104990000000000000000000000000000000000017
:1049A0000000000000000000000000000000000007
:1049B00000000000000000000000000000000000F7
:1049C00000000000000000000000000000000000E7
:1049D00000000000000000000000000000000000D7
:1049E00000000000000000000000000000000000C7
:1049F000232D302B2000686C4C00656667454647C8
:104A0000003031323334353637383941424344454A
:104A100046003031323334353637383961626364B9
:084A20006566000000000000C3
:084A280034AAFF7F0100000029
:104A30000000000090490200B0490200D049020085
:104A40000000000000000000000000000000000066
:104A5000E448020000000000000000000000000028
:104A60000000000000000000000000000000000046
:104A70000000000000000000000000000000000036
:104A80000000000000000000000000000000000026
:104A9000282100200020004000000000010002004A
:104AA000FFFF00000090D00325F4010001F4010095
:044AB0000000000002
:04000003200033594D
:00000001FF
