:020000021000EC
:10F000000000012071320200993202009B3202009E
:10F010009D3202009F320200A13202000000000077
:10F02000000000000000000000000000A332020009
:10F03000A532020000000000A7320200A93202003F
:10F04000CD050200AB320200FD120200AB3202001D
:10F05000AB320200AB3202002D0A0200AB320200DA
:10F06000AB320200AB320200AB320200AB32020024
:10F07000AB320200AB320200AB320200AB32020014
:10F08000AB320200F5F70100AB320200AB320200F6
:10F09000B9F80100AB3202002D390200AB32020098
:10F0A000AB320200AB320200AB320200AB320200E4
:10F0B000AB320200AB320200000000000000000092
:10F0C000AB320200AB320200AB320200AB320200C4
:10F0D000AB320200AB320200AB3202000000000093
:10F0E0000000000000000000000000000000000020
:10F0F0000000000000000000000000000000000010
:10F1000000000000000000000000000000000000FF
:10F1100000000000000000000000000000000000EF
:10F4000010B5054C237833B9044B13B10448AFF35E
:10F4100000800123237010BD642000200000000044
:10F420009C490200084B10B51BB108480849AFF3CE
:10F4300000800848036803B910BD074B002BFBD0C0
:10F44000BDE81040184700BF000000009C490200C2
:10F45000682000206020002000000000154B002BD9
:10F4600008BF134B9D46A3F5803A00218B460F46FB
:10F470001348144A121A00F065F80F4B002B00D005
:10F4800098470E4B002B00D0984700200021040025
:10F490000D000D48002802D00C48AFF3008000F0AA
:10F4A0002BF82000290002F09BFE00F011F800BFAD
:10F4B0000000080000000120000000000000000023
:10F4C00064200020242A002000000000000000002A
:10F4D00008B5074B044613B10021AFF30080054B7C
:10F4E0001868836A03B19847204600F033F800BFDC
:10F4F00000000000CC47020070B50E4B0E4CE41A21
:10F50000A41000251E46A54204D056F82530984781
:10F510000135F8E705F04CF9084C094BE41AA41042
:10F5200000251E46A54204D056F8253098470135DF
:10F53000F8E770BD58200020582000205C200020F3
:10F540005820002002440346934202D003F8011BD6
:10F55000FAE77047FEE700BF2DE9F84F234B1A7812
:10F560008AB3DFF88CB0DFF88C80DFF88C90002451
:10F570004FF0010A03E00134E4B2944223D226B2F0
:10F58000D8F80050DBF8003015F836000AFA00F120
:10F59000194205EBC607EED0154A23EA01031360B2
:10F5A00001F03AFA15F83650D9F800300AFA05F1A8
:10F5B0000B4000FA05F18B4207D00C4B01341A784E
:10F5C000E4B29442DBD3BDE8F88F79787B68A1F18F
:10F5D0000101B1FA81F14909002BEED0091A284640
:10F5E000B1FA81F149099847E7E700BF8820002078
:10F5F000B020002084200020AC20002070B50646FA
:10F60000114800F089FD40B9104D01242B68B44029
:10F610001C4203D023EA04042C6070BD304601F084
:10F62000FBF90B4E326860B122432B680949326006
:10F630001C432C60044809680022BDE8704000F0BB
:10F6400013BD22EA0402F0E78C200020B020002045
:10F65000AC20002080200020F0B5042A85B0174699
:10F6600002D8072005B0F0BD0191054601F09EF8D3
:10F670000199002830D01C4CDFF888E01B481C4A58
:10F680001C4B256000264C1E07608EF8001016608B
:10F690001E60E4B2032709B918E01C4623B205EB4B
:10F6A000C30215F833009378134A8DF80D3003A97F
:10F6B0008DF80C708DF80E608DF80F6001F080F8F9
:10F6C000631E0028CED1DBB2002CE6D10B4A0C48D9
:10F6D000002100F0B7FCC5E7019101F025F8019980
:10F6E0000028C8D0BEE700BF842000208020002072
:10F6F000AC200020B0200020FDF5010059F50100EC
:10F70000D04702008820002070B5084D2B785BB1EF
:10F71000074E00243368012113F8340001F01AF970
:10F720002B780134A342F5D8002070BD882000203A
:10F730008420002000B585B000230390194644F2D0
:10F74000010001AAADF80430029300F003F805B0FF
:10F750005DF804FBBFF34F8F0549064BCA6802F4FE
:10F76000E0621343CB60BFF34F8F00BFFDE700BFE4
:10F7700000ED00E00400FA0559B10AB9092070470C
:10F78000531E1A40FAD1826001608380C260104625
:10F7900070470E20704700BF10B48468C2680346EB
:10F7A0008088121B904203D204205DF8044B7047FE
:10F7B000DA681C6802400020A154DA680132DA607D
:10F7C0005DF8044B704700BF03468068DA689042DA
:10F7D0000DD010B49A6898881C6802400020A25C82
:10F7E0000A709A6801329A605DF8044B70470520F0
:10F7F000704700BF2DE9F041274A284B0025C2F889
:10F800004051C2F84451C2F84851C2F84C51C2F8B4
:10F810000051C2F804511B681BB32149D2F80425DA
:10F820000C68204F141B1A6824F07F44A242A8469B
:10F8300009D8197CDE69A41A1544A1B91EB1334652
:10F840001A68A242F5D9184B18491A780B789A42CF
:10F850001BD01749174A41F823504FF48013C2F8C0
:10F860000031BDE8F081D3F814C083F810803A6805
:10F870009B69604619462AB190470028DED0FFF701
:10F8800059FFDBE71846E047D8E7531CDBB2022BF1
:10F8900008BF00230B70DCE700100140B8200020F7
:10F8A000B4200020BC200020C0200020C120002067
:10F8B000CC20002000E100E02DE9F04F894A8A4980
:10F8C000137809788948994287B0D0F8009000F001
:10F8D00016820133DBB2022B08BF00231370844A67
:10F8E00052F82370814A07EB090323F07F4313602A
:10F8F0004FF0010A7F4BCDF80C90D3F800807E4B7F
:10F9000019785B7801931E467B4B5C6893F802E0A4
:10F910007A4B93F800B0754B1B68029342464346FE
:10F920000020BC46B14217D001EB4105013114F86B
:10F930003570C9B2714508BF0021022F04EBC5051F
:10F9400077D0032FEED1002BECD0DA691874134670
:10F95000002AFAD1B142E7D1664902980A606349A8
:10F96000DDF80C9008606549674681F800B0BAF18F
:10F97000000F40F0A481B8EB030218BF01220592EA
:10F98000039355461E46594BDFF87491D3F800C0D7
:10F99000584BD3F800A0584BD3F804B09B7802938F
:10F9A000554B93F800E0554B1B78049300274FF01C
:10F9B000010835B36968A8682C46ED69CCEB0102F3
:10F9C00022F07F424A4556D8131823606760A7602B
:10F9D00084F81080E761002E7FD0316899425CD2B4
:10F9E000304603E0116899425ED21046C2695B1A44
:10F9F000002AF7D12360E2613346C4611E46002D20
:10FA0000D8D1019B9E457DD00EEB4E020BEBC2037D
:10FA10000EF1010E1BF8322002995C685FFA8EFE2F
:10FA20008E4508BF4FF0000E012A44D033461E46D3
:10FA3000E5E7D5F80490002B3FF474AF4B4500F098
:10FA400039811F4600E02F46FD69002D3FF46AAF63
:10FA5000A945F8D1B946A9452F4600F02B81FD698B
:10FA60003F68C9F81C50002D3FF45CAF2B683B4445
:10FA70002B60134656E7C1EB0C0121F07F41814218
:10FA800002D2431A2360A1E727606760A76084F869
:10FA90001080E7610EB331680023CB1A3360234630
:10FAA000E661A2461E46AAE7C91A11602360E26118
:10FAB0003346C461A2E7227C002AB7D1996861600D
:10FAC000D868A0601A69E2605B69A361049B002B9F
:10FAD0003FF474AF6560294670E72346A2461E4690
:10FAE0008DE700BFC0200020C1200020B4200020EE
:10FAF000CC200020B8200020C4200020C2200020FC
:10FB0000FEFF7F00854B83F800E0854BC3F800A023
:10FB1000039BB34200F0C480002E00F01181814CA1
:10FB2000814BD4F804051B68804DD6F800C02978B5
:10FB3000C21A22F07F420332002952D17C4FDFF8F3
:10FB4000F491DFF8F4814FF480314FF4003E012648
:10FB5000C4F84413C4F80413C7F880E1C7F800E000
:10FB600026602F21D9F8004000BF00BF00BF00BFB2
:10FB700000BF00BF00BF00BF44452FD000BF00BF83
:10FB800000BF00BF00BF00BF00BF00BF00BF00BF7D
:10FB900000BF00BF00BF00BF00BF00BF00BF00BF6D
:10FBA00000BF00BF00BF00BF00BF00BF00BF00BF5D
:10FBB00000BF00BF00BF00BF00BF00BF00BF00BF4D
:10FBC00000BF00BF00BF00BF00BF00BF00BF00BF3D
:10FBD00000BF00BF00BF00BF00BF00BF0139C3D1DD
:10FBE0002E7062452CBF9A1803EB0C024D4922F08F
:10FBF0007F43C1F84035D1F80425121A1B1A22F0B0
:10FC00007F4223F07F4303329A424DD9D1F8043525
:10FC1000484AC1F84035126847492F2300BF00BF4A
:10FC200000BF00BF00BF00BF00BF00BF8A422FD08F
:10FC300000BF00BF00BF00BF00BF00BF00BF00BFCC
:10FC400000BF00BF00BF00BF00BF00BF00BF00BFBC
:10FC500000BF00BF00BF00BF00BF00BF00BF00BFAC
:10FC600000BF00BF00BF00BF00BF00BF00BF00BF9C
:10FC700000BF00BF00BF00BF00BF00BF00BF00BF8C
:10FC800000BF00BF00BF00BF00BF00BF00BF00BF7C
:10FC9000013BC3D1264B4FF40032C3F8002103E0EF
:10FCA000059B002B7FF438AF244A0023137007B064
:10FCB000BDE8F08FDA6942B313464F46CFE6002520
:10FCC00028462C46A3B11968B9421BD8DA681C60D3
:10FCD0007F1A0844D9693AB100EB090626F07F463D
:10FCE000DD619A605E601D460B460A46002BEAD134
:10FCF0000B49039301230A600593039E43E6002703
:10FD0000BA46F7E5C91B1960F2E7064B01259D606D
:10FD10004F4613460292AB46A1E600BFC420002026
:10FD2000B820002000100140B4200020D420002082
:10FD300000E100E0542000200024F400C220002054
:10FD4000484A494B494D4A484FF480314FF40037F7
:10FD50000124C3F88070C2F848132F23C2F8081397
:10FD6000546029681D4600BF00BF00BF00BF00BF30
:10FD700000BF00BF00BF81422FD000BF00BF00BF47
:10FD800000BF00BF00BF00BF00BF00BF00BF00BF7B
:10FD900000BF00BF00BF00BF00BF00BF00BF00BF6B
:10FDA00000BF00BF00BF00BF00BF00BF00BF00BF5B
:10FDB00000BF00BF00BF00BF00BF00BF00BF00BF4B
:10FDC00000BF00BF00BF00BF00BF00BF00BF00BF3B
:10FDD00000BF00BF00BF00BF00BF013DC3D19460A2
:10FDE000244A166000BF00BF00BF00BF00BF00BFB5
:10FDF00000BF00BF81422FD000BF00BF00BF00BFC7
:10FE000000BF00BF00BF00BF00BF00BF00BF00BFFA
:10FE100000BF00BF00BF00BF00BF00BF00BF00BFEA
:10FE200000BF00BF00BF00BF00BF00BF00BF00BFDA
:10FE300000BF00BF00BF00BF00BF00BF00BF00BFCA
:10FE400000BF00BF00BF00BF00BF00BF00BF00BFBA
:10FE500000BF00BF00BF00BF013BC3D1064B1E70F7
:10FE600022E700BF0010014000E100E05420002024
:10FE70000024F400B4200020D42000202DE9F04F0D
:10FE800012F0030402D00720BDE8F08F002AFAD058
:10FE9000614D624EDFF88CC1DFF88C814FF4803EFB
:10FEA0004FF400374FF00109C6F88070C5F848E3F9
:10FEB0002F27C5F808E3C5F80490DCF800C0BE465B
:10FEC00000BF00BF00BF00BF00BF00BF00BF00BF3A
:10FED000C4452FD000BF00BF00BF00BF00BF00BFA0
:10FEE00000BF00BF00BF00BF00BF00BF00BF00BF1A
:10FEF00000BF00BF00BF00BF00BF00BF00BF00BF0A
:10FF000000BF00BF00BF00BF00BF00BF00BF00BFF9
:10FF100000BF00BF00BF00BF00BF00BF00BF00BFE9
:10FF200000BF00BF00BF00BF00BF00BF00BF00BFD9
:10FF300000BF00BFBEF1010EC2D1DFF8F0E0C5F88E
:10FF40000890CEF8004000BF00BF00BF00BF00BF58
:10FF500000BF00BF00BFC4452FD000BF00BF00BF1F
:10FF600000BF00BF00BF00BF00BF00BF00BF00BF99
:10FF700000BF00BF00BF00BF00BF00BF00BF00BF89
:10FF800000BF00BF00BF00BF00BF00BF00BF00BF79
:10FF900000BF00BF00BF00BF00BF00BF00BF00BF69
:10FFA00000BF00BF00BF00BF00BF00BF00BF00BF59
:10FFB00000BF00BF00BF00BF00BF013FC3D1DFF8DB
:10FFC00070C0DFF870B0164FDFF86CA0DFF86C90EF
:10FFD000DFF86C808CF80040CBF800304FF4801CC8
:10FFE000E023B9703C707C70CAF8004089F800408A
:10FFF00088F80040C6F880C186F81433C6F800C0FF
:020000022000DC
:10000000C5F8080586F81133D5F80435CEF8003068
:100010007A602046BDE8F08F0010014000E100E06A
:10002000C4200020542000200024F400B42000202C
:10003000D4200020BC200020B8200020C0200020B8
:10004000C1200020074B5B6823B12AB120B10368AF
:10005000187C18B1082070470720704759745A61FE
:10006000704700BFC42000202DE9F043274C63688F
:1000700083B033B128B1042907D8072003B0BDE805
:10008000F083082003B0BDE8F0834369002BF8D06B
:10009000054602A86B7C0026012B00F8016D0CBF01
:1000A0008946B14690460F4600F090F96378A078F3
:1000B00021785A1CD2B2904208BF324691421FD0DA
:1000C00003EB43036068DB00C11819D04FF0010E49
:1000D00000F803E00E4B4D60D3F804358B609DF8BB
:1000E0000700CF60C1F81090C1F81480627000F072
:1000F00095F9084B4FF480123046C3F80021C1E750
:100100009DF8070000F08AF90420BBE7C420002016
:100110000010014000E100E0F0B51C4D6B6883B0B9
:1001200053B348B343693BB3044602A8002600F822
:10013000016D267400F04AF96B78A87829785A1C6A
:10014000D2B2904208BF3246914218D003EB43032B
:100150006968DB00CF1812D00220C8547C609DF87B
:1001600007006A7000F05AF9094B4FF480123046CC
:10017000C3F8002103B0F0BD082003B0F0BD9DF826
:10018000070000F04BF90420F7E700BFC42000206F
:1001900000E100E030B50478012C83B01FD010D30B
:1001A000022C0CD1C36826492648019301228DF800
:1001B000004000F053FF244B68461B68984703B08B
:1001C00030BD22482249FFF7FFFA28B302A80323D3
:1001D00000F8083D1C4B1B68984703B030BD4368CE
:1001E0001C4D19782846FFF7D7FAD8B9AA68EB68EA
:1001F0009A4206D002AB144A03F8080D126818465A
:100200009047A968EB68AA885B1A9A4212D2124BEF
:1002100001221A7003B030BD0D490A48012200F0D6
:1002200057FECCE7084B01908DF800401B686846EC
:100230009847E6E702490348012200F00FFFBEE7B6
:10024000E02000204C200020DC200020E4200020C2
:10025000D8200020F8200020F42000202DE9F047CD
:10026000314C88B022600C46002954D08146096880
:100270002E48A2889846FFF77FFA10B108B0BDE873
:10028000F0872B48A168A289FFF776FA0028F5D1FC
:10029000284C99F810A099F811C0D9F81460D9F831
:1002A0000C500FCC6F460FC794E80F001AF1000EE8
:1002B00087E80F0018BF4FF0010ED9F80070D9F889
:1002C0000430D9F808401C481C4A8DF81C80BCF149
:1002D000000F14BF4FF00E0C4FF0000C69468DF864
:1002E00014E08DF815C00696029503948DE88800F9
:1002F00000F000FD0028C1D1D9F80030104A0133C8
:100300001070BBD09DF81D304BB10E490A48012238
:1003100000F0A4FEB2E7072008B0BDE8F087064869
:1003200000F0C6FFF1E700BFDC200020F82000202D
:10033000E4200020D44702004C2000209501020058
:10034000F4200020E020002070B50B4C01460B4843
:100350002678FFF739FA05460EB9284670BD002306
:10036000074808492370012200F078FE0028F4D0E5
:10037000FFF7E0F9284670BDF4200020F8200020A7
:100380004C200020E020002010B501460C48FFF76B
:1003900003FA044608B1204610BD0A4800F052FE98
:1003A0000028F8D106480849FFF70EFA0028F2D1D4
:1003B000044805490122BDE8104000F089BD00BF96
:1003C000E42000204C200020D8200020F0B4EFF3DF
:1003D000108472B60E4B9A68B2B90E4901259D6021
:1003E000D1F880700C4D2E463D401D60C1F88060F4
:1003F000D1F884505D604FF0FF33C1F88430027053
:1004000004B962B6F0BC704701230370F8E700BF7F
:10041000142A002000E100E0FC06FFBC094B9A68AA
:1004200072B168B910B4EFF3108272B606491C6855
:100430000C605C684C60986002B962B65DF8044B71
:10044000704700BF142A002000E100E070B5161EBE
:1004500007DD0C468D1914F8010BFFF795FFAC4230
:10046000F9D1304670BD00BF10B50C462046FFF7ED
:100470006BFF0528FAD0012010BD00BF4FF0A0434C
:10048000044AD3F80435125CD34003F0010080F035
:1004900001007047F8470200044B195C4FF0A0427E
:1004A00001238B40C2F80C35704700BFF8470200AB
:1004B000044B195C4FF0A04201238B40C2F8083571
:1004C000704700BFF84702004FF0A04310B44FF44C
:1004D00000104FF080744FF480214FF48002C3F875
:1004E0000845C3F80805C3F80815C3F808255DF8E2
:1004F000044B70474FF0A04310B44FF400104FF07E
:1005000080744FF480214FF48002C3F80C45C3F887
:100510000C05C3F80C15C3F80C255DF8044B7047A7
:10052000074B4FF0A041185CD1F8043501228240FE
:1005300022EA03001340C1F80805C1F80C357047E2
:10054000F847020030B44FF0A04303224FF080750B
:100550004FF400144FF480204FF48001C3F860275B
:10056000C3F85427C3F84827C3F85827C3F80855D9
:10057000C3F80845C3F80805C3F8081530BC704730
:100580004FF0A043044AD3F81035125CD34003F077
:10059000010080F001007047F44702000D2809D0E7
:1005A0000E2809D00F2809D0102814BF4FF0FF30B3
:1005B00003207047002070470120704702207047D9
:1005C000014B185C704700BFF447020010B51D4B8B
:1005D0001A6882B0F2B91C4B1A680AB902B010BD91
:1005E00000221A601B6801934FF080430222174CCF
:1005F0000199C3F8082323690122A270002BEDD0D2
:100600001A6822615B68012098472369002BF7D1A3
:1006100002B010BD00221A601B6800934FF08043A7
:1006200001220A4C0099C3F80823A3686270002BCA
:10063000D1D01A68A2605B6800209847A368002B9D
:10064000F7D1C8E700010040040100400821002064
:1006500000B1704710B5064CA3683BB11A68A260A0
:100660005B6800209847A368002BF7D110BD00BF3E
:100670000821002010B582B002A80023144C00F815
:10068000013DFFF7A3FE237893B9124A6360E3604C
:100690001068A36010F00100236114D003F0EAF8A1
:1006A00020B94FF080430122C3F81825012323709D
:1006B000E3689DF8070001330122E360A270FFF7B1
:1006C000ADFE02B010BD072100F006F8E6E700BF5E
:1006D0000821002000E100E0002810B418DB00F140
:1006E000604303F561434901C9B283F80013C3B203
:1006F0004009800000F1604000F5614003F01F02F6
:1007000001239340C0F8803103605DF8044B7047CB
:10071000C3B2044A03F00F0449012244C9B211765E
:10072000E6E700BFFCEC00E030B51D4C94F85450F7
:1007300083B015B1082003B030BD4FF0FF33FF2266
:100740000620072123636363A363E3632364636475
:10075000A364E36423606360A360E3602361636177
:10076000A361E361236284F850306362A36284F87A
:100770005230E36284F8533084F85120FFF7ACFF25
:10078000084B094A1D601B68019301984FF0004314
:100790000121284684F85410C2F8043303B030BD58
:1007A0001C2100207C61004000600040034B93F856
:1007B0005400003018BF0120704700BF1C210020EA
:1007C000F0B5634C251895F93030002B01DB08207B
:1007D000F0BD91F803E09446BEF1000F56D02368B7
:1007E000013300F0AD80082600256B1C584F54F8EB
:1007F0002320013251D0AB1C9E4245D957F823200B
:1008000001324AD0EB1C9E423ED957F823200132D8
:1008100043D02B1D9E4237D957F8232001323CD0BC
:100820006B1D9E4230D957F82370013735D0AB1D70
:100830009E4229D954F82320454F01322DD0EB1D7B
:100840009E4221D957F82320013226D005F1080312
:100850009E4219D957F8232001321ED005F1090311
:100860009E4211D957F82320013216D005F10A0310
:100870009E4209D957F8237001370ED00B35AE428E
:1008800002D9E36A013307D00420F0BD236A0133A3
:100890004ED00C260825A8E70B232618DDB244F815
:1008A00023C086F83050BEF1000F02D1234483F8F4
:1008B00048008B78ABB94A784FF0A04600F5E0735A
:1008C000920046F82320CB78ABB96AB2083A1444B8
:1008D000097894F8502042EA811284F85020184692
:1008E000F0BD830003F1A043D3F8002722F00202F9
:1008F000C3F80027E7E76BB29B0003F1804303F5E1
:10090000C0430A78D3F8101521F4473121F440711F
:10091000C3F810151204000202F44031D3F8104558
:1009200000F4F8520A432243C3F810250020F0BD1A
:10093000082685F830603346C4F820C03546B5E750
:10094000002385F83030C4F800C01D46B1E700BF71
:100950001C210020F0B42E4D2E1882B096F83020C5
:1009600053B2072B1CDD2B4493F848309B09032B13
:1009700040D0012B0CBF4FF400314FF440318000C8
:1009800000F1A040D0F8002722F44032C0F8002740
:10099000D0F800370B43C0F8003702B0F0BC704706
:1009A000072AFAD8980000F1804000F5C04003F112
:1009B00040029200D0F8104592B202F18042002726
:1009C00044F0010402F5C042C0F8104501970198B7
:1009D00017600029E1D096F9302055F82220002A2E
:1009E000DBD001220B4902FA03F3C1F8043302B051
:1009F000F0BC70474FF0A043D3F81035C34013F05C
:100A0000010F14BF4FF440314FF40031B7E700BF7E
:100A10001C210020006000404FF0A043D3F81035A7
:100A200023FA00F000F00100704700BF2DE9F04705
:100A300086B00026A24B01961A68012A00F0328186
:100A4000A04B1A68012A00F01F819F4B1A68012AE7
:100A500000F00C819D4B1A68012A00F0F9809C4B34
:100A60001A68012A00F0E6809A4B1A68012A00F001
:100A7000D380994B1A68012A00F0C080974B1A68FE
:100A8000012A00F0AD80964B1A68012A00F09B8085
:100A900016F0FF0F1AD0934F01250024A30003F195
:100AA0008043354203F5C0434FEA45050BD0D3F8E8
:100AB000100557F82420D3F81015C0F30420C1F313
:100AC000014102B190470134082CE7D1002E02DB2E
:100AD00006B0BDE8F087844D00224FF0FF33A5F14A
:100AE000530702920393814C4FF00008012614F83B
:100AF000011FFF292BD0C9B221F0C00006AB4FEA7D
:100B0000D00E03EB0E0201F0070312F80CCC06FA2C
:100B100003F31CEA030F1AD007EB000C89099CF9B8
:100B200030C057F82CC0BCF1000F3CD003293CD09A
:100B30004FEA800E0EF1A04E12F8149CDEF800274A
:100B400019EA030FC2F3014211D1032A36D0AC4295
:100B5000CDD1B8F1000FBBD04FF0A043019AD3F82C
:100B600010359342B4D0029A01930392BBE7022A54
:100B7000EDD1032904D0BCF1000FE8D0E047E6E74F
:100B80004FF44039DEF8002722F44032CEF8002737
:100B9000DEF8003708F1010849EA03035FFA88F834
:100BA000CEF80037E7E70329D1D10DF1080A1AF88A
:100BB0000E9049EA03090AF80E90B9E70329DAD141
:100BC0004FF40039DEE700221A601B6805934FF0EE
:100BD000A043059AD3F81035019346F0004657E735
:100BE000434AD2F8042312067FF54DAF00221A6063
:100BF0001B680493049B46F0800644E73C4AD2F805
:100C0000042351067FF53AAF00221A601B68049353
:100C1000049B46F0400631E7354AD2F8042390069B
:100C20007FF527AF00221A601B680493049B46F0EF
:100C300020061EE72E4AD2F80423D4067FF514AF0F
:100C400000221A601B680493049B46F010060BE711
:100C5000274AD2F8042315077FF501AF00221A6056
:100C60001B680493049B46F00806F8E6204AD2F875
:100C7000042357077FF5EEAE00221A601B68049329
:100C8000049B46F00406E5E6194AD2F804239207CD
:100C90007FF5DBAE00221A601B680493049B46F0CC
:100CA0000206D2E61249D1F8041311F0010105D071
:100CB0001E601B680493049B1646C1E60E46BFE601
:100CC0000061004004610040086100400C61004088
:100CD0001061004014610040186100401C61004038
:100CE0007C6100401C2100206F2100206B2100202E
:100CF00000600040F0B50479724E6401331987B08A
:100D0000DD7E183315B1082007B0F0BD4D7F1D7191
:100D10000D686B1C0BD04FF0A0470123AB40C7F808
:100D200008350B6803F5E073032547F823504B683B
:100D30005F1C06D003F5E0734FF0A045002745F88F
:100D40002370037906EB43131B7F002B4DD0036800
:100D50008D69C3F824550F7D4B7D05683B43C5F86D
:100D60006C3503680F684D68C3F80C75C3F81455EB
:100D70000B7D012B00F09B80331905465A600B69EF
:100D800050483351EAB12B79097F2A6800EB4310B0
:100D9000037F002B65D1C2F81C31D2F81C712A6880
:100DA0000197019FC2F84431D2F844212B6846488C
:100DB0000092009AC3F80403286840F30730FFF755
:100DC0008BFC2B792A6806EB43131B7F002B44D046
:100DD0000823C2F80035344400200121E075A075D5
:100DE0002076A076E17607B0F0BD05688F69C5F87A
:100DF000247591F814E04D7D07684EEA0505C7F8A3
:100E00006C550568D1F800E04F68C5F81475C5F851
:100E10000CE50D7D012DAFD18D686F1C05D005F55A
:100E2000E0754FF0A04747F82530CB685D1C0DD02A
:100E300001254FF0A04705FA03F3C7F80835CB6842
:100E400003F5E073032547F82350CB6805688F68E6
:100E5000C5F80835C5F810758EE70423C2F80035CB
:100E6000B9E70023C2F81031D2F810712A6805974B
:100E7000059FC2F82031D2F820712A680497049F98
:100E8000C2F82431D2F824712A680397039FC2F86C
:100E90004431D2F844212B6802920C48029AC3F8DC
:100EA0000403286840F30730FFF716FC89E78B68D6
:100EB0005D1CBAD003F5E0734FF0A045002745F85C
:100EC0002370B2E7742100208000020010030200AA
:100ED0002DE9F04103795A4D5B01EC1886B0247F6F
:100EE00044B101F06044B4F1005F03D0102006B0BB
:100EF000BDE8F0812B44DFF848E19F7D1FB1112050
:100F000006B0BDE8F08199609A759F8206797601F6
:100F10000EEB06010B7F2BBB0268C2F81C31D2F826
:100F20001C41026805940124059F94600468D1F86F
:100F300008C0C4F81C31D4F81C310493049B8F8A78
:100F40008B8AD1F804E0BFB201331CF807709BB262
:100F50008B82C4F81C75BEF1000F33D0002006B0A0
:100F6000BDE8F08103688A68C3F82071D3F8204196
:100F700003680294029CC3F85871D3F8584103687F
:100F800001948C7D019FC3F84425C3F8484503684C
:100F900001229A604B68002BE0D1026801E0002B2F
:100FA0004CD1D2F82011D2F85831003318BF0123A8
:100FB0000029F4D0002B0CBF00200F20AB19002219
:100FC0009A7594E78F7D8B8A01F110029BB2BB4228
:100FD00026D2046804E093889BB2B3F5807F05D0E5
:100FE000D4F81C3101F11002002BF4D001F11002F1
:100FF00093889BB2B3F5807FE5D0C4F81CE1D4F8A8
:101000001C310393039BB2F8048093881FFA88F87D
:1010100001331CF808809BB29380C4F81C85D2E78A
:1010200093889BB2B3F5807F08D00268D2F81C3158
:10103000002BFBD00123D3600020BFE70F20BDE7CA
:10104000742100200279044B03EB4213987D003099
:1010500018BF0120704700BF74210020F0B503794C
:10106000924C5B01E51889B02E7F3EB101F06046DD
:10107000B6F1005F52D0102009B0F0BD6F6827B103
:1010800005684FF40176C5F80863234403F11006A0
:10109000F579DFF818E255BBF271D9601D765D76FF
:1010A00006797601A31918331F79002F47D19B7851
:1010B0008BB985B90368C3F82451D3F82421036898
:1010C0000492049AC3F80851D3F8082103680392E4
:1010D000012203991A60A5196B68002B64D003687C
:1010E0004FF401720020C3F8042309B0F0BD1D7E47
:1010F00085B1002F00F0AC8003790EEB431E9EF803
:101100001C30002B49D003684FF40472C3F8042349
:101110001120B1E719611A760125C1E76F68002F28
:10112000B3D00568DFF884E14FF404762344C5F8B2
:10113000086303F11006F579002DADD0D7E70368F9
:101140000026C3F81061D3F8107103680297029F5C
:10115000C3F84461D3F8446103680196019EC3F863
:101160003415C3F8382585B9036801221A6005795A
:101170006D0163195B68002B6CD003684FF4047237
:101180000020C3F8042309B0F0BD0268D2F8003291
:1011900043F02003C2F80032E9E703684FF401721C
:1011A000C3F80423112067E70268C2F84431D2F87B
:1011B00044310593059B0168D1F82421D1F80871C9
:1011C000D1F84431003218BF0122003318BF012387
:1011D00047B9002B35D1002AEED0A3190022DA75C9
:1011E000032049E7002AF8D16BBBEA7D02B3C1F8BE
:1011F0000831D1F808310693069A6F7EEA68D1F873
:101200001815D1556A7E0132D2B26A7605F11803FB
:1012100005F110025978D7798F42CCD89B780021FC
:10122000D171002B3CD00368012208461A6023E7E5
:10123000C1F80821D1F808310793079BD1F8183578
:10124000E4E7002AC9D1A3190022DA750F2013E7B9
:10125000112011E7016801E0D3B9EAB9D1F81061B2
:10126000D1F84431D1F82421003318BF01230032D2
:1012700018BF0122002EEFD0002A4FF000012C44AD
:1012800014BF032008468B42E17518BF0F20F3E618
:101290002C440F20E675EFE62C440320E375EBE6C3
:1012A0000268012118465160E6E600BF7421002063
:1012B000114A037902EB431318331979D9B99B7892
:1012C000CBB910B4016883B0C1F82431D1F82441FE
:1012D00001680194019CC1F80831D1F80831016816
:1012E00000930123009C0B60017902EB411293767D
:1012F00003B05DF8044B704774210020F0B59B4C9F
:10130000237F8FB0002B75D1994AD2F80413890539
:1013100048D4974BD3F80423520704D5D3F80821B7
:10132000002A40F0CA80924BD3F81C21C2B1A28A95
:10133000A07D8E4992B282424FF00002C3F81C2178
:1013400080F0A980D3F81C210692069A888A8A8A9E
:101350008D6880B20132285C92B28A82C3F81C0583
:10136000834BD3F84421DAB10022C3F84421D3F8E7
:101370004411A27E04910499002A40F08980E27D04
:101380007A4B6AB10022587ED968DA7501228DF84D
:1013900030000B918DF828200AA893E806009047AA
:1013A0000FB0F0BDD2F824110029B2D0C2F8243118
:1013B000D2F82411A37E07914FF401710798C2F867
:1013C00008130BB901235360694A02238DF82830B2
:1013D000D2F88034C2F88034E07DE2680D930023B7
:1013E0008DF83000E375237621680B9263680AA8B4
:1013F000984798E75E4BD3F82421002A40F0938069
:10140000D3F8101161B1C3F81021D3F81011039172
:101410000399D3F83C15E07DC9B2884200F0AA8058
:10142000534BD3F84421B2B10022C3F84421D3F87E
:101430004411E07D019101994C4960B1D3F83C35EC
:10144000C8688DF830300123CA750B908DF82830AC
:101450000AA80AC99847464BD3F82021002A9FD0F2
:101460000022C3F82021D3F82011A07D009100991B
:101470003E49002894D0D3F84C058B688DF8300095
:101480008A750B938DF828200AC90AA8984787E720
:1014900001221A6073E7D3F81C310593059B0028DD
:1014A0003FF45EAF8B688DF830008A750B938DF832
:1014B00028200AC90AA8984752E7E17D2B4A00294B
:1014C00070D00021C3F80811D3F8081108910899C9
:1014D000D068517ED3F818354354537ED17D013303
:1014E000DBB25376627E214B8A427FF41CAF1A7EB8
:1014F000002A6DD19B7E13B91D4B01225A601C4AF4
:10150000E06863684FF40171C2F80813627E8DF8D9
:101510003020002501220B902168E5758DF82820E8
:101520000AA89847FFE60022C3F82421D3F8241123
:10153000029102218DF828100299D3F88014C3F883
:1015400080140D91D3F83C15E368E27522768DF88E
:1015500030100B93216863680AA89847044BD3F8AE
:101560004421002A3FF477AF5EE700BF74210020DA
:1015700000200040217EF1B1D3F80072E17527F020
:101580002001E6682569C3F8001201238DF83000B8
:101590008DF82830227621680B96E56063680AA8EA
:1015A00098473DE7C3F80811D3F808210992099A32
:1015B000D3F8183596E7E268E17501238DF830001D
:1015C0008DF828300B9294E80A000AA8984727E77C
:1015D000DE685D7E1869DA7501210022D8601A760E
:1015E0005A768DF828100B968DF8305093E8060047
:1015F0000AA8904797E600BF0220FEF791BF00BF00
:101600002DE9F0470D460646FEF7C8FF03280446BD
:101610001DD8012D1FD00ED3022D1AD11E4B00EB69
:1016200040041C44657895B11C4B1B687BB128466F
:10163000BDE8F04718471A48FEF76EFD1649194AEB
:1016400004EB44030B44155D9B789D42EBD0BDE851
:10165000F087BDE8F087DFF8408047003B1808EBD3
:10166000030218F8035053782BB9274447440D4B15
:10167000BA781A55D7E70C4BDFF83090196808484C
:1016800001EB810149004A46FEF7EEFC0028ECD14F
:1016900089F80060E9E700BF10220020C82100207F
:1016A000CC210020B8210020C4210020B42100203A
:1016B0008D4B1B68DB0700D4704770B58B4E8C4D8B
:1016C00033782C78FBB9172C1CD8DFE814F07200A3
:1016D000770077009700AF00C900DE00C00030003F
:1016E00021003000210092003D003D003D003D0002
:1016F0003D005D0062006A00EB0018001800FEF774
:10170000F9FE2C7070BD00233370FEF7DDFEDAE7C2
:10171000012318463370FEF703FF764B76481968AD
:10172000002201EB8101BDE87040FEF79DBC012362
:1017300018463370FEF7F4FE6E4B6F4819680022AE
:10174000BDE87040FEF790BC6C48FEF7E5FCD4F1B4
:101750001104024600F0B180002840F0AE80012C58
:101760000DD0C825664B63496448096805FB04F43D
:10177000A3FB04435B0901FB03F1FEF775FC0220A8
:10178000BDE87040FEF788BEFEF79EFE12232B7068
:1017900070BDFEF799FE0020FEF77EFE13232B702E
:1017A00070BDFEF791FE0120FEF776FE14232B702C
:1017B00070BDFEF789FE00232B7070BD0120FEF77F
:1017C00077FE0020FEF75AFE002800F086800020F9
:1017D000FEF76EFE022C0CBF12232823454A2C7004
:1017E0001168454801FB03F10022BDE87040FEF797
:1017F0003BBCFEF77FFE0C232B7070BD0120FEF773
:1018000057FE0020FEF73AFE00285FD00020FEF7CA
:101810004FFE0822374B3848196803232B7001FB11
:1018200002F1BDE870400022FEF71EBC0120FEF769
:101830003FFE0020FEF722FE002843D00020FEF7E6
:1018400037FE28222B4B2C4819680423E6E700209A
:10185000FEF722FE0120FEF71FFE07232B7070BD4E
:101860000120FEF725FE0020FEF708FE90B30020C1
:10187000FEF71EFE1F4B2048196805232B704900F8
:101880000022BDE87040FEF7EFBB0020FEF748FEE7
:10189000184B1948196806232B700022BDE87040C8
:1018A000FEF7E2BBFEF710FE0020FEF7F5FD01207B
:1018B000FEF7F2FD15232B7070BD0220BDE87040CD
:1018C000FEF7F6BDFEF7E8FD0422BBE7FEF7E4FDF8
:1018D00002229FE7FEF7E0FDCCE7FEF7DDFD022CDC
:1018E0000CBF0223042379E7BC210020C021002083
:1018F000EC210020C421002094210020F0210020B0
:101900001F85EB5110B50078FEF748FE03280BD871
:10191000064B00EB40001844407828B1044B1B688C
:1019200013B1BDE81040184710BD00BF10220020C1
:10193000C8210020FEF724BE70B59E4B1A6812F035
:10194000010202D11646304670BD9B4D2B780446ED
:10195000E3B9172C00F22B81DFE814F0F200F90054
:10196000F900570071008B00A30046002C001D00F9
:101970002C001D00B100B800B800B800B800B800D5
:10198000D700DE00E80039005100510000232B7021
:10199000FEF79AFDDDE7012318462B70FEF7C0FD28
:1019A000864B87481968002201EB8101BDE8704031
:1019B000FEF75ABB012318462B70FEF7B1FD7F4B93
:1019C0007F4819680022BDE87040FEF74DBBFEF766
:1019D0007BFD0020FEF760FD0120FEF75DFD794BE9
:1019E00015221A700026AEE70020FEF755FD0120F3
:1019F000FEF752FD734B07221A700026A3E7FEF78D
:101A000079FD704B00261C709DE70120FEF750FD0C
:101A10000020FEF733FD002800F0C5800020FEF70F
:101A200047FD08226549674B0968654803241C7017
:101A300001FB02F1BDE870400022FEF715BB01205A
:101A4000FEF736FD0020FEF719FD002800F0A48007
:101A50000020FEF72DFD282258495A4B09685848A6
:101A600004241C7001FB02F1BDE870400022FEF767
:101A7000FBBA0120FEF71CFD0020FEF7FFFC00284A
:101A800000F08E800020FEF713FD4C4A4D4B11688C
:101A90004B4805241C7049000022BDE87040FEF749
:101AA000E3BA0020FEF73CFD464B444A4448116827
:101AB00006241C700022BDE87040FEF7D5BAFEF780
:101AC00019FD404B0C221A7000263CE73E48FEF7F9
:101AD00023FBD4F11104064653D0002851D1012C28
:101AE0000FD0C825394B35493748096805FB04F440
:101AF000A3FB04235B09324601FB03F1FEF7B4FAB2
:101B000006460220FEF7C8FC1DE7FEF7DDFC2D4B64
:101B100012221A70002616E7FEF7D6FC0020FEF708
:101B2000BBFC284B13221A7000260CE7FEF7CCFCF6
:101B30000120FEF7B1FC234B14221A70002602E7A5
:101B4000FEF7C2FC1F4B00221A701646FBE601206E
:101B5000FEF7AEFC0020FEF791FCB0B10020FEF7CE
:101B6000A7FC022C0CBF122328231449154A09682C
:101B70001470134801FB03F10022BDE87040FEF72A
:101B800073BA0220FEF794FCDDE6FEF785FC022C1A
:101B90000CBF02230423E8E7FEF77EFC04225BE788
:101BA000FEF77AFC71E7FEF777FC02223AE700269F
:101BB000C9E600BFBC210020C0210020C4210020B4
:101BC00094210020EC210020F02100201F85EB5102
:101BD000F0B5224D224E234B2860044610F002003F
:101BE00083B031601A6014D01F4B20484FF00E0EA6
:101BF0000F27102611254A0883F800E00421DF7022
:101C00009E715D72FDF728FDA0B1E3071DD403B0FE
:101C1000F0BDE20719D41648164A0021FEF712FA61
:101C20000028F4D11448154A012103B0BDE8F04062
:101C3000FEF708BAFDF768FD0028E6D10146104A14
:101C40001048FEF7FFF9E10703D50190FEF77AFC93
:101C500001980028DFD003B0F0BD00BFBC210020F8
:101C6000C4210020C82100201022002004480200C6
:101C700000480200B116020024480200F9150200D3
:101C800005190200FC470200032801D9072070470C
:101C9000012A12D0012917D008D30229F6D10D4B01
:101CA00000EB4000034400205A707047094B00EBE2
:101CB0004000034400209A707047012901D000229F
:101CC000E8E700F10E02D2B200EB40030149002028
:101CD000CA5470471022002008B5FEF771FC80003E
:101CE00000F1A0430020D3F8002722F44032C3F8CB
:101CF0000027D3F8002742F44032C3F8002708BD7C
:101D000008B50020FFF7E8FF10B1062800D008BD95
:101D10000120FFF7E1FF0028F9D0062808BF0020C6
:101D200008BD00BF10B50388102B08D0112B05D1BA
:101D3000264B18680138186038B110BD10BD234C0F
:101D4000206880B10130206010BD02210122FFF720
:101D50009BFF48B3072827D01D4B1B68002BECD0F6
:101D6000BDE81040184701460122FFF78DFF48B13A
:101D7000072807D0164B1B6803B19847206801302D
:101D8000206010BD012002210722FFF77DFF08B16E
:101D90000728EFD1002002210422FFF775FF002859
:101DA000ECD00728E6D1E9E7012002210722FFF75E
:101DB0006BFF08B10728CFD1002001460A22FFF7A8
:101DC00063FF0028B9D00728C6D110BD202200200B
:101DD0001C2200201A4B10B50C46186029B10120B6
:101DE000FFF7A8FD30B102232370164B186848B1E5
:101DF000002010BDFFF79EFDF8B9124B2070186847
:101E00000028F5D102210122FFF73EFF10B107287B
:101E100000D010BD012002210722FFF735FF08B1D5
:101E20000728F6D1002001460A22FFF72DFF0028DF
:101E3000DED0072808BF0020EBE70B232370D4E790
:101E40001C2200202022002032DF70473EDF704736
:101E500075DF704776DF70477FDF70478ADF704736
:101E60008CDF7047ADDF704764DF70470146014883
:101E700001F094BB3427002038B50378012B02D041
:101E800007D3022B04D14068BDE83840FDF752BCAF
:101E900038BD0D4C0D4D20782844FEF755FA2278B8
:101EA0000132D2B21544227015F8013C0A2B03D03E
:101EB000132A01D838BD22780548044901F040FCB6
:101EC0000028F8D1207038BD3027002024220020BF
:101ED00034270020042808B50CD00A2809D1002096
:101EE000FFF72AFD90B9FFF70BFF90B9FFF7ACFFA2
:101EF00040B908BD084B13215888FFF7ABFF30F0FD
:101F00000803F6D0BDE80840FDF714BCFDF712FC4D
:101F1000E9E7FDF70FFCE9E73427002038B50B7837
:101F2000022B0D462AD0032B15D0012B00D038BD33
:101F3000498805F10A02044601F028FC90BB2046BE
:101F400001F0D6FB40BB0220FEF7A6FA1748BDE819
:101F5000384001F037BD0220FEF7AAFA144801F01C
:101F600031FD1448FFF77AFFC8B90120FFF7E4FC00
:101F70000028DCD0BDE83840FDF7DCBB0B7A00243C
:101F80009BB16B68185DFEF7FFF90028F9D12B7A39
:101F90000134A342F5D838BDFDF7CCFBD3E7FDF7FC
:101FA000C9FBE2E7FDF7C6FBC9E738BD4C480200B4
:101FB00078480200F04802002DE9F0470388103B02
:101FC00086B00746462B74D8DFE803F09A7373A6F1
:101FD00073737373737373AF7324738A73737373CD
:101FE00073737373737373737373737373737373C1
:101FF00073737373737373817373737373737373A3
:1020000073737373737373737373737373737373A0
:1020100073938100C37DDA0800F1180949D00026C6
:102020000CE0191F012940F2A180063B012B40F270
:102030008B8008F10108464496423AD209EB060328
:1020400019F806805B78991E0129EAD85FEA580AD8
:10205000EFD0B41C4C44002502E0554500F08380CD
:102060002146022005AAFFF7FFFE013502340028B1
:10207000F3D1BDF81430012BEFD19DF81630022BAF
:10208000EBD107F108005049504AFFF7E9FE80B94B
:10209000FFF752FC08B1FDF74DFBB87B3D7B7C7B25
:1020A000797ABA7AFB7A029000950194484801F057
:1020B00089FC3846FFF736FE3946464800F0ECFA10
:1020C0003946454801F0D6FA06B0BDE8F087808869
:1020D0001321FFF7BFFE0028EBD0FDF72BFBE8E74D
:1020E000014631F8040F0431FFF7B2FE0028E0D0BA
:1020F000F3E780881721FFF7B5FE0028D9D0ECE779
:102100000720FFF719FC00284CD13248B98800F0AD
:102110008FFA0028CDD0E0E7002213468088852181
:10212000FFF79AFE0028C4D0D7E7037A022B3CD0F1
:10213000032BBED1294801F045FCB8881321FFF7D5
:1021400089FE0028B5D0C8E7B11C4944102005AA73
:10215000FFF78AFE38B9BDF81430012B03D19DF882
:102160001630022B8DD0FA7DD20862E75FEA980A1A
:102170003FF45FAFB41C4C44002501E05545F2D05C
:102180002146022005AAFFF76FFE0135043400281E
:10219000F4D1BDF81430012BF0D19DF81630022B8C
:1021A000ECD16EE7FDF7C6FAAFE70748FFF756FE3A
:1021B00030B90120FFF7C0FB00283FF47AAF8CE76D
:1021C000FDF7B8FAF5E700BFF04802004448020006
:1021D000884802008823002034270020B8480200E5
:1021E00070B500208CB0034603213A4AFDF746FE45
:1021F00008B1FDF79FFA384D384B01930FCD05AC70
:102200000FC495E80300364E364A039684E803006F
:1022100007234FF4807405A801A902940494FEF7E3
:102220001DF808B1FDF786FA012040F6CD412E4A8F
:10223000FFF7CEFC08B1FDF77DFA002005A9FFF7F6
:10224000C9FD08B1FDF776FA284800F06FF908B12A
:10225000FDF770FA264B274918680190502201A813
:10226000002301F00DFB08B1FDF764FA0120002105
:1022700005AA01F073FB08B1FDF75CFA172305A866
:10228000ADF8243001F082FB08B1FDF753FA1A488B
:1022900001F042FB08B1FDF74DFA184B18480593C1
:1022A00005A901F0BDF908B1FDF744FA154801F0A0
:1022B00089FB1548FFF7D2FD08B1FDF73BFA012075
:1022C000FFF73AFB18B9FFF7C1FD0028FBD0FDF777
:1022D00031FAF8E7E826002028480200E825002027
:1022E00038220020791E0200D51E02006D1E020059
:1022F0004048020038230020B91F02001D1F0200C1
:1023000034270020D8480200F048020094DF7047CC
:1023100096DF704797DF70472DE9F04390F85A3207
:1023200090F8594203EB830707EB870700EB870719
:102330004FF0640C0CFB03FC97F804E004EBC403BF
:102340000CEB4303661C0344764583B003F10A0596
:102350003CD0744538BF0EF1FF382DD2661C06EB19
:10236000C6030CEB4303A04500EB030913D02C89F3
:10237000B9F810500134AC4217D0013DADF8065009
:10238000ADF8044000230B70104601A9FFF7C2FF0F
:1023900003B0BDE8F0832B893C89A34212D00133FE
:1023A000ADF80430ADF80640ECE709F10A05F4B2E7
:1023B000A64580F85942D1D8012300200B7003B004
:1023C000BDE8F083002508F10106F0E72B89388984
:1023D0008342F1D00133ADF80430ADF80600D1E707
:1023E0002DE9F0414D4A90F85C3215680133DBB2BB
:1023F000AB429AB004460E4680F85C3209D3484B93
:10240000032100225E80197080F85B221AB0BDE8BB
:10241000F08190F85A32434F0133DBB203EB830172
:1024200001EB8101890000EB010E4FF0000857F825
:10243000230084F85A32642284F8598202FB034252
:10244000605001218EF804803046FFF75FFF0028BE
:10245000DCD094F85A3284F85B8203EB830303EBFD
:1024600083039B00E218B9789278914226D0012D1F
:102470001FD0B979DFF8ACE0914248D0022D18D0D6
:10248000B97ADFF8A0E091423BD0032D11D0B97B9F
:10249000DFF890E091422ED0042D0AD0B97CDFF80D
:1024A00084E0914221D0052D03D0B97D1D4D91428C
:1024B00016D01B4B03225E801A70A7E7B7F800E026
:1024C000E15A8E45D3D1184B1A68002AF1D0012366
:1024D0000190ADF802608DF8003068469047E8E75B
:1024E000AA8AE35A9A42E4D1EDE7BEF810E0E15A35
:1024F0008E45D8D1E7E7BEF80CE0E15A8E45CBD146
:10250000E1E7BEF808E0E15A8E45BED1DBE7BEF850
:1025100004E0E15A8E45B1D1D5E700BFF029002093
:1025200048270020D42900204427002068B170B437
:102530000749084A084E094D1060012400230C7019
:1025400033602B60184670BC70470E2318467047E6
:10255000EC29002044270020F0290020D029002069
:1025600020B12F4B1B781BB9082070470E207047F5
:1025700070B42C4C2C4A23683BB3817895788D42FB
:102580002AD0012B20D99579274E8D422ED0022BAF
:102590001BD0957A244E8D423CD0032B15D0957BD1
:1025A000214E8D4231D0042B0FD0957C1E4E8D4292
:1025B00026D0052B09D0957D1B4E8D421BD0052BB7
:1025C00003D9042070BC70470123006842F823003F
:1025D000013323600020F5E716880588AE42D0D18C
:1025E000124909680029EAD00020EBE7B68805887F
:1025F000AE42CCD1F4E7B58A01888D42DFD1EFE756
:10260000368A0588AE42D4D1EAE7B6890588AE425B
:10261000C9D1E5E736890588AE42BED1E0E700BF03
:10262000EC290020F0290020D42900204427002094
:1026300038B5044668B1144B1B780BB9082038BD77
:10264000124B1B68002BF9D090F85B321BB11120A4
:1026500038BD0E2038BD0A460D490E4D0868A4F855
:102660005E22206084F85C32104684F85A3284F886
:102670005932012122462B60FFF748FE0028E7D19E
:10268000012384F85B3238BDEC290020F0290020BA
:10269000D4290020D029002090B389B3B24B1B78F5
:1026A00073B32DE9F04F0B88113B9FB005460C46E4
:1026B000222B00F22A81DFE813F03E0228012801D4
:1026C00028012801280128012801280128012801C2
:1026D00028012801280128012801280128012801B2
:1026E00028012801280128012801280128012801A2
:1026F0002801280128012801C10128015F012B01BF
:1027000070470EEB8E0606EB860600EB8606897A8E
:10271000337919440529D5BFC9B205220A461146A5
:102720009A42317140F287802746642000FB0EF008
:1027300003EBC30257F80CCF00EB42022A4479683E
:10274000C2F80E10C2F80AC002F10A0802F1100C19
:1027500002F118013A89A8F808200022ACF80420F8
:10276000ACF80620ACF808204A8031795F1C8F4213
:1027700080F07A8307EBC701274600EB410157F849
:1027800016CF2944D7F80490C1F80E90C1F80AC0BA
:102790003F894F828A82CA820A834A8331799F1C89
:1027A0008F4280F0618307EBC701274600EB4101B0
:1027B00057F820CF2944D7F80490C1F80E90C1F8FB
:1027C0000AC03F894F828A82CA820A834A8331794A
:1027D000DF1C8F4280F0488307EBC701274600EBE0
:1027E000410157F82ACF2944D7F80490C1F80E9038
:1027F000C1F80AC03F894F828A82CA820A834A830B
:1028000031791F1D8F4280F02F8307EBC7012746C8
:1028100000EB410157F8340F2944D7F80480C1F880
:102820000E80C1F80A003F894F828A82CA820A83D9
:102830004A83317905336422013B02FB0EFE03EB30
:10284000C3030EEB43032B4432895B8A9A4240F266
:102850009E80052900F09B8085F85912A0880029E8
:1028600040F01A84F3883289ADF8122004AE314664
:10287000ADF81030FFF74CFD002846D03B4B95F8E3
:102880005A221F68002385F85B32B4F804E0BFB316
:1028900002EB820202EB82029200A918344B897883
:1028A00093F802C08C4500F0D584012F28D993F805
:1028B0000680DFF8BCC0884500F0C484022F1FD01A
:1028C00093F80A80DFF8A8C0884500F0B384032F8E
:1028D00016D093F80E80DFF898C0884500F0A284E7
:1028E000042F0DD093F81280DFF884C0884500F0E3
:1028F0009184052F04D09F7D1D4B8F4200F076847C
:102900001C4BA2885A8003221A701FB0BDE8F08FBA
:102910008A88B0F85E329A42F7D1C88895F859E2B1
:1029200095F85A12002840F021816389002B00F0AD
:102930001D81642303FB01F30EEBCE0603EB460679
:102940002E442246D389A3F52453082B00F2AD81EF
:10295000DFE813F0A901A501A201AB01AB01AB01B6
:10296000AB01AB01FB0000BFEC290020F0290020E7
:10297000D4290020482700208A88B0F85E329A4285
:10298000C3D1CB8890F85AE2002B3FF4BAAE0026B0
:1029900085F85962A28828460DF10F01FFF7BCFCAB
:1029A000002840F003839DF80F30002BADD0C04FBE
:1029B000B4F804E0D7F8009095F85A12B9F1000F76
:1029C00037D001EB810202EB82029200A818B94BCA
:1029D00080789E78864200F0D883B9F1010F28D91B
:1029E0009E79DFF8D0C2864200F0C883B9F1020FA9
:1029F0001FD09E7ADFF8BCC2864200F0B883B9F1DE
:102A0000030F16D09E7BDFF8ACC2864200F0A8838D
:102A1000B9F1040F0DD09E7CDFF898C2864200F019
:102A20009883B9F1050F04D09B7DA24E834200F03C
:102A3000498171462846FFF7D3FC66E7B1F804E008
:102A4000B0F85E3290F85A1273457FF45EAFE288B8
:102A5000002A00F07781964FD7F80090B9F1000F67
:102A600000F0C28301EB810202EB8202920010446B
:102A7000904B80789E78864200F00682B9F1010F73
:102A8000D7D99E79DFF82CC2864200F01982B9F1BD
:102A9000020FCED09E7ADFF81CC2864200F0098277
:102AA000B9F1030FC5D09E7BDFF808C2864200F063
:102AB000F981B9F1040FBCD09E7CDFF8F8C18642E1
:102AC00000F0E981B9F1050FB3D09B7D794E8342C7
:102AD000AFD1B08AAB5A9842ABD1774B1B68019308
:102AE000002BA6D0DFF8D881D8F800A0BAF1050FE6
:102AF0009FD86C23714E03FB0AFB06EB0B0C642280
:102B000002FB01510CF10400ACF802E0CDF800C06A
:102B100000F04CFF0AF10102DDF800C0019BCCF887
:102B2000683002214A45C8F8002006F80B1000F072
:102B30002682A1887EE78B88B0F85E229A427FF4D5
:102B4000E4AE002380F85B32DFE69789B38A7783AF
:102B50002BB1F78A1FB1338B0BB1738B33B96389F8
:102B60000130984202F10602FFF4ECAE642303FB4D
:102B700001530EF1010E1B7900269E458DF80F6062
:102B800040F0608101238DF80F30494FB4F804E024
:102B9000D7F80090B9F1000F3FF44BAF642000FB71
:102BA00001F02A18434B92789E78964200F05F829B
:102BB000B9F1010F7FF63DAF9E79DFF8F8C096427C
:102BC00000F06382B9F1020F3FF433AF9E7ADFF871
:102BD000E4C0964200F05282B9F1030F3FF429AFEE
:102BE0009E7BDFF8D0C0964200F03A82B9F1040F24
:102BF0003FF41FAF9E7CDFF8BCC0964200F02982F4
:102C0000B9F1050F3FF415AF9B7D2A4E93427FF437
:102C100010AFB28A2B5A9A427FF40BAF264B1B6837
:102C20000193002B3FF405AFDFF89480D8F800A0A3
:102C3000BAF1050F3FF6FDAE6C23204E03FB0AFBF5
:102C400006EB0B0C642202FB01510CF10400ACF802
:102C500002E0CDF800C000F0A9FE0AF10101DDF8A4
:102C600000C0019BCCF8683000224945C8F800102C
:102C700006F80B207FF45DAF9146B36E304698475F
:102C80003B6809F10109994506F16C06F5D300236B
:102C9000A188C8F80030CDE69389B38258E79789B8
:102CA0003783B38A54E79789F782B38A50E700BF26
:102CB000F0290020D42900204427002048270020A4
:102CC000D0290020B08AAB5A98427FF4B2AEB24B02
:102CD000D3F800C0CDF804C0BCF1000F3FF4A9AE9A
:102CE000DFF8C482D8F800A0BAF1050F3FF6A1AE14
:102CF000AA4E4FF06C0B0BFB0AFB06EB0B03642296
:102D000002FB0151181DA3F802E0009300F04EFEF3
:102D10009DE808100AF1010100224945C3F868C086
:102D2000C8F8001006F80B207FF403AF9146B36E8D
:102D3000304698473B6809F10109994506F16C0650
:102D4000F5D3A4E701EB810303EB83039B00E26867
:102D5000C25003442269C3F8062090F85922A08883
:102D6000002A40F08380DA881B89ADF8123004AE67
:102D70003146ADF81020FFF7CBFA00283FF4C5AD7F
:102D8000874B95F85A22D3F800E0002385F85B3290
:102D9000A188BEF1000F3CD002EB820202EB82025E
:102DA0009200AF187F4BBF7893F802C0BC4500F08B
:102DB000A081BEF1010F2CD993F806C0DFF8E481A1
:102DC000BC4500F08E81BEF1020F22D093F80AC0FC
:102DD000DFF8D081BC4500F07C81BEF1030F18D034
:102DE00093F80EC0DFF8BC81BC4500F06A81BEF1EB
:102DF000040F0ED093F812C0DFF8A881BC4500F094
:102E00005881BEF1050F04D09B7DDFF898E1BB42ED
:102E100005D00B46614A03215380117075E5BEF859
:102E20001470AB5A9F42F4D15B4B1A68002AF0D061
:102E3000012305908DF81030ADF812103046904700
:102E4000A388E7E785F859E2A28828460DF10F012B
:102E5000FFF762FA00283AD19DF80F30002B3FF4BB
:102E600054AD95F85A1290E63B46E4E4013AD2B2EA
:102E7000642602EBC20206FB01F101EB42022A4486
:102E8000528A013292B26FE7B3F800C0AE5AB4452D
:102E90007FF4F4AD21E6BCF810C0AE5AB4457FF41F
:102EA00011AE1AE6BCF80CC0AE5AB4457FF401AEC0
:102EB00013E6BCF808C0AE5AB4457FF4F1AD0CE699
:102EC000BCF804C0AE5AB4457FF4E1AD05E6344B1E
:102ED00085F85B621F68A18895F85A22002F98D068
:102EE00002EB820202EB82029200AE182D4BB67802
:102EF00093F802E0B64500F02481012F89D993F8B8
:102F000006E0DFF8A0C0B64500F01381022F80D0A4
:102F100093F80AE0DFF88CC0B64500F00281032F79
:102F20003FF477AF93F80EE0DFF878C0B64500F0D5
:102F3000F080042F3FF46DAF93F812E0DFF864C027
:102F4000B64500F0DE80052F3FF463AF9B7D154F43
:102F5000B3427FF45EAFBE8AAB5A9E427FF459AF54
:102F60000D4B1A68002A3FF454AF012305908DF8E9
:102F70001030ADF8121004A89047A3884AE74FF02C
:102F80000009B36E304698473B6809F1010999453D
:102F900006F16C06F5D37AE6442700204827002086
:102FA000F0290020D4290020D0290020AD4B85F83D
:102FB0005B621F68A28895F85A12B7B301EB8101D2
:102FC00001EB810189006E18A74BB67893F802E0F7
:102FD000B64500F0F980012F27D993F806E0DFF815
:102FE00088C2B64500F0E880022F1ED093F80AE0B0
:102FF000DFF874C2B64500F0D780032F15D093F8E0
:103000000EE0DFF864C2B64500F0C680042F0CD095
:1030100093F812E0DFF850C2B64500F0DD80052FCE
:1030200003D09B7D904FB34201D01346F2E6BE8A97
:103030006B5A9E42F9D18D4B1B68002BF5D00121B4
:103040000590ADF812208DF8101004A89847A388B9
:10305000E0E6BCF810C02E5AB4457FF4D1ADDDE5F2
:10306000BCF80CC02E5AB4457FF4C0ADD6E5B3F819
:1030700000C02E5AB4457FF49BADCFE5BCF808C024
:103080002E5AB4457FF4A8ADC8E5BCF804C02E5A4A
:10309000B4457FF497ADC1E54B1EDBB203EBC30330
:1030A0000EEB430E05EB0E035B8A01339BB2FFF779
:1030B000DABBB8F8108035F802C0E0457FF4A1AE65
:1030C000B2E6B8F80C8035F802C0E0457FF48FAE68
:1030D000AAE6B8F8088035F802C0E0457FF47DAE76
:1030E000A2E6B8F8048035F802C0E0457FF46BAE84
:1030F0009AE6B3F8008035F802C0E0457FF459AE97
:1031000092E6BCF810C035F802E0F4457FF41BAF3E
:1031100026E7BCF80CC035F802E0F4457FF409AFAF
:103120001EE7BCF808C035F802E0F4457FF4F7AEBE
:1031300016E7BCF804C035F802E0F4457FF4E6AECB
:103140000EE7B3F800C035F802E0F4457FF4D5AEE1
:1031500006E7BCF810C0AE5AB4457FF462ACB6E5E1
:10316000BCF80CC0AE5AB4457FF452ACAFE5BCF825
:1031700008C0AE5AB4457FF442ACA8E5BCF804C020
:10318000AE5AB4457FF432ACA1E5B3F800C0AE5AF4
:10319000B4457FF422AC9AE5BCF80CC035F801E0E8
:1031A000F4457FF433AF46E7BCF808C035F801E0DA
:1031B000F4457FF422AF3EE7BCF804C035F801E0E7
:1031C000F4457FF411AF36E7B3F800C035F801E0FD
:1031D000F4457FF400AF2EE7BCF810C035F801E0ED
:1031E000F4457FF41CAF26E7194623E4998AAB5ACD
:1031F00099427FF485AB1D4B1B68002B3FF480ABDD
:1032000001220590ADF812E030468DF81020984765
:10321000FFF776BBBCF8108035F802C0E0457FF4BC
:1032200068ABE8E7BCF80C8035F802C0E0457FF4F5
:1032300057ABE0E7BCF8088035F802C0E0457FF402
:1032400046ABD8E7BCF8048035F802C0E0457FF40F
:1032500035ABD0E7B3F8008035F802C0E0457FF425
:1032600024ABC8E7F0290020D429002044270020FF
:103270000649074A074B9B1A03DD043BC858D05048
:10328000FBDC00F013F8FCF7E9F80000A8490200A5
:10329000E81F002064200020FEE7FEE7FEE7FEE7CF
:1032A000FEE7FEE7FEE7FEE7FEE7FEE7F0B5A44B2C
:1032B0001B78062B1AD0A34AD2F8883043F4700347
:1032C000C2F88830BFF34F8FBFF36F8F4FF01023DA
:1032D000D3F80022002AC0F20281D3F80432002B76
:1032E000C0F2FD80984B994A1A60F0BD984B1B685C
:1032F0001E07E0D1974B1B6803F0F003302B62D020
:10330000944B1B6803F0F002302A4BD003F0E0032B
:10331000402B47D08F4B1B6803F0F003302B00F09D
:10332000CF808C4B1B6803F0F002302A28D003F0CA
:10333000E003402B24D0874B1B6803F0F003302BB5
:1033400000F0B080834B1B6803F0F003302B00F0DB
:103350009080804B1B6803F0F003502B37D07D4BDF
:103360001B6803F0F002302A03D003F0E003402B87
:10337000A1D1794B794A1B6803F04F0313609AE798
:103380006F4B1B784FF080420021062BC2F80C11C6
:10339000C2F81011C2F838158DD16D4B1B68180793
:1033A00089D1C8E76E4B664A1B6812786D49C3F332
:1033B0004233062A0B607FF47EAF654B1B681D0706
:1033C0007FF479AFA6E7684B684A1A6098E74FF038
:1033D0008052674BD2F80414C3F82015D2F80814B1
:1033E000C3F82415D2F80C14C3F82815D2F8101419
:1033F000C3F82C15D2F81414C3F83015D2F81814E9
:10340000C3F83415D2F81C14C3F84015D2F82014B0
:10341000C3F84415D2F82414C3F84815D2F8281478
:10342000C3F84C15D2F82C14C3F85015D2F8301448
:10343000C3F85415D2F83414C3F86015D2F8381410
:10344000C3F86415D2F83C14C3F86815D2F84014D8
:10345000C3F86C15D2F84424C3F87025384B1B7898
:10346000062B7FF428AF3A4B1B681B077FF423AF72
:1034700075E7334B3F4F1A783F4D4048404B4FF074
:10348000050E012600243F21062AC7F800E02E6021
:10349000046019607FF40FAF2D4B1B681A077FF48F
:1034A0000AAF56E7264B374A1B780321062B1160DB
:1034B0007FF401AF264B1B6819077FF4FCAE41E790
:1034C000314A1F49D368097823F080730629D360F5
:1034D000C4D11F4B1B681C077FF4EDAE21E72B4BBB
:1034E0000122C3F80425D3F80024002AFBD04FF0B2
:1034F000102315222549C3F80022D1F80034002BEF
:10350000FBD04FF0102315222049C3F80422D1F834
:1035100000241E4B002AFAD00022C3F80425D3F859
:103520000024002AFBD0BFF34F8F0649184BCA680E
:1035300002F4E0621343CB60BFF34F8F00BFFDE79F
:10354000E00F00F000ED00E0542000200090D003D8
:10355000E40F00F0E80F00F058020010E40E004005
:10356000440200103C05004074C007400DF0ADBAA5
:1035700000C00040105600408856004018560040D9
:1035800014560040A0050040F0ED00E000E00140CE
:103590000400FA059CDF704763DF7047F0B50C4606
:1035A00085B00546002168461022FBF7CBFF237843
:1035B00013B9A388012B01D005B0F0BDA2792B78F7
:1035C0009A42F9D1217AE9B101EBC101BDF80E703F
:1035D000BDF80A60BDF80C0004EB4101234606E08B
:1035E000032A01D1DE8A188B12338B4204D0DA8988
:1035F000022AF5D1DF8AF7E7ADF80E70ADF80A6060
:10360000ADF80C00EB68002BD6D06288ADF8022034
:103610000122284669468DF800209847CCE700BF74
:1036200070B5134B86B09A6805460E4618685968FF
:10363000DB6802AC0FC4C5B1BEB102A82946FFF7D2
:10364000ABFF98B906AB4FF6FF71012223F8142D9A
:1036500069803268EA60A88028812A788DF806207F
:103660001846FEF77DFF06B070BD0E2006B070BD97
:10367000F848020030B585B040B139B143884FF603
:10368000FF7293421ED08A889A4201D005B030BDA5
:103690000B88112B20D0392BF8D18388002BF5D043
:1036A0004A899A42F2D1C368002BEFD001F110048D
:1036B000CA89019402258DF800508DF808206946CA
:1036C0009847E3E70A88112A03D0392AE5D005B0E4
:1036D00030BD8A889A42D9D1C368002BD6D004A9BC
:1036E000032201F8102D4FF6FF7242809847CDE774
:1036F00040B143884FF6FF72934201D0C2881AB995
:10370000082070470E20704730B585B00024184659
:103710000225012301A9ADF806208DF800308DF8AF
:1037200004308DF805308DF80140ADF80840ADF853
:103730000A50CDF80CD0FFF72DFF05B030BD00BF0B
:1037400070B1142A01D90720704770B50B46418823
:103750004FF6FF74A14284B004D1082004B070BDBC
:103760000E2070470089ADF80600022601250024CE
:10377000084601A9ADF80A2003938DF804608DF87E
:103780000550ADF80840FFF705FFE7E748B1418075
:103790002AB15388C38013888380938803810020D3
:1037A00070470E20704700BF48DF704710DF70473A
:1037B00060DF704761DF7047FBF7CCBF2DE9F04752
:1037C000DFF8A890264EDFF8A880264FD9F80040F1
:1037D000B4FA84F482B0002564097DB93378DFF847
:1037E00080A063B901A8FFF7DFFF05280AD018B34E
:1037F000FBF7A0FF4CB101240025EFE7CCB102B0EC
:10380000BDE8F087002CFAD101259AF80030002B92
:10381000F5D102A93C68B8F8003021F8043D2046F3
:10382000FFF7C8FF052816D080B1FBF783FF0024FF
:10383000D3E7DFF82CA0E8E70198FCF709FF0A4B73
:103840001B68002BD6D001989847D3E72046D9F8BB
:1038500000309847EBE7002DCDD002B0BDE8F087EF
:10386000F4290020F8290020FC290020002A00204B
:10387000F6290020014B1878704700BFF529002079
:1038800011B111F0030F01D007207047F8B51B4F9D
:103890001B4E1C4D1C4C396032802B602368DB07AB
:1038A00008D50125C4F880501849FFF77FFF30B1D3
:1038B0002560F8BD1549FFF779FF00B1F8BD144B3D
:1038C00001221A70FCF7D6FE0F4A92F816335B09F4
:1038D000991E052909D8043B012B06D90D4B986880
:1038E00030B94FF480031360F8BD42F20200F8BD16
:1038F0001A6842F480021A600020F8BDF8290020FE
:10390000F6290020042A002000E100E0B937020077
:10391000F5290020142A0020034618B1024A00208D
:10392000136070470E207047002A002008B5094B2D
:103930001B6833B1984700B908BDBDE80840FBF7E4
:10394000F9BE054B1B78002BF6D0BDE80840FFF709
:1039500035BF00BF042A0020F529002070B51446A9
:1039600005460E46104600211C22FBF7EBFD227D8A
:103970002672002363F30002012165722275A361A0
:10398000218005B1A172002070BD00BF00B583B0D9
:10399000054B019302A9019B41F8083DFFF708FF81
:1039A000019B03B05DF804FBE81F002010B5431E27
:1039B0000A44914204D011F8014B03F8014FF8E793
:1039C00010BD00000FB40A4B13B51C6824B1A369E5
:1039D00013B9204600F04EF805AB2046A168049AC2
:1039E000019300F04DF902B0BDE8104004B07047FB
:1039F00048200020014900F0A7B800BF314502006F
:103A0000002310B5044603604360836081814366F0
:103A1000C28103614361836119465C300822FBF770
:103A200091FD054B6362054BA362054BE362054BB9
:103A30002462236310BD00BFDD410200FF4102008C
:103A4000374202005B42020070B568234D1E5D43A1
:103A50000E4605F1740100F095F8044640B10021CE
:103A600080E842000C30A06005F16802FBF76AFDB7
:103A7000204670BD836910B5044633BB8364C364BC
:103A80000365124B124A1B688262984204BF0123ED
:103A9000836100F01FF86060204600F01BF8A06012
:103AA000204600F017F80421E06000226068FFF76C
:103AB000A7FFA06809210122FFF7A2FFE0681221F9
:103AC0000222FFF79DFF0123A36110BDCC47020036
:103AD000F5390200F8B51B4B1E68B369074613B9E8
:103AE0003046FFF7C7FF4836B4687368013B04D41B
:103AF000B4F90C5075B16834F8E733682BB938461F
:103B00000421FFF7A1FF306008B13668ECE70C2311
:103B10003B60F8BD4FF6FF73E3810123A381656627
:103B20002560A560656025616561A56104F15C00A3
:103B300029460822FBF706FD6563A563A564E564D5
:103B40002046F8BDCC4702002DE9F843804689465F
:103B500000F14804002694B1A5686768013F0CD4C1
:103B6000AB89012B07D9B5F90E30013303D040469C
:103B70002946C84706436835F0E72468EBE7304636
:103B8000BDE8F88370B5CC1C24F0030408340C2C79
:103B900038BF0C24002C064603DA0C2333600020C7
:103BA00070BD8C42F9D3204A136810461946A1B162
:103BB0000A68121B0ED40B2A03D90A608B188C508A
:103BC0001FE08B420DBF5A684A685A60026018BFF6
:103BD0000B4616E00B464968E9E7144D2B681BB904
:103BE000304600F0EBFA28603046214600F0E6FA55
:103BF000421C0346D1D0C51C25F0030585420AD1DD
:103C00001C6003F10B001A1D20F00700821A0AD075
:103C10005142995070BD3046E91A00F0CFFA013098
:103C2000BBD02B46ECE770BD0C2A0020082A0020F0
:103C30009368013B002B10B5936009DA9469A342A5
:103C400002DBCBB20A2B03D1BDE8104000F00ABB67
:103C50001368581C10601970C8B210BDF8B506463C
:103C60000F461446D518AC4208D0304614F8011B54
:103C70003A46FFF7DDFF431CF5D100E00020F8BD18
:103C80002DE9F0439DB00D4690460393064618B1CA
:103C900083690BB9FFF7EEFE754B9D4201D1756844
:103CA00008E0744B9D4201D1B56803E0724B9D4220
:103CB00008BFF568AB891C070AD52B6943B10023FF
:103CC000099320238DF8293030238DF82A3041E0E4
:103CD0003046294600F02CFB0028F0D04FF0FF3092
:103CE000C2E0039A111D12680391002ABBBF524221
:103CF00043F0020307920792B8BF0493013423787C
:103D00002E2B7BD0DFF8808121784046032200F003
:103D100099FC38B1049AC8EB000040238340134358
:103D200004930134217855488DF82810062204F1B7
:103D3000010800F087FC002800F08580504B002B24
:103D400078D1039B073323F0070308330393099BC0
:103D50003B44099343461C4613F8012B1AB9B4EBB4
:103D600008090ED002E0252AF5D1F8E730462946A9
:103D700042464B46FFF772FF013070D0099B4B441F
:103D800009932378002B6AD000234FF0FF3204936D
:103D90000793059206938DF853301A9304F10108A6
:103DA0004446DFF8E89021784846052200F04AFCB6
:103DB00008F10108049B30B1C9EB000001228240E8
:103DC00013430493ECE7D80644BF20228DF8532018
:103DD000190744BF2B228DF8532022782A2A80D03D
:103DE000079923461C4601332278303A092A03D822
:103DF0000A2000FB0121F5E7079180E763782A2B71
:103E00000AD1039B1A1D1B680392002BB8BF4FF009
:103E1000FF330234059375E7611C00220C46013123
:103E20002378303B092B03D80A2000FB0232F5E748
:103E3000059267E703AB0093304604A92A46114B6D
:103E4000AFF3008007E003AB0093304604A92A4695
:103E50000C4B00F093F8421C07467FF478AFAB8917
:103E60005B063FF53BAF09981DB0BDE8F08300BF8E
:103E7000084902002849020048490200724902002C
:103E8000000000005D3C02006E490200684902002B
:103E90002DE9F84391461F468A680B69DDF82080BA
:103EA0009342B8BF1346C9F8003091F84320064644
:103EB0000C4612B10133C9F800302368990642BF9D
:103EC000D9F800300233C9F80030256815F006052E
:103ED0001CD094F843302268003318BF01239206A7
:103EE0001FD5E1185A1C302081F84300224494F871
:103EF000451082F84310023313E03046394604F18E
:103F000019020123C047013007D00135E368D9F811
:103F100000209B1A9D42F0DBDBE74FF0FF30BDE84D
:103F2000F8833046394604F14302C0470130F4D0EB
:103F30002268D9F80050E36802F00602042A08BF9C
:103F40005D1B2269A3680CBF25EAE5750025934235
:103F5000C4BF9B1AED184FF00009A9450ADA304694
:103F6000394604F11A020123C0470130D5D009F1C6
:103F70000109F2E70020BDE8F88300002DE9FF41C8
:103F80000C461746227E6E2A984606460A9B01F189
:103F9000430100F0AF8012D8632A23D00AD8002A48
:103FA00000F0BC80582A40F0CB8084F84520DFF830
:103FB00004E257E0642A1ED0692A1CD0C0E0732AAC
:103FC00000F0B08009D86F2A2ED0702A40F0B88057
:103FD000226842F0200222603FE0752A24D0782A2D
:103FE0003BD0ADE01A68111D1960136884F84230A7
:103FF00004F14205A8E020681A6810F0800F02D092
:10400000101D186008E010F0400F02F10400186065
:1040100002D0B2F9003000E01368002B3EDA2D2206
:104020005B4284F8432039E020681A6810F0800F62
:1040300002D0101D186007E010F0400F02F10400DC
:10404000186001D0138800E01368227EDFF864E175
:104050006F2A0CBF08220A221CE07822DFF858E100
:1040600084F845202268186812F0800F00F10405DA
:104070001D6003D1550601D5038800E00368D00711
:1040800044BF42F0200222601BB9226822F02002C5
:1040900022601022002084F8430002E0DFF814E1DF
:1040A0000A226568A560002DA2BF206820F00400E8
:1040B000206003B965B10D46B3FBF2F002FB10338B
:1040C0001EF8033005F8013D03460028F4D100E056
:1040D0000D46082A0BD12368DA0708D523696268E0
:1040E0009A42DEBF302305F8013C05F1FF35491B3C
:1040F00021612EE025681A68606915F0800F03D0F1
:10410000151D1D60136808E015F0400F02F104054D
:104110001D60136801D0188000E01860002323613F
:104120000D4616E01A68111D196015686268284668
:10413000002100F087FA08B1401B6060636804E06A
:1041400004F1420584F8422001232361002384F80E
:104150004330CDF800803046214603AA3B46FFF7A6
:1041600097FE013002D14FF0FF301FE03046394654
:104170002A462369C0470130F5D023689B0705D440
:10418000E068039B9842B8BF18460FE00025E3683B
:10419000039A9B1A9D42F3DA3046394604F119021C
:1041A0000123C0470130DED00135F0E704B0BDE89F
:1041B000F08100BF794902008A49020038B5064CF7
:1041C000002305460846236000F0E4FA431C02D1B0
:1041D000236803B12B6038BD202A002010B50C469F
:1041E000B1F90E1000F082FA0028ABBF636DA3890D
:1041F0001B1823F48053ACBF6365A38110BD2DE968
:10420000F0411D468B89DB0507460C46164605D551
:10421000B1F90E100022022300F0B4F9A389B4F919
:104220000E1023F48053A381384632462B46BDE856
:10423000F04100F06BB810B50C46B1F90E1000F06B
:10424000A1F9431CA38915BF606523F4805343F48F
:104250008053A38118BFA38110BDB1F90E1000F0E7
:10426000D3B8000070B50D461446064618B18369F0
:104270000BB9FFF7FFFB224B9C4201D1746808E0A9
:10428000204B9C4201D1B46803E01F4B9C4208BF05
:10429000F468A369A360A3891A0709D523693BB110
:1042A00023682069181A63699842EDB20FDB08E0B1
:1042B0003046214600F03CF80028F1D04FF0FF30A6
:1042C00070BD3046214600F033F90028F6D1A368CE
:1042D000013BA36023685A1C22601D706369013092
:1042E000984204D0A389DB0707D50A2D05D13046B3
:1042F000214600F01DF90028E0D1284670BD00BF1E
:1043000008490200284902004849020038B5074C14
:10431000054600202060084611461A46FCF796F82C
:10432000431C02D1236803B12B6038BD202A002032
:10433000314B70B51D6806460C4625B1AB6913B903
:104340002846FFF797FB2D4B9C4201D16C6808E093
:104350002B4B9C4201D1AC6803E02A4B9C4208BF26
:10436000EC68A3899AB211071DD4D50602D409229C
:10437000326038E0500712D5616B41B104F144035B
:10438000994202D0304600F06DF900236363A3899F
:1043900023F02403A3810023636023692360A3899E
:1043A00043F00803A38123694BB9A38903F4207365
:1043B000B3F5007F03D03046214600F0F5F8A3891D
:1043C00013F0010205D00022A26062695242A2618C
:1043D00003E0990758BF6269A26022694AB903F0F5
:1043E000800080B230B143F04003A3814FF0FF3032
:1043F00070BD002070BD00BF4820002008490200A9
:10440000284902004849020038B5064C00230546F9
:104410000846236000F09EF9431C02D1236803B1D3
:104420002B6038BD202A00208A892DE9F0410546FD
:1044300010070C4657D44B68002B02DC0B6C002B8A
:1044400018DDE66AB6B102F48052002392B22F68FA
:104450002B600AB1626D10E0216A28460123B04743
:10446000411C024609D12B683BB11D2B01D0162BF4
:1044700047D12F600020BDE8F081A3895B0705D5F7
:104480006368D21A636B0BB1236CD21AE66A216A95
:1044900000232846B047461CA38905D12A681AB1D3
:1044A0001D2A01D0162A19D100226260D90422697E
:1044B000226004D5421C01D12B6803B96065616B91
:1044C0002F600029D6D004F14403994202D0284637
:1044D00000F0C8F800206063BDE8F08143F04003BD
:1044E000A381BDE8F0810F69002FC3D093070E6848
:1044F00008BF4B690F6018BF0023C7EB06088B602D
:1045000012E0A38943F04003A3814FF0FF30BDE8E0
:10451000F0812846216AA66A3A464346B0470028F9
:10452000EFDD0744C0EB0808B8F1000FF1DCA1E7AC
:1045300038B50B6905460C46DBB118B183690BB978
:10454000FFF798FA0C4B9C4201D16C6808E00B4BCA
:104550009C4201D1AC6803E0094B9C4208BFEC6867
:10456000B4F90C302BB128462146BDE83840FFF79E
:104570005BBF002038BD00BF084902002849020087
:104580004849020038B5074C05460020206008461F
:1045900011461A4600F0F6F8431C02D1236803B115
:1045A0002B6038BD202A0020F0B58B899D0791B083
:1045B00006460C4626D4B1F90E10002909DAA38963
:1045C00013F0800F4FF0000514BF40274FF48067B1
:1045D0000DE001AA00F09CF80028F0DB029D05F434
:1045E0007045A5F500514D424D414FF4806730466E
:1045F0003946FFF7C7FA60B9A3899A051DD443F07D
:104600000203A38104F14703236023610123636153
:1046100013E00B4BB362A389206043F08003A381B6
:10462000206167614DB13046B4F90E1000F082F898
:1046300018B1A38943F00103A38111B0F0BD00BFFD
:10464000F539020010B5C9B202449042034606D0C3
:104650001C788C4200F10100F7D1184610BD0020F3
:1046600010BD000030B500293DD051F8042C0B1FBF
:104670001D49002AB8BF9B180A680C4612B95A6037
:104680000B6030BD93420DD219685818904201BF9B
:104690005A5852181A6042685A60236030BD9942D5
:1046A00003D80A4651680029F9D1146815199D42AA
:1046B0000AD11B682344D0188842136013D10868BC
:1046C000034413604B680DE002D90C23036030BD36
:1046D0001C681819884204BF08684968596004BFFB
:1046E00000191860536030BD0C2A002038B5074C03
:1046F000054600202060084611461A46FBF7B4FE26
:10470000431C02D1236803B12B6038BD202A00204E
:1047100038B5074C0023054608461146236000F0D3
:1047200021F8431C02D1236803B12B6038BD00BFC0
:10473000202A002038B5064C002305460846236091
:1047400000F018F8431C02D1236803B12B6038BD78
:10475000202A0020024B58221A604FF0FF30704789
:10476000202A0020024B58221A604FF0FF30704779
:10477000202A0020024B58221A600020704700BFF8
:10478000202A0020024B58221A604FF0FF30704759
:10479000202A0020044A05491368002B08BF0B4655
:1047A0001844106018467047102A0020282A00205C
:1047B000F8B500BFF8BC08BC9E467047F8B500BF0E
:1047C000F8BC08BC9E46704743000000E81F00206C
:1047D0008C200020FFFFFFFFFFFFFFFFFFFFFFFF19
:1047E000FFFFFFFF00000000000000000000D601F6
:1047F000070100000D0E0F1018151216CC21002015
:10480000942100200D000300011602000E00030099
:10481000011602000F000300011602001000030041
:1048200001160200F021002011000000100000001D
:1048300014000000130000000000000000E0D70199
:104840000200000710003C000000280054686520AA
:104850006465766963652068617320746865204EBD
:104860006F726469632055415254205365727669B2
:1048700063650D0A00000000446973636F6E6E6526
:10488000637465640D0A0000436F6E6E656374693E
:104890006E6720746F2074617267657420253032F2
:1048A000782530327825303278253032782530320C
:1048B00078253032780D0A00436F6E6E6563746937
:1048C0006F6E20526571756573742074696D6564CF
:1048D000206F75742E0D0A00556172745F6320534A
:1048E00063616E20737461727465640D0A00000068
:1048F0000100A000500000009ECADC240EE5A9E0E3
:1049000093F3A3B50000406E00000000000000001B
:104910000000000000000000000000000000000097
:104920000000000000000000000000000000000087
:104930000000000000000000000000000000000077
:104940000000000000000000000000000000000067
:104950000000000000000000000000000000000057
:104960000000000000000000232D302B2000686CA8
:104970004C00656667454647003031323334353682
:1049800037383941424344454600303132333435BB
:1049900036373839616263646566000000000000E4
:0849A000BCAAFF7F010000002A
:1049A80000000000084902002849020048490200A6
:1049B80000000000000000000000000000000000EF
:1049C800C8470200000000000000000000000000CE
:1049D80000000000000000000000000000000000CF
:1049E80000000000000000000000000000000000BF
:1049F80000000000000000000000000000000000AF
:104A0800E81F002000200040000000000090D003B4
:0C4A180025F4010001F401000000000082
:040000032000327136
:00000001FF
