:1000000000000120A1930000C9930000CB930000E1
:10001000CD930000CF930000D193000000000000BA
:10002000000000000000000000000000D39300006A
:10003000D593000000000000D7930000D993000082
:10004000B9650000DB930000BD740000656E000020
:10005000DB930000DB93000091690000DB9300005C
:10006000DB930000DB930000DB930000DB930000D8
:10007000DB930000DB930000DB930000DB930000C8
:10008000DB930000F5070000DB930000DB9300002A
:10009000B9080000DB930000E5990000A95B0000AF
:1000A000DB930000DB930000DB930000DB93000098
:1000B000DB930000DB930000000000000000000064
:1000C000DB930000DB930000DB930000DB93000078
:1000D000DB930000DB930000DB93000000000000D6
:1000E0000000000000000000000000000000000010
:1000F0000000000000000000000000000000000000
:1001000000000000000000000000000000000000EF
:1001100000000000000000000000000000000000DF
:1004000010B5054C237833B9044B13B10448AFF34E
:1004100000800123237010BDA8060020000000000A
:1004200058AC0000084B10B51BB108480849AFF3A1
:1004300000800848036803B910BD074B002BFBD0B0
:10044000BDE81040184700BF0000000058AC000095
:10045000AC060020A406002000000000154B002B75
:1004600008BF134B9D46A3F5803A00218B460F46EB
:100470001348144A121A00F065F80F4B002B00D0F5
:1004800098470E4B002B00D0984700200021040015
:100490000D000D48002802D00C48AFF3008000F09A
:1004A0002BF82000290007F037FF00F011F800BFFB
:1004B0000000080000000120000000000000000013
:1004C000A8060020A817002000000000000000007F
:1004D00008B5074B044613B10021AFF30080054B6C
:1004E0001868836A03B19847204600F033F800BFCC
:1004F0000000000084A8000070B50E4B0E4CE41AFA
:10050000A41000251E46A54204D056F82530984771
:100510000135F8E70AF0A8F9084C094BE41AA410D1
:1005200000251E46A54204D056F8253098470135CF
:10053000F8E770BD9C0600209C060020A006002065
:100540009C06002002440346934202D003F8011B9C
:10055000FAE77047FEE700BF2DE9F84F234B1A7802
:100560008AB3DFF88CB0DFF88C80DFF88C90002441
:100570004FF0010A03E00134E4B2944223D226B2E0
:10058000D8F80050DBF8003015F836000AFA00F110
:10059000194205EBC607EED0154A23EA01031360A2
:1005A00006F0ECF915F83650D9F800300AFA05F1E2
:1005B0000B4000FA05F18B4207D00C4B01341A783E
:1005C000E4B29442DBD3BDE8F88F79787B68A1F17F
:1005D0000101B1FA81F14909002BEED0091A284630
:1005E000B1FA81F149099847E7E700BFCC0600203E
:1005F000F4060020C8060020F006002070B506466C
:10060000114800F083FD40B9104D01242B68B4401F
:100610001C4203D023EA04042C6070BD304606F06F
:10062000ADF90B4E326860B122432B680949326044
:100630001C432C60044809680022BDE8704000F0AB
:1006400013BD22EA0402F0E7D0060020F4060020E1
:10065000F0060020C4060020F0B5042A85B0174635
:1006600002D8072005B0F0BD0191054606F050F80C
:100670000199002830D01C4CDFF888E01B481C4A48
:100680001C4B256000264C1E07608EF8001016607B
:100690001E60E4B2032709B918E01C4623B205EB3B
:1006A000C30215F833009378134A8DF80D3003A96F
:1006B0008DF80C708DF80E608DF80F6006F032F832
:1006C000631E0028CED1DBB2002CE6D10B4A0C48C9
:1006D000002100F0B7FCC5E7019105F0D7FF0199B3
:1006E0000028C8D0BEE700BFC8060020C40600200E
:1006F000F0060020F4060020FD050000590500006A
:1007000088A80000CC06002070B5084D2B785BB19E
:10071000074E00243368012113F8340006F0CCF8AA
:100720002B780134A342F5D8002070BDCC06002000
:10073000C806002000B585B000230390194644F296
:10074000010001AAADF80430029300F003F805B0EF
:100750005DF804FBBFF34F8F0549064BCA6802F4EE
:10076000E0621343CB60BFF34F8F00BFFDE700BFD4
:1007700000ED00E00400FA0559B10AB909207047FC
:10078000531E1A40FAD1826001608380C260104615
:1007900070470E20704700BF10B48468C2680346DB
:1007A0008088121B904203D204205DF8044B7047EE
:1007B000DA681C6802400020A154DA680132DA606D
:1007C0005DF8044B704700BF03468068DA689042CA
:1007D0000DD010B49A6898881C6802400020A25C72
:1007E0000A709A6801329A605DF8044B70470520E0
:1007F000704700BF2DE9F041274A284B0025C2F879
:100800004051C2F84451C2F84851C2F84C51C2F8A4
:100810000051C2F804511B681BB32149D2F80425CA
:100820000C68204F141B1A6824F07F44A242A8468B
:1008300009D8197CDE69A41A1544A1B91EB1334642
:100840001A68A242F5D9184B18491A780B789A42BF
:100850001BD01749174A41F823504FF48013C2F8B0
:100860000031BDE8F081D3F814C083F810803A68F5
:100870009B69604619462AB190470028DED0FFF7F1
:1008800059FFDBE71846E047D8E7531CDBB2022BE1
:1008900008BF00230B70DCE700100140FC060020BD
:1008A000F8060020000700200407002005070020AC
:1008B0001007002000E100E02DE9F04F894A8A4945
:1008C000137809788948994287B0D0F8009000F0F1
:1008D00016820133DBB2022B08BF00231370844A57
:1008E00052F82370814A07EB090323F07F4313601A
:1008F0004FF0010A7F4BCDF80C90D3F800807E4B6F
:1009000019785B7801931E467B4B5C6893F802E094
:100910007A4B93F800B0754B1B68029342464346EE
:100920000020BC46B14217D001EB4105013114F85B
:100930003570C9B2714508BF0021022F04EBC5050F
:1009400077D0032FEED1002BECD0DA691874134660
:10095000002AFAD1B142E7D1664902980A60634998
:10096000DDF80C9008606549674681F800B0BAF17F
:10097000000F40F0A481B8EB030218BF01220592DA
:10098000039355461E46594BDFF87491D3F800C0C7
:10099000584BD3F800A0584BD3F804B09B7802937F
:1009A000554B93F800E0554B1B78049300274FF00C
:1009B000010835B36968A8682C46ED69CCEB0102E3
:1009C00022F07F424A4556D8131823606760A7601B
:1009D00084F81080E761002E7FD0316899425CD2A4
:1009E000304603E0116899425ED21046C2695B1A34
:1009F000002AF7D12360E2613346C4611E46002D10
:100A0000D8D1019B9E457DD00EEB4E020BEBC2036D
:100A10000EF1010E1BF8322002995C685FFA8EFE1F
:100A20008E4508BF4FF0000E012A44D033461E46C3
:100A3000E5E7D5F80490002B3FF474AF4B4500F088
:100A400039811F4600E02F46FD69002D3FF46AAF53
:100A5000A945F8D1B946A9452F4600F02B81FD697B
:100A60003F68C9F81C50002D3FF45CAF2B683B4435
:100A70002B60134656E7C1EB0C0121F07F41814208
:100A800002D2431A2360A1E727606760A76084F859
:100A90001080E7610EB331680023CB1A3360234620
:100AA000E661A2461E46AAE7C91A11602360E26108
:100AB0003346C461A2E7227C002AB7D199686160FD
:100AC000D868A0601A69E2605B69A361049B002B8F
:100AD0003FF474AF6560294670E72346A2461E4680
:100AE0008DE700BF0407002005070020F80600205E
:100AF00010070020FC060020080700200607002041
:100B0000FEFF7F00854B83F800E0854BC3F800A013
:100B1000039BB34200F0C480002E00F01181814C91
:100B2000814BD4F804051B68804DD6F800C02978A5
:100B3000C21A22F07F420332002952D17C4FDFF8E3
:100B4000F491DFF8F4814FF480314FF4003E012638
:100B5000C4F84413C4F80413C7F880E1C7F800E0F0
:100B600026602F21D9F8004000BF00BF00BF00BFA2
:100B700000BF00BF00BF00BF44452FD000BF00BF73
:100B800000BF00BF00BF00BF00BF00BF00BF00BF6D
:100B900000BF00BF00BF00BF00BF00BF00BF00BF5D
:100BA00000BF00BF00BF00BF00BF00BF00BF00BF4D
:100BB00000BF00BF00BF00BF00BF00BF00BF00BF3D
:100BC00000BF00BF00BF00BF00BF00BF00BF00BF2D
:100BD00000BF00BF00BF00BF00BF00BF0139C3D1CD
:100BE0002E7062452CBF9A1803EB0C024D4922F07F
:100BF0007F43C1F84035D1F80425121A1B1A22F0A0
:100C00007F4223F07F4303329A424DD9D1F8043515
:100C1000484AC1F84035126847492F2300BF00BF3A
:100C200000BF00BF00BF00BF00BF00BF8A422FD07F
:100C300000BF00BF00BF00BF00BF00BF00BF00BFBC
:100C400000BF00BF00BF00BF00BF00BF00BF00BFAC
:100C500000BF00BF00BF00BF00BF00BF00BF00BF9C
:100C600000BF00BF00BF00BF00BF00BF00BF00BF8C
:100C700000BF00BF00BF00BF00BF00BF00BF00BF7C
:100C800000BF00BF00BF00BF00BF00BF00BF00BF6C
:100C9000013BC3D1264B4FF40032C3F8002103E0DF
:100CA000059B002B7FF438AF244A0023137007B054
:100CB000BDE8F08FDA6942B313464F46CFE6002510
:100CC00028462C46A3B11968B9421BD8DA681C60C3
:100CD0007F1A0844D9693AB100EB090626F07F462D
:100CE000DD619A605E601D460B460A46002BEAD124
:100CF0000B49039301230A600593039E43E60027F3
:100D0000BA46F7E5C91B1960F2E7064B01259D605D
:100D10004F4613460292AB46A1E600BF08070020EB
:100D2000FC06002000100140F806002018070020F3
:100D300000E100E0980600200024F40006070020EF
:100D4000484A494B494D4A484FF480314FF40037E7
:100D50000124C3F88070C2F848132F23C2F8081387
:100D6000546029681D4600BF00BF00BF00BF00BF20
:100D700000BF00BF00BF81422FD000BF00BF00BF37
:100D800000BF00BF00BF00BF00BF00BF00BF00BF6B
:100D900000BF00BF00BF00BF00BF00BF00BF00BF5B
:100DA00000BF00BF00BF00BF00BF00BF00BF00BF4B
:100DB00000BF00BF00BF00BF00BF00BF00BF00BF3B
:100DC00000BF00BF00BF00BF00BF00BF00BF00BF2B
:100DD00000BF00BF00BF00BF00BF013DC3D1946092
:100DE000244A166000BF00BF00BF00BF00BF00BFA5
:100DF00000BF00BF81422FD000BF00BF00BF00BFB7
:100E000000BF00BF00BF00BF00BF00BF00BF00BFEA
:100E100000BF00BF00BF00BF00BF00BF00BF00BFDA
:100E200000BF00BF00BF00BF00BF00BF00BF00BFCA
:100E300000BF00BF00BF00BF00BF00BF00BF00BFBA
:100E400000BF00BF00BF00BF00BF00BF00BF00BFAA
:100E500000BF00BF00BF00BF013BC3D1064B1E70E7
:100E600022E700BF0010014000E100E098060020EA
:100E70000024F400F8060020180700202DE9F04FA8
:100E800012F0030402D00720BDE8F08F002AFAD048
:100E9000614D624EDFF88CC1DFF88C814FF4803EEB
:100EA0004FF400374FF00109C6F88070C5F848E3E9
:100EB0002F27C5F808E3C5F80490DCF800C0BE464B
:100EC00000BF00BF00BF00BF00BF00BF00BF00BF2A
:100ED000C4452FD000BF00BF00BF00BF00BF00BF90
:100EE00000BF00BF00BF00BF00BF00BF00BF00BF0A
:100EF00000BF00BF00BF00BF00BF00BF00BF00BFFA
:100F000000BF00BF00BF00BF00BF00BF00BF00BFE9
:100F100000BF00BF00BF00BF00BF00BF00BF00BFD9
:100F200000BF00BF00BF00BF00BF00BF00BF00BFC9
:100F300000BF00BFBEF1010EC2D1DFF8F0E0C5F87E
:100F40000890CEF8004000BF00BF00BF00BF00BF48
:100F500000BF00BF00BFC4452FD000BF00BF00BF0F
:100F600000BF00BF00BF00BF00BF00BF00BF00BF89
:100F700000BF00BF00BF00BF00BF00BF00BF00BF79
:100F800000BF00BF00BF00BF00BF00BF00BF00BF69
:100F900000BF00BF00BF00BF00BF00BF00BF00BF59
:100FA00000BF00BF00BF00BF00BF00BF00BF00BF49
:100FB00000BF00BF00BF00BF00BF013FC3D1DFF8CB
:100FC00070C0DFF870B0164FDFF86CA0DFF86C90DF
:100FD000DFF86C808CF80040CBF800304FF4801CB8
:100FE000E023B9703C707C70CAF8004089F800407A
:100FF00088F80040C6F880C186F81433C6F800C0EF
:10100000C5F8080586F81133D5F80435CEF8003058
:101010007A602046BDE8F08F0010014000E100E05A
:1010200008070020980600200024F400F80600209D
:101030001807002000070020FC06002004070020FD
:1010400005070020074B5B6823B12AB120B1036874
:10105000187C18B1082070470720704759745A61EE
:10106000704700BF080700202DE9F041244C636859
:101070002BB120B1042905D80720BDE8F081082054
:10108000BDE8F0814369002BF9D0437C0546012B74
:101090004FF000000CBF8846804617460E4600F011
:1010A00087F96378A07821785A1CD2B2904208BFA1
:1010B000002291421ED003EB43036068DB00C1189D
:1010C00018D04FF0010E00F803E00E4B4D60D3F83E
:1010D00004358B60CE60C1F810804F6100206270D3
:1010E00000F06EF9084B4FF48012C3F80021002085
:1010F000BDE8F081002000F063F90420BDE8F08134
:10110000080700200010014000E100E0F8B5184D8C
:101110006B6833B328B343691BB3002606740446D7
:10112000304600F045F96B78A87829785A1CD2B27D
:10113000904208BF3246914215D003EB43036968E1
:10114000DB00CF180FD00220C85430467C606A7094
:1011500000F036F9074B4FF48012C3F800213046F7
:10116000F8BD0820F8BD002000F02AF90420F8BDE1
:101170000807002000E100E030B50478012C83B0BE
:101180001FD010D3022C0CD1C368264926480193E6
:1011900001228DF8004006F041F8244B68461B6898
:1011A000984703B030BD22482249FFF70DFB28B312
:1011B00002A8032300F8083D1C4B1B68984703B0A6
:1011C00030BD43681C4D19782846FFF7E5FAD8B9B9
:1011D000AA68EB689A4206D002AB144A03F8080DDD
:1011E000126818469047A968EB68AA885B1A9A4269
:1011F00012D2124B01221A7003B030BD0D490A48B9
:10120000012205F045FFCCE7084B01908DF8004026
:101210001B6868469847E6E702490348012205F043
:10122000FDFFBEE7240700208C06002020070020D9
:10123000280700201C0700203C070020380700205A
:101240002DE9F047314C88B022600C46002954D07B
:10125000814609682E48A2889846FFF78DFA10B19A
:1012600008B0BDE8F0872B48A168A289FFF784FA8F
:101270000028F5D1284C99F810A099F811C0D9F898
:101280001460D9F80C500FCC6F460FC794E80F00CC
:101290001AF1000E87E80F0018BF4FF0010ED9F8C1
:1012A0000070D9F80430D9F808401C481C4A8DF861
:1012B0001C80BCF1000F14BF4FF00E0C4FF0000C5F
:1012C00069468DF814E08DF815C0069602950394D2
:1012D0008DE8880005F0EEFD0028C1D1D9F8003076
:1012E000104A01331070BBD09DF81D304BB10E4930
:1012F0000A48012205F092FFB2E7072008B0BDE8D6
:10130000F087064806F0B4F8F1E700BF2007002098
:101310003C070020280700208CA800008C06002035
:1013200079110000380700202407002070B50B4C0D
:1013300001460B482678FFF747FA05460EB92846BE
:1013400070BD0023074808492370012205F066FF9D
:101350000028F4D0FFF7EEF9284670BD38070020CA
:101360003C0700208C0600202407002010B5014611
:101370000C48FFF711FA044608B1204610BD0A4890
:1013800005F040FF0028F8D106480849FFF71CFA8D
:101390000028F2D1044805490122BDE8104005F0BB
:1013A00077BE00BF280700208C0600201C07002005
:1013B00072B6024A13680133136070474C0700206D
:1013C000034A1368013B136003B962B6704700BF5C
:1013D0004C07002070B5044600200E46FFF7E8FFDA
:1013E0002368A2685D6895420ED219686A1C8A4219
:1013F00017D05A60E268531E072B4DD8DFE803F080
:101400001E314C3F4C4C4C441A6812B100225A60B9
:10141000F0E7227C42B104240020FFF7D1FF2046F0
:1014200070BD217C0029F6D15A602268A16813683A
:101430008B4234BF013300231360DBE763683278EB
:101440005A5521684B680D68AB4213D35B1B8A6801
:101450009A4238BF8B6000240020FFF7B1FF20467E
:1014600070BD6368328823F8152021684B680D68C9
:10147000AB42EBD25A1CA068531B0344E7E76368F6
:10148000326843F82520DCE76068D6E9002300EBEA
:10149000C500C0E90023D4E76068314605FB0200BF
:1014A00008F0E0FACDE700BFF8B504460020164684
:1014B0000F46FFF77DFF23681D685A6895420FD0DD
:1014C00026B9A268AA4288BF6E1C1E60E268531E3D
:1014D000072B35D8DFE803F01720342A3434340AD8
:1014E00005240020FFF76CFF2046F8BD616801EB82
:1014F000C505D5E900230024C7E900230020FFF734
:101500005FFF2046F8BD63685B5D3B7000240020F0
:10151000FFF756FF2046F8BD636833F815303B806F
:1015200000240020FFF74CFF2046F8BD636853F805
:1015300025303B6000240020FFF742FF2046F8BD25
:101540006168384605FB021108F08CFA002400207F
:10155000FFF736FF2046F8BD10B504460020FFF720
:1015600027FF206800210C22FEF7ECFF0020BDE8D9
:101570001040FFF725BF00BF70B5161E07DD0C46F3
:101580008D1914F8010BFFF7F1FEAC42F9D130468A
:1015900070BD00BF10B50C462046FFF7C7FE0528FA
:1015A000FAD0012010BD00BF4FF0A043044AD3F889
:1015B0000435125CD34003F0010080F00100704755
:1015C000B0A80000044B195C4FF0A04201238B40EF
:1015D000C2F80C35704700BFB0A80000044B195C7E
:1015E0004FF0A04201238B40C2F80835704700BF7E
:1015F000B0A800004FF0A04310B44FF480204FF487
:1016000000344FF400214FF48012C3F80845C3F8AA
:101610000805C3F80815C3F808255DF8044B7047A2
:101620004FF0A04310B44FF480204FF400344FF437
:1016300000214FF48012C3F80C45C3F80C05C3F821
:101640000C15C3F80C255DF8044B7047074B4FF0A1
:10165000A041185CD1F804350122824022EA03003F
:101660001340C1F80805C1F80C357047B0A8000058
:1016700030B44FF0A04303224FF400354FF48024E0
:101680004FF400204FF48011C3F84427C3F84827D3
:10169000C3F84C27C3F85027C3F80855C3F80845CA
:1016A000C3F80805C3F8081530BC70474FF0A043D5
:1016B000044AD3F81035125CD34003F0010080F0E7
:1016C00001007047ACA800000D2809D00E2809D0F1
:1016D0000F2809D0102814BF4FF0FF3003207047A7
:1016E000002070470120704702207047014B185CB2
:1016F000704700BFACA8000070B40A4B9A7832B1B2
:1017000093F8262012B1042070BC7047012202EB2E
:10171000C204A4001D1901261853AE7000200A60EF
:10172000F2E700BFFC160020094B1A88824206D05F
:101730009A8C824208BF012202D005207047002205
:10174000D1000A4403EB820300209870704700BF69
:10175000FC1600200B4B1A88824205D09B8C094A4C
:10176000834208D0052070479A78012AF6D10023D9
:101770000B600020704792F82630012BF8D005202E
:10178000704700BFFC160020194B1A88824222D0F5
:101790009A89824221D01A8B824220D09A8C82422E
:1017A0001FD01A8E82421ED09A8F82421DD0B3F86B
:1017B0004820824207D0B3F85420824208BF072253
:1017C00002D005207047062202EB420203EB82039F
:1017D0000020987070470022F6E70122F4E7022209
:1017E000F2E70322F0E70422EEE70522ECE700BF70
:1017F0004417002010B42C4B1A88824221D09A89B9
:10180000294C824224D01A8B274C824227D09A8CB2
:10181000254C824228D01A8E234C82422AD09A8F9D
:10182000214C82422CD0B3F848201F4C82422DD04C
:10183000B3F854301C4A83422ED005205DF8044B87
:1018400070479A78012ADAD100220A600020F5E771
:10185000A27B012AF9D01A8B134C8242D7D1A27EE7
:10186000012AD4D10222F0E794F82620012AD2D10D
:101870000322EAE794F83220012AD0D10422E4E7D7
:1018800094F83E20012ACED10522DEE794F84A20C2
:10189000012ACDD10622D8E792F85630012B08BF95
:1018A0000722CAD1D1E700BF4417002000B583B09A
:1018B000054A01AB00F0F6FB08B1FEF73BFF0198CB
:1018C00003B05DF804FB00BF5007002000B583B0F3
:1018D000054A01AB00F082FB08B1FEF72BFF01982F
:1018E00003B05DF804FB00BF5007002000B583B0D3
:1018F00001AA00F03DFB08B1FEF71CFF019803B000
:101900005DF804FB70B5064684B00D4602A80DF1E3
:10191000060104F089FD0028F8D1029A0D4B1070E1
:10192000BDF80640029A1D60013C3046013229464E
:1019300003AB039400F080FB08B1FEF7FBFE039BB2
:101940000298054A013399B2039304F07BFD04B079
:1019500070BD00BF50070020AD1800002DE9F04118
:10196000804686B00F46154604A80DF10E0104F01E
:101970005BFD0028F8D1049B0E4A1870BDF80E409C
:10198000049B156005AE013C4046394601332A46AA
:101990000096059400F0F0FA08B1FEF7CBFE059B27
:1019A0000498054A013399B2059304F04BFD06B043
:1019B000BDE8F08150070020CD18000010B50446A6
:1019C00084B002A80DF1060104F02EFD0028F8D124
:1019D000029B0D4A1870BDF8063002991460013B55
:1019E0000131204603AA039300F09AFA08B1FEF7EA
:1019F000A1FE039B0298054A013399B2039304F0B8
:101A000021FD04B010BD00BF50070020ED180000FC
:101A100000B583B001AA00F0CDFC08B1FEF78AFE44
:101A2000019803B05DF804FB00B583B001AA00F093
:101A300039FD08B1FEF77EFE019803B05DF804FBA6
:101A400010B582B002AB0C4C002243F8042D226882
:101A500000F0A4FD18B9019830B902B010BDFEF72E
:101A600069FE01980028F8D0A088FFF75DFE0028E5
:101A7000F3D1019802B010BD5C07002000B583B01F
:101A800002AA002342F8043D00F0DAFC08B1FEF798
:101A900051FE019803B05DF804FB00BF00B583B0B0
:101AA00002AA002342F8043D00F028FD08B1FEF729
:101AB00041FE019803B05DF804FB00BF70B582B031
:101AC000002306460D460193684601A904F0ACFCCC
:101AD0000028F9D1009B1870BDF80440009A013C21
:101AE0003046294601AB0132ADF8044000F030FC2D
:101AF00008B1FEF71FFE9DE809000133034A019378
:101B000099B204F09FFC02B070BD00BF111A000032
:101B100070B582B0002306460D460193684601A9C0
:101B200004F082FC0028F9D1009B1870BDF8044035
:101B3000009A013C3046294601AB0132ADF8044021
:101B400000F082FC08B1FEF7F5FD9DE809000133C5
:101B5000034A019399B204F075FC02B070BD00BF56
:101B6000291A0000F0B587B04FF0000E05460F4669
:101B700016461C46CDF810E0CDF814E003A804A9E1
:101B800004F052FC0028F9D1039B1B4A1870BDF8E1
:101B900010301460013BADF8103095808CB12846B0
:101BA00005A9FFF7A9FD08B107B0F0BD059B1348D3
:101BB00003EBC30300EB830004302146202207F02F
:101BC00051FF039B04AA03F1010E019228463946F6
:101BD00032462346CDF800E000F094FC48B9049B5F
:101BE0000398074A013399B2049304F02BFC07B021
:101BF000F0BDFEF79FFDF2E75C070020FC16002019
:101C0000411A00002DE9F04184B0002380460F46C0
:101C10001646039303AC02A8214604F005FC0028F5
:101C2000F9D1029B1870BDF80C50029B00944046FD
:101C30006C1E394632460133ADF80C4000F0BEFB55
:101C400008B1FEF777FD039B0298044A013399B26D
:101C5000039304F0F7FB04B0BDE8F0817D1A0000A7
:101C600010B582B0002304460193684601A904F030
:101C7000DBFB0028F9D1009B1870BDF804300099F7
:101C8000013B204601AA0131ADF8043000F00EFC02
:101C900008B1FEF74FFD9DE809000133034A0193A7
:101CA00099B204F0CFFB02B010BD00BF9D1A000036
:101CB00000B583B001AA01F037FF08B1FEF73AFD85
:101CC000019803B05DF804FB00B583B001AA01F0F0
:101CD000B7FE08B1FEF72EFD019803B05DF804FBD6
:101CE00000B583B001AA01F0E1FE08B1FEF722FDC4
:101CF000019803B05DF804FB00B583B001AA01F0C0
:101D000049FF08B1FEF716FD019803B05DF804FB2A
:101D10002DE9F04184B0002380460F461646039318
:101D200003AC02A8214604F07FFB0028F9D1029BF6
:101D30001870BDF80C50029B009440466C1E39464A
:101D400032460133ADF80C4001F0B4FE08B1FEF7A5
:101D5000F1FC039B0298044A013399B2039304F007
:101D600071FB04B0BDE8F081B11C000070B582B019
:101D7000002306460D460193684601A904F054FB72
:101D80000028F9D1009B1870BDF80440009A013C6E
:101D90003046294601AB0132ADF8044001F01EFE89
:101DA00008B1FEF7C7FC9DE809000133034A01931F
:101DB00099B204F047FB02B070BD00BFC91C00001F
:101DC00070B582B0002306460D460193684601A90E
:101DD00004F02AFB0028F9D1009B1870BDF80440DC
:101DE000009A013C3046294601AB0132ADF804406F
:101DF00001F02AFE08B1FEF79DFC9DE809000133C1
:101E0000034A019399B204F01DFB02B070BD00BFFC
:101E1000E11C000070B582B0002306460D46019318
:101E2000684601A904F000FB0028F9D1009B187056
:101E3000BDF80440009A013C3046294601AB01320E
:101E4000ADF8044001F074FE08B1FEF773FC9DE8A4
:101E500009000133034A019399B204F0F3FA02B086
:101E600070BD00BFF91C000000B583B001AA02F0EC
:101E7000A7FD08B1FEF75EFC019803B05DF804FB16
:101E800070B582B0002306460D460193684601A94D
:101E900004F0CAFA0028F9D1009B1870BDF804407C
:101EA000009A013C3046294601AB0132ADF80440AE
:101EB00002F05AFD08B1FEF73DFC9DE80900013330
:101EC000034A019399B204F0BDFA02B070BD00BF9D
:101ED000691E000000B583B000230193684601A984
:101EE00004F0A2FA0028F9D1009B1870BDF8043064
:101EF0000098013B01A90130ADF8043003F086FBE6
:101F000008B1FEF717FC03F023FC9DE8090001333C
:101F100099B20022019304F095FA03B05DF804FB36
:101F2000A9B1A2B1F0B585B00546176804A8602331
:101F3000144600F8053D4FF0000E3A4603AB0E463E
:101F4000CDF80CE003F0B0F818B105B0F0BD0E20EC
:101F50007047064B0093284631463A4603AB03F0E0
:101F60000DFB0028F1D1039B2360EEE7B554000080
:101F70001346602203F02EB82DE9F04385B00C9C87
:101F800043B33CB38146D4F8008004A81D466423C3
:101F900017460E4600F8053D4FF0000E424603ABD3
:101FA0002946CDF80CE003F07FF8A0B903AB00930D
:101FB000304649462A46434603F0A6F858B90090F1
:101FC00029463846424603AB03F0D8FA18B9039BBA
:101FD000236000E00E2005B0BDE8F083E0B1DBB186
:101FE0002DE9F04184B004AD1C46002345F8043DC2
:101FF0000E4690460094294632466423074602F076
:10200000BDFF30B923684BB1039BB34214BF092015
:10201000002004B0BDE8F0810E207047054B00930E
:1020200038462A464346314603F0C2FA0028EBD030
:10203000EFE700BFC5530000D2B1CBB12DE9F041AD
:102040001D4684B00646D5F8008004A814466323D4
:102050000F4600F8053D4FF0000E424603AB214607
:10206000CDF80CE003F020F820B104B0BDE8F08119
:102070000E2070470A4B009330462146424603AB80
:1020800003F07CFA0028F0D1009021463846424601
:1020900003AB03F073FA0028E7D1039B2B60E4E75E
:1020A000F953000040B33BB32DE9F04184B004ADD7
:1020B0001C46002345F8043D0E46904600942946F0
:1020C00032466323074602F059FF90B923685BB993
:1020D000B8F1000F12D00A4B009338462A46434607
:1020E000314603F065FA20B9039BB34214BF0920BF
:1020F000002004B0BDE8F0810E2070470E20F8E704
:10210000CD50000068B1F8B51C4643B1012904D98F
:10211000154622B11E68032E05D80920F8BD0E20F1
:10212000F8BD0E207047371F1F6090F801E0077858
:1021300047EA0E2707F1FF3E1FFA8EFEBEF16F0F32
:1021400011D8DFF82CC05CF82EC0BCF1000F0AD00B
:1021500002300239E04723680433236028B92F8016
:1021600023886B80F8BD2660052000232B80F8E7CC
:10217000B4A80000F0B585B00024029440B13BB192
:10218000D3F800E0BEF10F0F05D8092005B0F0BD6F
:102190000E2005B0F0BD1C4613461646AEF11002E7
:1021A0004FF0030E226023F804EB02AA0D46074607
:1021B00002F066FF0028E9D13846294602AA06F156
:1021C000080302F083FF0028E0D13846294602AA1E
:1021D00006F1100302F054FF0028D7D133464FF028
:1021E000FF3243F80C2F2946009002AA384603F02C
:1021F000DFF90028CAD1F3686BB1B08803A9FFF7F3
:10220000F9FA0028C2D1039B084A03EB430302EB0F
:1022100083035B68F360B088FFF7B6FA0028B5D196
:10222000029BAB42B1D110232360AFE744170020DB
:102230002DE9F04182B00024019438B133B11D681A
:10224000042D07D8092002B0BDE8F0810E2002B0AD
:10225000BDE8F0811C4613469046053D01222560ED
:1022600023F8042B01AA0E46074602F009FF0028B6
:10227000E9D1384601AA08F10803314602F026FFE9
:102280000028E0D1019BB342DCD105232360DAE7CB
:102290002DE9F04182B00024019438B133B11D68BA
:1022A000042D07D8092002B0BDE8F0810E2002B04D
:1022B000BDE8F0811C4613469046053D022225608C
:1022C00023F8042B01AA0E46074602F0D9FE002887
:1022D000E9D1384601AA08F10803314602F0F6FEBA
:1022E0000028E0D1019BB342DCD105232360DAE76B
:1022F0002DE9F04182B00024019438B133B11D685A
:102300000B2D07D8092002B0BDE8F0810E2002B0E5
:10231000BDE8F0811C46134690460C3D0422256022
:1023200023F8042B6A440E46074602F0A9FE002853
:10233000E9D1384601AA08F10803314603F0F6F85E
:102340000028E0D1019BB342DCD10C232360DAE703
:10235000F0B587B0ADF80E0032B32BB31D4606A81A
:102360002F68144675230E4600F8053D4FF0000E09
:102370003A4605AB2146CDF814E002F095FEA0B92F
:102380000DF10E0021463A4605AB02F063FE60B93E
:10239000074B0093304621463A4605AB03F0EEF872
:1023A00018B9059B2B6000E00E2007B0F0BD00BF00
:1023B000513600001346752202F00CBE2DE9F043A1
:1023C00085B00C9C93B38CB38146D4F8008004A8EC
:1023D0001D468C2317460E4600F8053D4FF0000EB3
:1023E000424603AB2946CDF80CE002F05DFEF0B9A1
:1023F000104B009348462946424603AB03F0BEF813
:10240000A8B90D4B009330462946424603AB03F072
:10241000B5F860B9094B009338462946424603ABEC
:1024200003F0ACF818B9039B236000E00E2005B060
:10243000BDE8F083192D0000B936000051360000C8
:1024400013468C2202F0C6BDF0B585B0ADF806008B
:102450008DF8051012B30BB31D4604A82E68144660
:10246000762300F8053D0027324603AB214603974B
:1024700002F01AFE98B90DF106002146324603AB70
:1024800002F0E8FD58B92146324603AB0DF10500D4
:1024900002F00AFE18B9039B2B6000E00E2005B085
:1024A000F0BD00BF1346762202F094BDA9B1A2B1DF
:1024B000F0B585B00546176804A88A23144600F8CD
:1024C000053D4FF0000E3A4603AB0E46CDF80CE04A
:1024D00002F0EAFD18B105B0F0BD0E207047064BC2
:1024E0000093284631463A4603AB03F047F80028EC
:1024F000F1D1039B2360EEE7B936000013468A2230
:1025000002F068BD2DE9F04186B00C9DADF80E00DB
:102510008DF80D100D9C002D37D0002C35D006A85D
:1025200027681E467F23904600F8053D4FF0000EB9
:102530003A4605AB2946CDF814E002F0B5FD28BBBC
:102540000DF10E0029463A4605AB02F083FDE8B9CD
:102550000DF10D0029463A4605AB02F0A5FDA8B9DC
:102560000C4B0093404629463A4605AB03F006F86B
:1025700060B9094B0093304629463A4605AB02F054
:10258000FDFF18B9059B236000E00E2006B0BDE8F2
:10259000F08100BF8534000015370000F0B587B02A
:1025A0000392B8B1B3B106AD1C46002345F8043D13
:1025B0000E460094294632467F23074602F0DEFC91
:1025C00048B923684BB1059BB34214BF09200020D2
:1025D00007B0F0BD0E2007B0F0BD054B00933846A4
:1025E0002A46314603AB02F0E3FF0028EBD0F2E7C6
:1025F000F13700002DE9F04182B00024019438B198
:1026000033B11D68322D07D8092002B0BDE8F08132
:102610000E2002B0BDE8F0811C4613469046333DC3
:102620001D22256023F8042B01AA0E46074602F05E
:1026300027FD0028E9D1384601AA08F108033146F0
:1026400000F04CFD0028E0D1019BB342DCD13323E4
:102650002360DAE72DE9F04182B00024019438B11B
:1026600033B11D68042D07D8092002B0BDE8F08100
:102670000E2002B0BDE8F0811C4613469046053D91
:102680001722256023F8042B01AA0E46074602F004
:10269000F7FC0028E9D1384601AA08F108033146C1
:1026A00002F014FD0028E0D1019BB342DCD10523E8
:1026B0002360DAE72DE9F04182B00024009440B1B4
:1026C0003BB11D68092D09D80925284602B0BDE88F
:1026D000F0810E25284602B0BDE8F0811C46134665
:1026E00090460A3D1922256023F8042B6A460E46BF
:1026F000074602F0C5FC40BB384631466A4608F141
:10270000080300F069FD05460028DED1B8F8040092
:1027100001A9FFF71FF828B1009BB342D4D10A23C7
:102720002360D2E7019B0A4A03EBC30302EB830356
:1027300038466A460433314601F05AF828B9B8F8E9
:102740000400FEF7F1FF0028E6D00546BDE700BF14
:10275000FC1600202DE9F04182B00024019438B12C
:1027600033B11D680B2D07D8092002B0BDE8F081F8
:102770000E2002B0BDE8F0811C46134690460C3D89
:102780001222256023F8042B01AA0E46074602F008
:1027900077FC0028E9D1384601AA08F10803314640
:1027A00000F0FEFE0028E0D1019BB342DCD10C23F7
:1027B0002360DAE72DE9F04182B00024019438B1BA
:1027C00033B11D680B2D07D8092002B0BDE8F08198
:1027D0000E2002B0BDE8F0811C46134690460C3D29
:1027E0001F22256023F8042B01AA0E46074602F09B
:1027F00047FC0028E9D1384601AA08F10803314610
:1028000000F0FAFE0028E0D1019BB342DCD10C239A
:102810002360DAE72DE9F04182B00024019438B159
:1028200033B11D68052D07D8092002B0BDE8F0813D
:102830000E2002B0BDE8F0811C4613469046063DCE
:102840001F22256023F8042B01AA0E46074602F03A
:1028500017FC0028E9D1384601AA08F108033146DF
:1028600000F03CFD0028E0D1019BB342DCD10623FF
:102870002360DAE72DE9F04182B00024019438B1F9
:1028800033B11D68132D07D8092002B0BDE8F081CF
:102890000E2002B0BDE8F0811C4613469046143D60
:1028A0001022256023F8042B01AA0E46074602F0E9
:1028B000E7FB0028E9D1384601AA08F108033146B0
:1028C00000F088FD0028E0D1019BB342DCD1142345
:1028D0002360DAE72DE9F04182B00024019438B199
:1028E00033B11D68042D07D8092002B0BDE8F0817E
:1028F0000E2002B0BDE8F0811C4613469046053D0F
:102900001122256023F8042B01AA0E46074602F087
:10291000B7FB0028E9D1384601AA08F1080331467F
:1029200000F0BEFE0028E0D1019BB342DCD10523BC
:102930002360DAE72DE9F04182B00024019438B138
:1029400033B11D68042D07D8092002B0BDE8F0811D
:102950000E2002B0BDE8F0811C4613469046053DAE
:102960001622256023F8042B01AA0E46074602F022
:1029700087FB0028E9D1384601AA08F1080331464F
:1029800002F0A4FB0028E0D1019BB342DCD1052377
:102990002360DAE7F0B587B00024049440B13BB17E
:1029A000D3F800E0BEF10B0F05D8092007B0F0BD49
:1029B0000E2007B0F0BD1C4613461546AEF10C02C2
:1029C0004FF0180E226023F804EB04AA0E460746C7
:1029D00002F056FB0028E9D1A88805A9FEF7BAFE47
:1029E0000028E3D1059B134A1349009103EBC3036D
:1029F00002EB83022B46126A43F8082F3846314611
:102A000004AA02F0D5FD0028D0D1384604AA3146E8
:102A10000DF10F0302F05AFB0028C7D12B7B9DF864
:102A20000F10049A61F30003B2422B73BDD10C2343
:102A30002360BBE7FC160020C92D00002DE9F04102
:102A400084B00024039438B133B11D680A2D07D82F
:102A5000092004B0BDE8F0810E2004B0BDE8F0818B
:102A60001C46134616460B3D1522256023F8042B01
:102A700003AA0F46804602F003FB0028E9D1062393
:102A800000934046394603AA06F1080302F02CFCE5
:102A90000028DED1404603AA39460DF10B0302F0AF
:102AA00015FB0028D5D1B37B9DF80B10039A61F379
:102AB0000003BA42B373CBD10B232360C9E700BF35
:102AC0002DE9F04182B00024019438B133B11D6882
:102AD000042D07D8092002B0BDE8F0810E2002B015
:102AE000BDE8F0811C4613469046053D1C2225603A
:102AF00023F8042B01AA0E46074602F0C1FA00286B
:102B0000E9D1384601AA08F10803314602F0DEFA9D
:102B10000028E0D1019BB342DCD105232360DAE732
:102B20002DE9F04182B00024019440B13BB11D6811
:102B30000B2D09D80925284602B0BDE8F0810E25E5
:102B4000284602B0BDE8F0811C46134690460C3D75
:102B50002022256023F8042B01AA0E46074602F026
:102B60008FFAB8B93846314601AA08F1090300F0D6
:102B70003BF905460028DED1384601AA08F10803D2
:102B8000314602F0A3FA28B9019BB342D2D10C23FB
:102B90002360D0E70546CEE72DE9F04182B000245E
:102BA000019438B133B11D68172D07D8092002B040
:102BB000BDE8F0810E2002B0BDE8F0811C4613464E
:102BC0009046183D1422256023F8042B01AA0E46D6
:102BD000074602F055FA0028E9D1384601AA08F163
:102BE0000803314600F0A0FB0028E0D1019BB3426E
:102BF000DCD118232360DAE72DE9F04182B000240C
:102C0000019438B133B11D68082D07D8092002B0EE
:102C1000BDE8F0810E2002B0BDE8F0811C461346ED
:102C20009046093D1322256023F8042B01AA0E4685
:102C3000074602F025FA0028E9D1384601AA08F132
:102C40000803314600F03CFC0028E0D1019BB34270
:102C5000DCD109232360DAE72DE9F04182B00024BA
:102C6000019438B133B11D68042D07D8092002B092
:102C7000BDE8F0810E2002B0BDE8F0811C4613468D
:102C80009046053D1E22256023F8042B01AA0E461E
:102C9000074602F0F5F90028E9D1384601AA08F103
:102CA0000803314600F018FE0028E0D1019BB34232
:102CB000DCD105232360DAE72DE9F04182B000245E
:102CC000019438B133B11D68042D07D8092002B032
:102CD000BDE8F0810E2002B0BDE8F0811C4613462D
:102CE0009046053D1B22256023F8042B01AA0E46C1
:102CF000074602F0C5F90028E9D1384601AA08F1D3
:102D00000803314602F0E2F90028E0D1019BB3420A
:102D1000DCD105232360DAE7D9B1F0B585B0ABB1DA
:102D2000A0B1044604A894F800E000F801ED1646AE
:102D30000F461D4602F0B8F948B90095601C3A46A6
:102D40003346062102F0B6FA05B0F0BD0E2005B0FC
:102D5000F0BD0E20704700BF79B173B110B582B0DD
:102D600040B11C46009413460A46102102F0A2FA14
:102D700002B010BD0E2002B010BD0E20704700BF83
:102D800079B173B110B582B040B11C4600941346BE
:102D90000A46402102F08EFA02B010BD0E2002B0A9
:102DA00010BD0E20704700BF60B130B583B032B1A6
:102DB0002BB11024009402F097FA03B030BD0E201E
:102DC00003B030BD0E20704760B130B583B032B172
:102DD0002BB14024009402F087FA03B030BD0E20DE
:102DE00003B030BD0E20704710B3F0B5144685B067
:102DF000DAB1D3B11D460DF10F0307460E4602F0BE
:102E000065F998B9062300933846314622466B1C73
:102E100002F06AFA50B99DF80F202B7862F3000394
:102E2000520862F347032B7000E00E2005B0F0BD9E
:102E30000E20704700293BD02DE9F04184B09BB3B0
:102E400090B304AC8046007804F8010D2046174684
:102E50000E461D4602F028F938BB98F8013020468E
:102E60003146C3F301043A462B468DF80F4002F079
:102E70001BF9D0B908F1080031463A462B4602F05A
:102E8000E9F890B908F10A0031463A462B4602F0BB
:102E9000E1F850B9D8F80400B8F8081000953246A7
:102EA0003B4602F0E9F900E00E2004B0BDE8F081F5
:102EB0000E207047E9B1E3B12DE9F041044684B03A
:102EC000C8B10D4616461F46009310212A463346C8
:102ED000804602F0EFF948B904A8237C00F8013DD0
:102EE000294632463B4602F0DFF840B104B0BDE867
:102EF000F0810E2070470E2004B0BDE8F0810097ED
:102F000008F111002A463346062102F0D3F9EDE715
:102F1000A0B12DE9F04184B062B15BB110240094FE
:102F200007461E461546884602F0DEF940B104B059
:102F3000BDE8F0810E2004B0BDE8F0810E2070479E
:102F4000384641462A460DF10F0302F0BFF800282B
:102F5000EDD19DF80F20337C510862F3000361F33B
:102F60004103920862F387033374384641462A4688
:102F700006F1120302F084F80028D8D1082438465C
:102F800041462A4606F11403009402F0ADF9CEE75B
:102F900099B193B12DE9F041044684B078B10D4662
:102FA00090461E46009310212A464346074602F0EB
:102FB00081F940B104B0BDE8F0810E2070470E20C9
:102FC00004B0BDE8F08104A8237C00F8013D294647
:102FD0004246334602F068F80028EBD104F11200B3
:102FE00029464246334602F035F80028E2D10096E1
:102FF00007F114002A464346082102F05BF9D9E79D
:1030000068B32DE9F04184B02AB323B310240094AF
:103010000F4680461E46154602F066F9E0B9404666
:1030200039462A460DF10F0302F050F8A0B90623E5
:103030000093404639462A4606F1110302F054F93E
:1030400050B99DF80F20337C62F30003520862F3FD
:103050004703337400E00E2004B0BDE8F0810E2079
:10306000704700BF2DE9F041044682B001300D46A3
:1030700017461E4602F018F810B102B0BDE8F08104
:10308000A01C29463A46334602F00EF80028F4D137
:10309000E31C1ED0EDB1E6B1E3780DF1080803F0B2
:1030A0000F0308F8013D294640463A46334601F0F1
:1030B000FBFF0028E1D12479404604F00F042946A3
:1030C0003A4633468DF8074001F0EEFF02B0BDE806
:1030D000F0810E2002B0BDE8F08100BFE0B12DE923
:1030E000F041154684B09AB193B11C464FF01F0CC5
:1030F00004F1100E0DF10B030E4607468DF80AC0C1
:10310000CDF80CE001F0E2FF40B104B0BDE8F08181
:103110000E2004B0BDE8F0810E2070474FF0060885
:10312000CDF80080384631462A46631C02F0DCF8B0
:103130000028EAD19DF80B20237862F3000352089F
:1031400062F347032370384631462A460DF10B03DC
:1031500001F0BCFF0028D8D1CDF8008038463146B8
:103160002A4604F1080302F0BFF80028CDD19DF8EB
:103170000B20E37962F30003520862F34703E37123
:10318000384631462A4604F10E0301F09FFF00281D
:10319000BBD10DF10B03384631462A4601F096FFAC
:1031A0000028B2D10DF10A030093384631462A4671
:1031B00003AB01F0CDFF0028A7D19DF80B20E37BE6
:1031C0009DF80A1062F30003520862F3420361F3B0
:1031D000C703E37399E700BF00287DD02DE9F041D4
:1031E000154682B0002A73D01E46002B70D00F46C1
:1031F000804601F06BFF00286BD1404639462A46D5
:103200000DF1030301F062FF002862D19DF8032055
:10321000737862F30103920862F38203737040468D
:1032200001AB39462A4601F051FF002851D1019ADD
:10323000B378510862F3000361F34103910861F32D
:103240008203D20862F3C303B370404639462A466C
:1032500001AB01F03BFF00283BD1019AF378510804
:1032600062F3000361F34103910861F38203D20822
:1032700062F3C303F370404639462A4601AB01F0BE
:1032800025FF30BB9DF8043034795A0863F30004FD
:1032900062F341049A0862F38204DB0863F3C30417
:1032A000404639462A4601AB347101F00FFF80B920
:1032B0009DF804207379510862F3000361F3410320
:1032C000910861F38203D20862F3C303737100E0D3
:1032D0000E2002B0BDE8F0810E20704708B3F0B5B3
:1032E000144683B0D2B1CBB11D460DF1070306469B
:1032F0000F4601F0EBFE78B99DF807302A781909DE
:1033000063F303022B4661F3071203F8012B3046E7
:103310003946224601F0DAFE03B0F0BD0E2003B0BC
:10332000F0BD0E20704700BFA0B12DE9F04114465A
:1033300084B05AB153B11E460DF10F0388460746BB
:1033400001F0C4FE40B104B0BDE8F0810E2004B02D
:10335000BDE8F0810E2070470623009338464146B1
:103360002246731C01F0C0FF0028ECD19DF80F30FD
:103370003278590863F30002334661F3470203F8D9
:10338000082B38464146224601F07AFE0028DAD161
:103390000823009338464146224606F10A0301F00D
:1033A000A3FF0028CFD13846414622460DF10F0336
:1033B00001F08CFE0028C6D19DF80F20B37C510887
:1033C00062F3000361F34103920862F38203B37472
:1033D000B9E700BFA0B12DE9E041154685B05AB16B
:1033E00053B11E460DF10F030F46804601F06EFEED
:1033F00040B105B0BDE8E0810E2005B0BDE8E08138
:103400000E20704706230093404639462A46731C17
:1034100001F06AFF0028ECD19DF80F30327859088E
:1034200063F30002334661F3470203F8072B40467B
:1034300039462A4601F04AFE0028DAD1404639468C
:103440002A4606F1080301F01BFE0028D1D14046B0
:1034500039462A4606F10A0301F012FE0028C8D1B7
:10346000404639462A4606F10C0301F009FE0028C1
:10347000BFD1404639462A4606F10E0301F000FE50
:10348000B7E700BFD1B1F0B583B0A3B198B104469E
:1034900002A894F800E000F801ED16460F461D461C
:1034A00001F002FE40B92046394632462B46FFF76E
:1034B000D9FD03B0F0BD0E2003B0F0BD0E20704763
:1034C000A8B12DE9F041144682B062B15BB11E464D
:1034D0000DF1060388460746154601F0F7FD40B199
:1034E00002B0BDE8F0810E2002B0BDE8F0810E20F0
:1034F0007047384641462246731C01F0E7FD00281C
:10350000EED1384641462246B31C01F0DFFD0028CB
:10351000E6D10DF1070338464146224601F0D6FDBB
:103520000028DDD19DF80730F4785A0863F30004D1
:1035300062F341049A0862F38204DB0863F3C30474
:10354000384641462A460DF10703F47001F0BEFDEE
:103550000028C5D19DF8061033789DF807403279D0
:103560004D0861F3000365F341038D08CF0865F34F
:10357000820364F30002650867F3C30365F3410245
:103580000F09A50867F3061365F38202C909E40869
:1035900061F3C71364F3C30233703271A0E700BF55
:1035A00078B12DE9F041144642B13BB107461E46C1
:1035B000884601F065FD30B1BDE8F0810E20BDE820
:1035C000F0810E207047384641462246B31C01F078
:1035D00057FD0028F0D1384641462246331D01F000
:1035E0004FFD0028E8D1384641462246B31DBDE8CC
:1035F000F04101F045BD00BF78B12DE9F04114461E
:1036000042B13BB107461E46884601F039FD30B154
:10361000BDE8F0810E20BDE8F0810E2070473846ED
:1036200041462246B31C01F02BFD0028F0D138465C
:1036300041462246331D01F023FD0028E8D13846DB
:1036400041462246B31DBDE8F04101F019BD00BF5F
:1036500019B32DE9F0411D46E3B10446D0B1174638
:103660000E4601F0F7FCB0B9A01C31463A462B4695
:1036700001F0F0FC78B9201D31463A462B4601F0A6
:10368000E9FC40B9A01D31463A462B46BDE8F04161
:1036900001F0E0BC0E20BDE8F0810E20704700BFB5
:1036A00040B130B41AB113B130BC01F00FBD0E20DF
:1036B00030BC70470E20704749B3F0B51C4683B04C
:1036C00013B308B390F800E0054602A80EF0070E09
:1036D00000F801ED0E46174601F0E6FCA8B9A81C5B
:1036E00031463A46234601F0B5FC70B9281D3146F3
:1036F0003A46234601F0AEFC38B9A81D31463A4699
:10370000234601F0A7FC00E00E2003B0F0BD0E2020
:10371000704700BFB9B12DE9F04F1D4683B073B1BA
:1037200068B1DFF8BC8004460068CDF8008016461A
:103730000F4601F023FF40B103B0BDE8F08F0E202B
:1037400003B0BDE8F08F0E207047DFF898906068F6
:10375000CDF80090394632462B4601F00FFF002885
:10376000EAD1DFF884A0A068CDF800A0394632463F
:103770002B4601F003FF0028DED1DFF870B0E068CF
:10378000CDF800B0394632462B4601F0F7FE00284E
:10379000D2D1CDF800802069394632462B4601F05F
:1037A000EDFE0028C8D16069CDF800903946324658
:1037B0002B4601F0E3FE0028BED1A069CDF800A0A1
:1037C000394632462B4601F0D9FE0028B4D1E069D3
:1037D000CDF800B0394632462B4601F0CFFEABE7BC
:1037E000912F0000B52E0000592D0000812D000002
:1037F000B0B12DE9F04F144683B06AB11D465BB1FC
:10380000DFF8C480CDF800800E46074601F0D0FEF8
:1038100040B103B0BDE8F08F0E2003B0BDE8F08FDB
:103820000E207047DFF8A490CDF80090384631465E
:1038300022462B1D01F0BCFE0028EAD1DFF890A043
:10384000CDF800A038463146224605F1080301F0C4
:10385000AFFE0028DDD1DFF87CB0CDF800B03846EF
:103860003146224605F10C0301F0A2FE0028D0D11A
:10387000CDF8008038463146224605F1100301F0AC
:1038800097FE0028C5D1CDF8009038463146224633
:1038900005F1140301F08CFE0028BAD1CDF800A088
:1038A00038463146224605F1180301F081FE002812
:1038B000AFD1CDF800B038463146224605F11C03A1
:1038C00001F076FEA5E700BF112F000001300000D7
:1038D000A92D0000C92D0000E8B110B582B0BAB121
:1038E000B3B11C460DF1070301F0F0FB88B99DF858
:1038F00007302278590863F3000261F34102990806
:1039000061F38202DB0863F3C302227002B010BDD0
:103910000E2002B010BD0E20704700BF21B3F0B5DD
:103920001D4683B0EBB10446D8B117460E4601F0F0
:10393000BBFBB8B9601C31463A462B4601F0B4FBDC
:1039400080B9A01C31463A462B4601F0ADFB48B980
:10395000064B6068009331463A462B4601F00EFE56
:1039600000E00E2003B0F0BD0E207047352E0000A1
:1039700030B310B582B002B3FBB11C460DF10703A2
:1039800001F0A4FBD0B99DF807302278590863F301
:10399000000261F34102990861F38202D90861F3E0
:1039A000C302190961F30412590961F345129B0915
:1039B00063F38612227002B010BD0E2002B010BD5B
:1039C0000E20704741B130B41BB110B130BC01F0D2
:1039D00041BB0E2030BC70470E207047F0B587B059
:1039E000ADF80E0032B32BB31D4606A82F6814465F
:1039F00096230E4600F8053D4FF0000E3A4605AB03
:103A00002146CDF814E001F04FFBA0B90DF10E00F6
:103A100021463A4605AB01F01DFB60B9074B009308
:103A2000304621463A4605AB01F0A8FD18B9059B82
:103A30002B6000E00E2007B0F0BD00BFC5430000C2
:103A40001346962201F0C6BAF0B587B0ADF80E0065
:103A500032B32BB31D4606A82F68144697230E4693
:103A600000F8053D4FF0000E3A4605AB2146CDF873
:103A700014E001F019FBA0B90DF10E0021463A4601
:103A800005AB01F0E7FA60B9074B009330462146D9
:103A90003A4605AB01F072FD18B9059B2B6000E0BA
:103AA0000E2007B0F0BD00BFC543000013469722AB
:103AB00001F090BAF0B587B0ADF80E00ADF80C107B
:103AC0000C9C63B35CB306A827681D469423164676
:103AD00000F8053D4FF0000E3A4605AB2946CDF8FB
:103AE00014E001F0E1FAD8B90DF10E0029463A468A
:103AF00005AB01F0AFFA98B903A829463A4605ABE1
:103B000001F0A8FA60B9074B0093304629463A46BF
:103B100005AB01F033FD18B9059B236000E00E20D2
:103B200007B0F0BD915300001346942201F052BA41
:103B3000F0B587B0ADF80E0032B32BB31D4606A822
:103B40002F6814469C230E4600F8053D4FF0000EEA
:103B50003A4605AB2146CDF814E001F0A5FAA0B92C
:103B60000DF10E0021463A4605AB01F073FA60B93B
:103B7000074B0093304621463A4605AB01F0FEFC68
:103B800018B9059B2B6000E00E2007B0F0BD00BF08
:103B9000A544000013469C2201F01CBA2DE9F04117
:103BA00084B00024029438B133B11D681B2D07D8AE
:103BB000092004B0BDE8F0810E2004B0BDE8F0811A
:103BC0001C46134690461C3D3422256023F8042BE6
:103BD00002AA0E46074601F053FA0028E9D13846FA
:103BE000314602AA08F1060301F04AFA0028E0D1A2
:103BF0003846314602AA08F1080301F041FA0028CC
:103C0000D7D104AB226843F8042D08F10A020092D0
:103C1000384602AA314600F073FC0028C9D1236857
:103C2000039A02999B1AB1422360C1D11C322260CF
:103C3000BFE700BF2DE9F04184B00024029438B101
:103C400033B11D68112D07D8092004B0BDE8F081FB
:103C50000E2004B0BDE8F0811C4613469046123D8C
:103C60003222256023F8042B02AA0E46074601F0F3
:103C700007FA0028E9D13846314602AA08F10603BE
:103C800001F0FEF90028E0D13846314602AA08F1D9
:103C9000080301F0F5F90028D7D104AB226843F8F6
:103CA000042D08F10A020092384602AA314600F0BB
:103CB00083FC0028C9D12368039A02999B1AB14258
:103CC0002360C1D112322260BFE700BF2DE9F0416D
:103CD00084B00024029438B133B11D680B2D07D88D
:103CE000092004B0BDE8F0810E2004B0BDE8F081E9
:103CF0001C46134690460C3D3522256023F8042BC4
:103D000002AA0E46074601F0BBF90028E9D1384661
:103D1000314602AA08F1060301F0B2F90028E0D109
:103D20003846314602AA08F1080301F0A9F9002833
:103D3000D7D104AB226843F8042D08F10A0200929F
:103D4000384602AA314600F0D9FA0028C9D12368C2
:103D5000039A02999B1AB1422360C1D10C322260AE
:103D6000BFE700BF2DE9F04184B00024029438B1D0
:103D700033B11D68092D07D8092004B0BDE8F081D2
:103D80000E2004B0BDE8F0811C46134690460A3D63
:103D90003722256023F8042B02AA0E46074601F0BD
:103DA0006FF90028E9D13846314602AA08F1060326
:103DB00001F066F90028E0D13846314602AA08F140
:103DC000080301F05DF90028D7D104AB226843F85D
:103DD000042D08F10A020092384602AA314600F08A
:103DE000C7FA0028C9D12368039A02999B1AB142E5
:103DF0002360C1D10A322260BFE700BF2DE9F04144
:103E000084B00024029438B133B11D680D2D07D859
:103E1000092004B0BDE8F0810E2004B0BDE8F081B7
:103E20001C46134690460E3D3322256023F8042B92
:103E300002AA0E46074601F023F90028E9D13846C8
:103E4000314602AA08F1060301F01AF90028E0D170
:103E50003846314602AA08F1080301F011F900289A
:103E6000D7D104AB226843F8042D08F10A0200926E
:103E7000384602AA314600F009FC0028C9D123685F
:103E8000039A02999B1AB1422360C1D10E3222607B
:103E9000BFE700BF2DE9F04184B00024029438B19F
:103EA00033B11D680D2D07D8092004B0BDE8F0819D
:103EB0000E2004B0BDE8F0811C46134690460E3D2E
:103EC0003922256023F8042B02AA0E46074601F08A
:103ED000D7F80028E9D13846314602AA08F106038E
:103EE00001F0CEF80028E0D13846314602AA08F1A8
:103EF000080301F0C5F80028D7D104AB226843F8C5
:103F0000042D08F10A020092384602AA314600F058
:103F100003FC0028C9D12368039A02999B1AB14275
:103F20002360C1D10E322260BFE700BF2DE9F0410E
:103F300084B00024029438B133B11D680F2D07D826
:103F4000092004B0BDE8F0810E2004B0BDE8F08186
:103F50001C4613469046103D3022256023F8042B62
:103F600002AA0E46074601F08BF80028E9D1384630
:103F7000314602AA08F1060301F082F80028E0D1D8
:103F80003846314602AA08F1080301F079F8002802
:103F9000D7D104AB226843F8042D08F10A0200923D
:103FA000384602AA314600F0F5FB0028C9D1236843
:103FB000039A02999B1AB1422360C1D11032226048
:103FC000BFE700BF2DE9F04184B00024029438B16E
:103FD00033B11D680D2D07D8092004B0BDE8F0816C
:103FE0000E2004B0BDE8F0811C46134690460E3DFD
:103FF0003622256023F8042B02AA0E46074601F05C
:104000003FF80028E9D13846314602AA08F10603F4
:1040100001F036F80028E0D13846314602AA08F10E
:10402000080301F02DF80028D7D104AB226843F82B
:10403000042D08F10A020092384602AA314600F027
:10404000F7FB0028C9D12368039A02999B1AB14251
:104050002360C1D10E322260BFE700BF2DE9F041DD
:1040600084B00024029438B133B11D68112D07D8F3
:10407000092004B0BDE8F0810E2004B0BDE8F08155
:104080001C4613469046123D3622256023F8042B29
:1040900002AA0E46074600F0F3FF0028E9D1384691
:1040A000314602AA08F1060300F0EAFF0028E0D139
:1040B0003846314602AA08F1080300F0E1FF002863
:1040C000D7D104AB226843F8042D08F10A0200920C
:1040D000384602AA314600F08FF90028C9D123687A
:1040E000039A02999B1AB1422360C1D11232226015
:1040F000BFE700BF2DE9F04182B00024019438B140
:1041000033B11D68062D07D8092002B0BDE8F08143
:104110000E2002B0BDE8F0811C4613469046073DD4
:104120003B22256023F8042B01AA0E46074600F027
:10413000A7FF0028E9D13846314601AA08F1060355
:1041400000F09EFF0028E0D13846314601AA08F170
:10415000080300F095FF0028D7D1384601AA08F1DE
:104160000A03314600F0A2FB0028CED1019BB342E6
:10417000CAD107232360C8E72DE9F04184B00024A9
:10418000029438B133B11D680F2D07D8092004B04F
:10419000BDE8F0810E2004B0BDE8F0811C46134656
:1041A0009046103D3822256023F8042B02AA0E46C3
:1041B000074600F065FF0028E9D13846314602AADB
:1041C00008F1060300F05CFF0028E0D138463146D4
:1041D00002AA08F1080300F053FF0028D7D104AB6E
:1041E000226843F8042D08F10A020092384602AA18
:1041F000314600F067FB0028C9D12368039A029971
:104200009B1AB1422360C1D110322260BFE700BFC8
:104210002DE9F04182B00024019438B133B11D681A
:10422000072D07D8092002B0BDE8F0810E2002B0AA
:10423000BDE8F0811C4613469046083D3A222560B1
:1042400023F8042B01AA0E46074600F019FF0028A8
:10425000E9D13846314601AA08F1060300F010FF03
:104260000028E0D13846314601AA08F1080300F0E1
:1042700007FF0028D7D1384601AA08F10A033146C2
:1042800000F066FB0028CED1019BB342CAD10823BF
:104290002360C8E7A8B12DE9F041144672B11D466C
:1042A00063B10E46074600F0EBFE40B93846314692
:1042B0002246AB1CBDE8F04101F0B2B80E20BDE8CB
:1042C000F0810E20704700BFA8B12DE9F0411446DF
:1042D00072B11D4663B10E46074600F0D1FE40B9EB
:1042E000384631462246AB1CBDE8F04101F06AB8C1
:1042F0000E20BDE8F0810E20704700BF40B32DE9CD
:10430000F041144682B0FAB1089FEFB11D46089BF8
:1043100006460F4600F0B4FEB8B9089B3046394651
:104320002246023300F0ACFE78B9089B089A5B88FD
:10433000B2F800802A68023318FB03F81FFA88F8E5
:10434000904507D9092000E00E2002B0BDE8F081B9
:104350000E207047089BCDF8008030463946224633
:10436000043300F0C1FF0028EFD1C5F80080ECE76E
:10437000B8B1F0B5144683B082B1089F77B11D463D
:10438000089B07460E4600F07BFE40B9089B2A6852
:104390001B88934207D9092003B0F0BD0E2003B05B
:1043A000F0BD0E2070470093089B384631462246E8
:1043B000023300F099FF0028F1D1089B1B882B6085
:1043C000EDE700BFA9B12DE9F0411C4673B10546E8
:1043D00060B116460F4600F03DFE40B9A81C3946B4
:1043E00032462346BDE8F04100F034BE0E20BDE861
:1043F000F0810E20704700BF2DE9F84F0A9D00287C
:1044000045D01446002A42D0002D40D01F462B46EE
:104410000646884600F034FED0BB2B88D3B303F1A8
:10442000FF3909EB89093B684FEA4909994502D9E7
:104430000920BDE8F88F834605F1020A414622466D
:104440005346304600F01CFE414622460AF1020364
:10445000F0B9304600F0B6FF414622460AF10603A5
:10446000F0B9304600F00CFE90B90AF1080330466E
:104470004146224600F004FE0BF1010B0AF10A0A44
:1044800030B92B885B4506D9BAF1000FD6D10E2082
:10449000BDE8F88F9946C7F800900020BDE8F88F76
:1044A000BDE8F88F51B3F0B51C4683B01BB3054689
:1044B00008B317460E4600F0F7FDE8B9681C314610
:1044C0003A46234600F0F0FDB0B9A81C31463A4602
:1044D000234600F0BFFD78B9281D31463A462346F1
:1044E00000F0B8FD40B9A868E988009432463B4620
:1044F00000F060FE00E00E2003B0F0BD0E2070471B
:104500002DE9F84F0A9C58B115464AB144B1984676
:1045100023460E46074600F0B3FD20B1BDE8F88FF4
:104520000E20BDE8F88F384631462A46A31C00F01D
:10453000CDFD0028F2D1A3782288012B2CD0AAB37C
:1045400002F1FF3A0AEBCA0ADFF864904FEA4A0A1E
:10455000D8F800108A4588BF0920DFD8BAB14FF0DB
:10456000000B00E0A378012B0CBF0BEB4B030BEB14
:10457000CB0304EB43030433384631462A46C8478D
:104580000BF1010B0028C9D123885B45EAD8C8F894
:1045900000A00020BDE8F88F42B102F1FF3A0AEB1B
:1045A0004A0A4FEA4A0ADFF80C90D1E79246EEE752
:1045B00095420000C94200002DE9F04F83B00C9EE7
:1045C000002859D01446002A56D0002E54D09846C0
:1045D00033460D46074600F053FD00284DD1338881
:1045E000002B4DD003F1FF3A0AEB8A0AD8F80030CD
:1045F0004FEA4A0A9A4588BF09203ED8834606F109
:1046000002092CE03846FFF7B3F9294622460DF19E
:10461000070390BB384600F059FD70BB0BEB8B03D2
:1046200006EB43039DF80710DA7961F30002DA71B3
:1046300038462946224609F1060300F021FDE0B97B
:1046400009F1080338462946224600F019FD0BF10E
:10465000010B09F10A0980B933885B4511D9294654
:1046600022464B46384600F0ADFE09F104032946C8
:1046700022460028C6D000E00E2003B0BDE8F08F2F
:104680009A46C8F800A00020F7E700BF2DE9F84FD0
:104690000A9EC8B11446BAB1B6B1984633460D4623
:1046A000074600F0EDFC68B9338883B103F1FF39A8
:1046B00009EB4909D8F800304FEA4909994588BF04
:1046C00009200AD9BDE8F88F0E20BDE8F88F994679
:1046D000C8F800900020BDE8F88F834606F1040A70
:1046E00007E0384600F06EFE0028EBD133885B45CA
:1046F000EED9AAF1020329462246384600F0C0FC52
:104700000BF1010B5346294622460AF1060A0028FE
:10471000E7D0BDE8F88F00BF002837D02DE9F04181
:10472000144682B072B3089F67B31E46089B0546C5
:104730000F4600F0A5FC30BB089B284639462246B0
:10474000023300F0C3FCF0B9089B284639462246E4
:10475000043300F095FCB0B9089B9B88C3B1326864
:1047600003F1FF38904588BF09200CD80093089BBF
:10477000284639462246063300F0B6FD18B9C6F879
:10478000008000E00E2002B0BDE8F0810E207047EE
:104790009846EBE72DE9F84F0A9EB0B11546A2B155
:1047A0009EB1984633460C46074600F069FC78B93E
:1047B00033887BB103F1FF39D8F800304FEAC909DB
:1047C00099450DD90920BDE8F88F0E20BDE8F88F76
:1047D000BDE8F88F9946C8F800900020BDE8F88F32
:1047E000824606F1020B14E0384600F049FC00282E
:1047F000EED10BF10603384621462A4600F040FC74
:104800000AF1010A0BF1080B0028E1D13388534566
:10481000E1D921462A465B46384600F0D3FD2146C1
:104820002A460BF104030028DED0BDE8F88F00BF54
:10483000002837D02DE9F041144682B072B3089FAA
:1048400067B31E46089B05460F4600F019FC30BBB7
:10485000089B284639462246023300F011FCF0B985
:10486000089B284639462246043300F009FCB0B9BB
:10487000089B9B88C3B1326803F1FF38904588BF1D
:1048800009200CD80093089B284639462246063357
:1048900000F02AFD18B9C6F8008000E00E2002B032
:1048A000BDE8F0810E2070479846EBE740B130B488
:1048B0001AB113B130BC00F009BC0E2030BC7047F7
:1048C0000E20704700283FD02DE9F041144682B0F9
:1048D000002A35D0089D9DB31F46089B8846064692
:1048E000154600F0CDFB60BB089B30464146224692
:1048F000023300F0EBFB20BB089B304641462246CA
:10490000043300F0BDFBE0B9089B30464146224627
:10491000063300F0B5FBA0B9089BDB88B3B13A6859
:104920005C1E944288BF09200BD80093089B304638
:1049300041462A46083300F0D7FC10B93C6000E03D
:104940000E2002B0BDE8F0810E2070471C46ECE757
:1049500040B130B41AB113B130BC00F091BB0E209D
:1049600030BC70470E207047F0B585B0ADF806003A
:10497000ADF804100AB303B31D4604A82E6814460C
:10498000AD2300F8053D0027324603AB21460397CF
:1049900000F08AFB90B90DF106002146324603ABC8
:1049A00000F058FB50B92146324603AB01A800F095
:1049B00051FB18B9039B2B6000E00E2005B0F0BD41
:1049C0001346AD2200F006BB2DE9F04182B0002471
:1049D000019438B133B11D68032D07D8092002B006
:1049E000BDE8F0810E2002B0BDE8F0811C46134600
:1049F0009046043D5322256023F8042B01AA0E465D
:104A0000074600F03DFB0028E9D1384601AA08F12D
:104A10000603314600F054FA0028E0D1019BB3426E
:104A2000DCD104232360DAE72DE9F04784B00024C9
:104A3000029440B13BB11D68112D09D809252846C3
:104A400004B0BDE8F0870E25284604B0BDE8F08725
:104A50001C4613469046123D5322256023F8042B32
:104A600002AA0E46074600F00BFB002841D10DF1CB
:104A70001009236849F8043D08F1060200924B46EC
:104A80003846314602AA00F0B1F905460028D6D1D1
:104A90002368DDF80CA0CAEB0303236098F8063006
:104AA000012B28D0022B06D01223029AB242C5D184
:104AB00053442360C3E798F80E3003F0FD03042B42
:104AC000F2D1B8F804004946FCF794FE0528EBD073
:104AD000039B0A4A03EB430302EB830303F1080140
:104AE0000091384602AA0433314600F08DFB0028BD
:104AF000DAD00546A3E70C23D7E700BF4417002010
:104B000070B582B00024019430B12BB11D68012D25
:104B100005D8092002B070BD0E2002B070BD1C4641
:104B20001346023D5422256023F8042B01AA0E46A9
:104B300000F0A6FA0028EDD1019BB342E9D102238F
:104B40002360E7E72DE9F04182B00024019438B1F9
:104B500033B11D68022D07D8092002B0BDE8F081ED
:104B60000E2002B0BDE8F0811C4613469046033D7E
:104B70005222256023F8042B01AA0E46074600F0B6
:104B80007FFA0028E9D1384601AA08F10603314628
:104B900000F0A2F90028E0D1019BB342DCD103234D
:104BA0002360DAE72DE9F04182B00024019438B1A6
:104BB00033B11D68022D07D8092002B0BDE8F0818D
:104BC0000E2002B0BDE8F0811C4613469046033D1E
:104BD0005622256023F8042B01AA0E46074600F052
:104BE0004FFA0028E9D1384601AA08F106033146F8
:104BF00000F07EF90028E0D1019BB342DCD1032311
:104C00002360DAE72DE9F04784B00024029440B134
:104C10003BB11D680F2D09D80925284604B0BDE811
:104C2000F0870E25284604B0BDE8F0871C461346E1
:104C30009046103D5022256023F8042B02AA0E4610
:104C4000074600F01DFA002839D10DF1100923683C
:104C500049F8043D08F1060200924B4638463146B9
:104C600002AA00F061F805460028D6D12368DDF8D5
:104C70000CA0CAEB0303236098F80C30062B06D077
:104C8000029BB342C8D10AF110032360C5E7B8F80C
:104C900004004946FCF7AEFD0528F1D0039B094A04
:104CA00003EB430302EB830303F108010091384651
:104CB00002AA0433314600F0A7FA0028E0D00546E6
:104CC000ABE700BF441700202DE9F04182B000247B
:104CD000019438B133B11D68032D07D8092002B003
:104CE000BDE8F0810E2002B0BDE8F0811C461346FD
:104CF0009046043D5522256023F8042B01AA0E4658
:104D0000074600F0BDF90028E9D1384601AA08F1AC
:104D10000603314600F0C8F80028E0D1019BB342F9
:104D2000DCD104232360DAE72DE9F04182B008B337
:104D30001446FAB1089FEFB19846089B0D46064607
:104D4000174600F09DF980B9089B22463046294657
:104D5000023300F037FB044668B9089B3046294609
:104D60003A46063300F0B2F948B10446204602B094
:104D7000BDE8F0810E24204602B0BDE8F081089B1A
:104D8000304629463A46073300F0A0F90028ECD116
:104D9000089B304629463A46083300F071F900284E
:104DA000E3D1089B304629463A460A3300F068F9B9
:104DB0000028DAD1089AD8F80030528901339A4293
:104DC00001D90924D7E7089B0092304629463A4684
:104DD0000C3300F089FA0028C7D1089B5B89012BAE
:104DE00088BF03F1FF30C8F80000C4E72DE9F041A7
:104DF000069CC0B11546B2B1ACB1984623460E46EA
:104E0000074600F063F990B92378012B11D0022BEB
:104E10000CD102340694384631462A464346BDE852
:104E2000F041FFF781BF0E20BDE8F0810B20BDE807
:104E3000F08104F102084346384631462A4600F024
:104E40001FF90028F3D1231D384631462A4600F0C9
:104E5000B9FA0028EBD1384631462A4604F1080356
:104E600000F00EF9BDE8F081E1B1F0B583B0B3B167
:104E7000A8B190F800E0044602A8CEF3000E00F8B6
:104E800001ED16460F461D4600F00EF940B9201DF3
:104E9000394632462B4600F0BDF803B0F0BD0E2077
:104EA00003B0F0BD0E20704740B130B41AB113B159
:104EB00030BC00F0E5B80E2030BC70470E207047C3
:104EC00040B130B41AB113B130BC00F0D9B80E20E3
:104ED00030BC70470E20704740B130B41AB113B1E6
:104EE00030BC00F0F3B80E2030BC70470E20704785
:104EF00040B130B41AB113B130BC00F0E7B80E20A5
:104F000030BC70470E2070472DE9F04184B000247A
:104F1000029438B133B11D68072D07D8092004B0B9
:104F2000BDE8F0810E2004B0BDE8F0811C461346B8
:104F30009046083D7022256023F8042B02AA0E46F5
:104F4000074600F09DF80028E9D104AB226843F839
:104F5000042D08F106020092384602AA314600F0FC
:104F60006FFA0028DBD12368039A02999B1AB14299
:104F70002360D3D108322260D1E700BF48B141B1EC
:104F800010B4019C3CB1042A09D80C205DF8044BF4
:104F900070470E2070470E205DF8044B70470A687A
:104FA000845C9C4203D00B205DF8044B70470132B7
:104FB0008418825CA0786378E478000440EA0323D4
:104FC0001343019A43EA046313600B6805330B60D3
:104FD0000020DBE720B11BB1042903D80C20704767
:104FE0000E20704770B40478944202D00B2070BC3D
:104FF0007047C578827844780679280440EA02220E
:105000002243052942EA06621A6014BF0C200020E0
:10501000EDE700BF51B148B143B110B41C68121B99
:10502000032A05D809205DF8044B70470E2070470D
:1050300002680A552144C2F30740C2F30724120E46
:1050400088704C70CA701A685DF8044B04320020F6
:105050001A60704710B41C68121B012A0BD9028811
:105060000A550C44120A62701A685DF8044B023249
:1050700000201A60704709205DF8044B704700BF9C
:1050800030B41468091B01290BD90519015D687832
:1050900041EA00211980136802330020136030BCFC
:1050A0007047092030BC704710B41C68944208D087
:1050B00002780A551A685DF8044B013200201A6024
:1050C000704709205DF8044B704700BF10B41468A6
:1050D0008C4208D0015D197013685DF8044B0133F0
:1050E00000201360704709205DF8044B704700BF33
:1050F00030B41468651C8D4204D8015D19701368C2
:105100000133136030BC7047F8B5069C2568AB428C
:1051100012D051550E46216801318B4221600BD0CF
:105120000746003018BF012050542168013121602A
:1051300068B15B1A9E4201D90920F8BD5018324669
:10514000394604F08FFC23681E4426600020F8BD19
:10515000F8B51568069CA94294F800E00ED0455DAC
:1051600025701668751C1560A942277806D002368E
:10517000B14205D2D3B100201860F8BD0920F8BDB6
:10518000445D1660012CF5D193B11D6885B1BE4513
:10519000F4D38B1B9F42F1D8144601463A46284669
:1051A000314404F05FFC23681F4427600020F8BDF1
:1051B0000E20F8BDF8B5069C25685F1B012F16D997
:1051C0000E46511956558646300A487021680231FC
:1051D0008B4221600BD01EF1000018BF01205054FB
:1051E00021680131216068B15B1A9E4201D9092012
:1051F000F8BD50183246714604F034FC23681E4452
:1052000026600020F8BD00BFF8B51568069C4E1B4F
:10521000012EB4F800E012D94619455D767845EACA
:10522000062525801668B51C1560A942278806D07A
:105230000336B14205D2D3B100201860F8BD092071
:10524000F8BD445D1660012CF5D193B11D6885B1A0
:10525000BE45F4D38B1B9F42F1D8144601463A4613
:105260002846314404F0FEFB23681F4427600020D9
:10527000F8BD0E20F8BD00BF70B5049D2E68B34286
:105280000AD0041C18BF012494552E6801362E60E4
:105290006CB19B1B994201D9092070BD0C46014697
:1052A0009019224604F0DEFB296821442960002081
:1052B00070BD00BF70B5049C38B132B12CB1266806
:1052C0009B1B994203D9092070BD0E2070BD034677
:1052D0000D461046194630442A4604F0C3FB2168A7
:1052E00029442160002070BD70B5BDF810502BB16D
:1052F0001668891B8D4203D9092070BD0E2070BD30
:10530000144601462A461846314404F0ABFB236894
:105310001D442560002070BD79B12DE9F0411D4686
:1053200043B1064630B117468846FFF7BDFE30B19F
:10533000BDE8F0810E20BDE8F0810E207047701CA2
:1053400041463A462B46FFF7AFFE0028F0D1B01C8D
:1053500041463A462B46FFF7A7FEB8B9F01C414636
:105360003A462B46FFF7A0FE0028E1D1301D41460A
:105370003A462B46FFF798FE0028D9D1701D4146CA
:105380003A462B46BDE8F041FFF78EBEBDE8F081FE
:10539000A9B12DE9F0411C4673B1054660B116462E
:1053A0000F46FFF757FE40B9A81C39463246234640
:1053B000BDE8F041FFF778BE0E20BDE8F0810E2079
:1053C000704700BFA8B12DE9F041144672B11D46E7
:1053D00063B10E460746FFF753FE40B938463146E3
:1053E0002246AB1CBDE8F041FFF770BE0E20BDE8C1
:1053F000F0810E20704700BF79B173B110B582B053
:1054000040B11C46009413460A461021FFF752FF94
:1054100002B010BD0E2002B010BD0E20704700BFBC
:1054200060B130B583B032B12BB110240094FFF7D6
:105430005BFF03B030BD0E2003B030BD0E207047BF
:10544000A8B12DE9F041144682B062B1089D55B172
:105450001E46089B074615468846FFF711FE40B1D9
:1054600002B0BDE8F0810E2002B0BDE8F0810E2050
:105470007047089B3846414622460233FFF700FE3C
:105480000028EDD1089B1B888BB132685C1E9442CA
:1054900088BF0920E4D80093089B384641462A4635
:1054A0000433FFF721FF0028DAD13460D8E71C4627
:1054B000F1E700BF79B1F0B51C4683B043B10546B2
:1054C00030B117460E46FFF7C5FD30B103B0F0BD51
:1054D0000E2003B0F0BD0E207047134B6868009398
:1054E00031463A46234600F049F80028EED105F14E
:1054F000080031463A462346FEF710FA0028E5D167
:1055000005F1100031463A462346FEF75BFA0028C3
:10551000DCD105F1140031463A46234603B0BDE81C
:10552000F040FFF7A1BC00BF1953000018B32DE9EC
:10553000F0411446E2B11D46D3B10F460646FFF7CF
:105540009FFDB0B9304639462246AB1CFFF798FDA7
:1055500078B93046394622462B1DFFF791FD40B9F8
:10556000304639462246AB1DBDE8F041FFF788BD05
:105570000E20BDE8F0810E20704700BFF0B51F6817
:10558000059C07F1010E964501D90920F0BD061CC6
:1055900018BF0126CE551F6801371F6036B11CB1F8
:1055A000A446BDE8F04060472046F0BD3046F0BD5F
:1055B000F0B516688E4283B014460D4602D109201C
:1055C00003B0F0BD1E460DF107030746FFF790FD3F
:1055D0009DF80700012807D018B9A6B1306003B0C4
:1055E000F0BD0B2003B0F0BD5EB133684BB1089A3B
:1055F0002AB1224638462946089CA047E0E71046D3
:10560000DEE70E20DCE73046DAE700BFA0B199B153
:1056100030B583B0034602A832220C4600F8052DAF
:1056200000250A680195194601ABFFF73DFD08B951
:10563000019B236003B030BD0E2070474FF08043C4
:105640004FF0A04170B4012203260025C1F82C6759
:105650000446C3F818251946C3F804519A60D1F8D6
:1056600004314FF08042002BF9D0034B0020C2F8E8
:1056700004011C6070BC7047640700204FF47A730B
:1056800003FB00F000283ED01F4B204A1B6800BFE0
:1056900000BF00BF00BF00BF00BF00BF00BF9342FC
:1056A0002FD000BF00BF00BF00BF00BF00BF00BFC2
:1056B00000BF00BF00BF00BF00BF00BF00BF00BFF2
:1056C00000BF00BF00BF00BF00BF00BF00BF00BFE2
:1056D00000BF00BF00BF00BF00BF00BF00BF00BFD2
:1056E00000BF00BF00BF00BF00BF00BF00BF00BFC2
:1056F00000BF00BF00BF00BF00BF00BF00BF00BFB2
:1057000000BF0138C3D17047980600200024F40080
:105710004FF0A0434FF40062C3F80C25704700BF60
:105720004FF0A0434FF40062C3F80825704700BF54
:10573000024BE02283F81623704700BF00E100E02F
:10574000024B4FF48002C3F80021704700E100E0F3
:10575000014B01221A70704768070020014B18782E
:10576000704700BF680700204FF080430122C3F854
:105770000025FEE7F0B589B001AB05AC83E8070072
:105780000C2220460021FAF7DDFE9DF804300522A8
:105790008DF81420062B14D8DFE803F02F043E62A6
:1057A000525F1800BDF80830734D0122B3F5C07F79
:1057B0008DF814202B7864D8934200F0A080042B3D
:1057C00071D00020FAF7B6FF09B0F0BD6B4A029B1A
:1057D000117807930220042303298DF814308DF8E3
:1057E000180068D0644D2E78022E70D0644B94E877
:1057F00007001B68984709B0F0BD604B1A78032A70
:10580000DFD100225E4D8DF8142094E807002C684B
:1058100001251D70A047D7E7574B1A78022AD0D12F
:105820000298BDF80C10564D8DF814200690ADF876
:105830001C1094E807002C6804251D70A047C3E7DE
:10584000042100224E4B8DF814108DF8182094E896
:1058500007001B68984709B0F0BD04210122F1E759
:10586000454D2B78032B40D0062BAAD10322444B65
:105870008DF814201B6894E80700984704232B70C8
:10588000A2E7012B49D0042B9BD13D4B94E80700A4
:105890001B689847002000F081FC08B1FAF74AFF26
:1058A00006232B7090E7364B94E807001B68984757
:1058B00005232B7088E70399137000293BD0314BE7
:1058C000994218BF10203AD0FAF734FF8EE7039FB1
:1058D0002B7000F007FD87B32B4B9F4218BF10259C
:1058E00030D000F0F7FC2846EEE7254E8DF8143056
:1058F00094E807003368984701232B7064E7204B36
:1059000094E807001B6898471F4800F047FC08B15F
:10591000FAF710FF02232B7056E7194B94E80700A3
:105920001B689847002000F039FC08B1FAF702FF25
:1059300003232B7048E70E20C6E70E25D1E701238D
:10594000137053E72B78042B0BD0062B0ED0052BAE
:1059500018BF0825C5D1384600F020FC48B1032502
:10596000BFE701232B7000F0B5FC3FE703232B704A
:10597000F9E72E70F7E700BF70070020740A0020D7
:105980006C07002074070020F4080020F8B50E4CC6
:1059900023780BB10820F8BD0C4E3578002DF9D1D5
:1059A00080B10B4F03463B600A48012323703370DC
:1059B00000F016FC38B10728257035703D6018BF1F
:1059C0000320F8BD0E20F8BD70070020740A0020E7
:1059D0006C0700207557000038B5044600F082FCC3
:1059E00044B1154B9C4218BF102408D000F072FC43
:1059F000204638BD0E2400F06DFC204638BD0F4D0A
:105A00002B78042B0CD0062B0ED0052B18BF0824A6
:105A1000ECD1204600F0C2FB044648B10324E5E780
:105A200001232B700024E1E703232B700024DDE722
:105A300002232B70DAE700BFF40800207007002073
:105A400028B121B1094A13781BB9082070470E20EC
:105A50007047012B01D004207047054B03600220E2
:105A60004FF4C07310700B8000207047740A002040
:105A70007407002038B109B907207047144B9842C9
:105A800003D0102070470E207047B1F5C07F01D9B8
:105A90000C20704770B50F4E3378022B82B018BFC0
:105AA000082001D002B070BD04460D4600F01AFC7B
:105AB0002046294600F044FB30B90323337001909F
:105AC00000F008FC0198EDE7112818BF0320F6E765
:105AD00074070020740A00204FF0A043D3F810355B
:105AE000C340DB0708D50A4B00221A70094B4FF45C
:105AF0000002C3F800217047074A054901230B70D3
:105B00001370044B4FF40002C3F80021704700BF2C
:105B1000920B002000E100E09D0B00204FF0A0431D
:105B2000D3F81035C340DB0708D50A4B00221A70A2
:105B3000094B4FF40002C3F800217047074A05499A
:105B400001230B701370044B4FF40002C3F80021C3
:105B5000704700BF9C0B002000E100E0960B002086
:105B600003783BB90449054B01204FF4000208704B
:105B7000C3F80021704700BF940B002000E100E053
:105B800030B5074C83B00023020A054662702146F7
:105B9000009302220348257001F0F0F803B030BDF5
:105BA000780A002088AA00002DE9F041A44B1A7859
:105BB00086B0002A6CD1A34B1A78002A4ED1A24B92
:105BC0001A78002A2FD1A14B1A78DAB9A04B1A788B
:105BD00012B906B0BDE8F0819E4C22780021197000
:105BE000002AF6D19C4B1868002800F05B829B4B82
:105BF0009B491A7800230B70002A40F0FF81022392
:105C00002370E6E7934A1078002107281970DDD148
:105C1000924B94481B780180002B40F00B82904BF4
:105C200001221A70D2E78B4C22780021013A1970B8
:105C3000072AC8D801A353F822F000BFDB5C00009C
:105C4000C75B00003B5D0000C75B00001D5D0000FE
:105C50007B5D0000C75B0000B15C00007D4C2278DA
:105C60000021013A1970072AA9D801A353F822F09C
:105C7000EB5D0000D75E0000F75E00003D5F0000B6
:105C8000595F0000BF5B0000955E0000AD5D000045
:105C9000704D2C7800221A70002C8CD16F4B704AFA
:105CA0001B781470002B40F0B88104232B7082E71E
:105CB0006C496D480B8805886C4A2B4412889BB24E
:105CC00093420B8080F05A8164490978002940F0A2
:105CD000C981634B01221A7075E76049644A654BBC
:105CE000654E128809781A80002333800029F0D08D
:105CF000FF2A28BFFF22614F574961480968009376
:105D000015464FF0030ED2B23D8084F800E001F05A
:105D100035F833883A881344338054E74F4B1B7867
:105D2000002BD6D002230021062500930A46554BAE
:105D30002570534801F022F845E74F4D4D4B298817
:105D40001B88994280F03E81444A1278002AC0D0D4
:105D50005C1A414A494E17684948A4B2FF2C28BF33
:105D6000FF2400230093E2B23944348001F006F8A6
:105D70002B88328813442B8025E7424A42485178C9
:105D80001378DFF80CE1394F056843EA012301225B
:105D90008DF80C20ADF8103006AA072612E907008E
:105DA000AEF800303B802670A8470CE72C480378FB
:105DB000002B3FF404AF2B4B2C4A1B88128833492D
